{"abi":[{"type":"constructor","inputs":[{"name":"_manager","type":"address","internalType":"contract IPoolManager"}],"stateMutability":"nonpayable"},{"type":"function","name":"manager","inputs":[],"outputs":[{"name":"","type":"address","internalType":"contract IPoolManager"}],"stateMutability":"view"},{"type":"function","name":"modifyLiquidity","inputs":[{"name":"key","type":"tuple","internalType":"struct PoolKey","components":[{"name":"currency0","type":"address","internalType":"Currency"},{"name":"currency1","type":"address","internalType":"Currency"},{"name":"fee","type":"uint24","internalType":"uint24"},{"name":"tickSpacing","type":"int24","internalType":"int24"},{"name":"hooks","type":"address","internalType":"contract IHooks"}]},{"name":"params","type":"tuple","internalType":"struct IPoolManager.ModifyLiquidityParams","components":[{"name":"tickLower","type":"int24","internalType":"int24"},{"name":"tickUpper","type":"int24","internalType":"int24"},{"name":"liquidityDelta","type":"int256","internalType":"int256"},{"name":"salt","type":"bytes32","internalType":"bytes32"}]},{"name":"hookData","type":"bytes","internalType":"bytes"},{"name":"settleUsingBurn","type":"bool","internalType":"bool"},{"name":"takeClaims","type":"bool","internalType":"bool"}],"outputs":[{"name":"delta","type":"int256","internalType":"BalanceDelta"}],"stateMutability":"payable"},{"type":"function","name":"modifyLiquidity","inputs":[{"name":"key","type":"tuple","internalType":"struct PoolKey","components":[{"name":"currency0","type":"address","internalType":"Currency"},{"name":"currency1","type":"address","internalType":"Currency"},{"name":"fee","type":"uint24","internalType":"uint24"},{"name":"tickSpacing","type":"int24","internalType":"int24"},{"name":"hooks","type":"address","internalType":"contract IHooks"}]},{"name":"params","type":"tuple","internalType":"struct IPoolManager.ModifyLiquidityParams","components":[{"name":"tickLower","type":"int24","internalType":"int24"},{"name":"tickUpper","type":"int24","internalType":"int24"},{"name":"liquidityDelta","type":"int256","internalType":"int256"},{"name":"salt","type":"bytes32","internalType":"bytes32"}]},{"name":"hookData","type":"bytes","internalType":"bytes"}],"outputs":[{"name":"delta","type":"int256","internalType":"BalanceDelta"}],"stateMutability":"payable"},{"type":"function","name":"unlockCallback","inputs":[{"name":"rawData","type":"bytes","internalType":"bytes"}],"outputs":[{"name":"","type":"bytes","internalType":"bytes"}],"stateMutability":"nonpayable"}],"bytecode":{"object":"0x60a0604052348015600e575f80fd5b506040516110fb3803806110fb833981016040819052602b91603b565b6001600160a01b03166080526066565b5f60208284031215604a575f80fd5b81516001600160a01b0381168114605f575f80fd5b9392505050565b60805161104e6100ad5f395f818160790152818160f50152818161022d01528181610268015281816103340152818161038a015281816103f9015261044a015261104e5ff3fe60806040526004361061003e575f3560e01c80630a5b11e414610042578063481c6a75146100685780635a6bcfda146100b357806391dd7346146100c6575b5f80fd5b610055610050366004610b8f565b6100f2565b6040519081526020015b60405180910390f35b348015610073575f80fd5b5061009b7f000000000000000000000000000000000000000000000000000000000000000081565b6040516001600160a01b03909116815260200161005f565b6100556100c1366004610c16565b61020a565b3480156100d1575f80fd5b506100e56100e0366004610c74565b610220565b60405161005f9190610d10565b5f7f00000000000000000000000000000000000000000000000000000000000000006001600160a01b03166348c894916040518060c00160405280336001600160a01b03168152602001898152602001888152602001878152602001861515815260200185151581525060405160200161016c9190610d6c565b6040516020818303038152906040526040518263ffffffff1660e01b81526004016101979190610d10565b5f604051808303815f875af11580156101b2573d5f803e3d5ffd5b505050506040513d5f823e601f3d908101601f191682016040526101d99190810190610e08565b8060200190518101906101ec9190610e7d565b9050478015610200576102005f3383610499565b5095945050505050565b5f6102188484845f806100f2565b949350505050565b6060336001600160a01b037f00000000000000000000000000000000000000000000000000000000000000001614610256575f80fd5b5f61026383850185610e94565b90505f7f00000000000000000000000000000000000000000000000000000000000000006001600160a01b0316635a6bcfda8360200151846040015185606001516040518463ffffffff1660e01b81526004016102c293929190610f5d565b60408051808303815f875af11580156102dd573d5f803e3d5ffd5b505050506040513d601f19601f820116820180604052508101906103019190610fb5565b5090505f61030f8260801d90565b600f0b90505f61031f83600f0b90565b600f0b90505f82121561037a57835161037a907f00000000000000000000000000000000000000000000000000000000000000009061035d85610fd7565b60808801516020890151516001600160a01b03169392919061053e565b5f8112156103d25783516103d2907f0000000000000000000000000000000000000000000000000000000000000000906103b384610fd7565b60808801516020808a015101516001600160a01b03169392919061053e565b5f82131561042157835160a0850151602086015151610421926001600160a01b03909116917f00000000000000000000000000000000000000000000000000000000000000009190869061080a565b5f81131561047257835160a08501516020808701510151610472926001600160a01b03909116917f00000000000000000000000000000000000000000000000000000000000000009190859061080a565b60408051602081018590520160405160208183030381529060405294505050505092915050565b5f6001600160a01b0384166104ce575f805f8085875af19050806104c9576104c9835f633d2cec6f60e21b6108dc565b610538565b60405163a9059cbb60e01b81526001600160a01b038416600482015282602482015260205f6044835f895af13d15601f3d1160015f511416171691505f81525f60208201525f60408201525080610538576105388463a9059cbb60e01b633c9fd93960e21b6108dc565b50505050565b80156105d357836001600160a01b031663f5298aca8461056d886001600160a01b03166001600160a01b031690565b6040516001600160e01b031960e085901b1681526001600160a01b0390921660048301526024820152604481018590526064015b5f604051808303815f87803b1580156105b8575f80fd5b505af11580156105ca573d5f803e3d5ffd5b50505050610803565b6001600160a01b03851661064a57836001600160a01b03166311da60b4836040518263ffffffff1660e01b815260040160206040518083038185885af115801561061f573d5f803e3d5ffd5b50505050506040513d601f19601f820116820180604052508101906106449190610e7d565b50610803565b604051632961046560e21b81526001600160a01b03868116600483015285169063a5841194906024015f604051808303815f87803b15801561068a575f80fd5b505af115801561069c573d5f803e3d5ffd5b505050506001600160a01b038316301461072e576040516323b872dd60e01b81526001600160a01b0384811660048301528581166024830152604482018490528616906323b872dd906064016020604051808303815f875af1158015610704573d5f803e3d5ffd5b505050506040513d601f19601f820116820180604052508101906107289190610ffd565b506107a0565b60405163a9059cbb60e01b81526001600160a01b0385811660048301526024820184905286169063a9059cbb906044016020604051808303815f875af115801561077a573d5f803e3d5ffd5b505050506040513d601f19601f8201168201806040525081019061079e9190610ffd565b505b836001600160a01b03166311da60b46040518163ffffffff1660e01b81526004016020604051808303815f875af11580156107dd573d5f803e3d5ffd5b505050506040513d601f19601f820116820180604052508101906108019190610e7d565b505b5050505050565b8061084c57604051630b0d9c0960e01b81526001600160a01b038681166004830152848116602483015260448201849052851690630b0d9c09906064016105a1565b836001600160a01b031663156e29f684610875886001600160a01b03166001600160a01b031690565b6040516001600160e01b031960e085901b1681526001600160a01b0390921660048301526024820152604481018590526064015f604051808303815f87803b1580156108bf575f80fd5b505af11580156108d1573d5f803e3d5ffd5b505050505050505050565b6040516390bfb86560e01b8082526001600160a01b03851660048301526001600160e01b031984166024830152608060448301526020601f3d018190040260a0810160648401523d608484015290913d5f60a483013e60048260a4018201526001600160e01b031984168260c4018201528160e40181fd5b634e487b7160e01b5f52604160045260245ffd5b60405160c0810167ffffffffffffffff8111828210171561098b5761098b610954565b60405290565b604051601f8201601f1916810167ffffffffffffffff811182821017156109ba576109ba610954565b604052919050565b6001600160a01b03811681146109d6575f80fd5b50565b8035600281900b81146109ea575f80fd5b919050565b5f60a082840312156109ff575f80fd5b60405160a0810167ffffffffffffffff81118282101715610a2257610a22610954565b6040529050808235610a33816109c2565b81526020830135610a43816109c2565b6020820152604083013562ffffff81168114610a5d575f80fd5b6040820152610a6e606084016109d9565b60608201526080830135610a81816109c2565b6080919091015292915050565b5f60808284031215610a9e575f80fd5b6040516080810167ffffffffffffffff81118282101715610ac157610ac1610954565b604052905080610ad0836109d9565b8152610ade602084016109d9565b602082015260408301356040820152606083013560608201525092915050565b5f67ffffffffffffffff821115610b1757610b17610954565b50601f01601f191660200190565b5f82601f830112610b34575f80fd5b8135610b47610b4282610afe565b610991565b818152846020838601011115610b5b575f80fd5b816020850160208301375f918101602001919091529392505050565b80151581146109d6575f80fd5b80356109ea81610b77565b5f805f805f6101808688031215610ba4575f80fd5b610bae87876109ef565b9450610bbd8760a08801610a8e565b935061012086013567ffffffffffffffff811115610bd9575f80fd5b610be588828901610b25565b935050610140860135610bf781610b77565b9150610160860135610c0881610b77565b809150509295509295909350565b5f805f6101408486031215610c29575f80fd5b610c3385856109ef565b9250610c428560a08601610a8e565b915061012084013567ffffffffffffffff811115610c5e575f80fd5b610c6a86828701610b25565b9150509250925092565b5f8060208385031215610c85575f80fd5b823567ffffffffffffffff811115610c9b575f80fd5b8301601f81018513610cab575f80fd5b803567ffffffffffffffff811115610cc1575f80fd5b856020828401011115610cd2575f80fd5b6020919091019590945092505050565b5f81518084528060208401602086015e5f602082860101526020601f19601f83011685010191505092915050565b602081525f610d226020830184610ce2565b9392505050565b80516001600160a01b03908116835260208083015182169084015260408083015162ffffff169084015260608083015160020b9084015260809182015116910152565b602080825282516001600160a01b0316828201528201515f90610d926040840182610d29565b506040838101518051600290810b60e08601526020820151900b610100850152908101516101208401526060908101516101408401528301516101a0610160840152610de26101c0840182610ce2565b90506080840151151561018084015260a084015115156101a08401528091505092915050565b5f60208284031215610e18575f80fd5b815167ffffffffffffffff811115610e2e575f80fd5b8201601f81018413610e3e575f80fd5b8051610e4c610b4282610afe565b818152856020838501011115610e60575f80fd5b8160208401602083015e5f91810160200191909152949350505050565b5f60208284031215610e8d575f80fd5b5051919050565b5f60208284031215610ea4575f80fd5b813567ffffffffffffffff811115610eba575f80fd5b82016101a08185031215610ecc575f80fd5b610ed4610968565b8135610edf816109c2565b8152610eee85602084016109ef565b6020820152610f008560c08401610a8e565b604082015261014082013567ffffffffffffffff811115610f1f575f80fd5b610f2b86828501610b25565b606083015250610f3e6101608301610b84565b6080820152610f506101808301610b84565b60a0820152949350505050565b610f678185610d29565b8251600290810b60a08301526020840151900b60c0820152604083015160e082015260608301516101008201526101406101208201525f610fac610140830184610ce2565b95945050505050565b5f8060408385031215610fc6575f80fd5b505080516020909101519092909150565b5f600160ff1b8201610ff757634e487b7160e01b5f52601160045260245ffd5b505f0390565b5f6020828403121561100d575f80fd5b8151610d2281610b7756fea264697066735822122007679229ebb43064394c7f4dfdf64e79415b4936f3246270d2c588584deb989064736f6c634300081a0033","linkReferences":{}},"methodIdentifiers":{"manager()":"481c6a75","modifyLiquidity((address,address,uint24,int24,address),(int24,int24,int256,bytes32),bytes)":"5a6bcfda","modifyLiquidity((address,address,uint24,int24,address),(int24,int24,int256,bytes32),bytes,bool,bool)":"0a5b11e4","unlockCallback(bytes)":"91dd7346"},"id":74}