{"abi":[{"type":"constructor","inputs":[{"name":"_poolManager","type":"address","internalType":"contract IPoolManager"}],"stateMutability":"nonpayable"},{"type":"function","name":"afterAddLiquidity","inputs":[{"name":"sender","type":"address","internalType":"address"},{"name":"key","type":"tuple","internalType":"struct PoolKey","components":[{"name":"currency0","type":"address","internalType":"Currency"},{"name":"currency1","type":"address","internalType":"Currency"},{"name":"fee","type":"uint24","internalType":"uint24"},{"name":"tickSpacing","type":"int24","internalType":"int24"},{"name":"hooks","type":"address","internalType":"contract IHooks"}]},{"name":"params","type":"tuple","internalType":"struct IPoolManager.ModifyLiquidityParams","components":[{"name":"tickLower","type":"int24","internalType":"int24"},{"name":"tickUpper","type":"int24","internalType":"int24"},{"name":"liquidityDelta","type":"int256","internalType":"int256"},{"name":"salt","type":"bytes32","internalType":"bytes32"}]},{"name":"delta","type":"int256","internalType":"BalanceDelta"},{"name":"feesAccrued","type":"int256","internalType":"BalanceDelta"},{"name":"hookData","type":"bytes","internalType":"bytes"}],"outputs":[{"name":"","type":"bytes4","internalType":"bytes4"},{"name":"","type":"int256","internalType":"BalanceDelta"}],"stateMutability":"nonpayable"},{"type":"function","name":"afterDonate","inputs":[{"name":"sender","type":"address","internalType":"address"},{"name":"key","type":"tuple","internalType":"struct PoolKey","components":[{"name":"currency0","type":"address","internalType":"Currency"},{"name":"currency1","type":"address","internalType":"Currency"},{"name":"fee","type":"uint24","internalType":"uint24"},{"name":"tickSpacing","type":"int24","internalType":"int24"},{"name":"hooks","type":"address","internalType":"contract IHooks"}]},{"name":"amount0","type":"uint256","internalType":"uint256"},{"name":"amount1","type":"uint256","internalType":"uint256"},{"name":"hookData","type":"bytes","internalType":"bytes"}],"outputs":[{"name":"","type":"bytes4","internalType":"bytes4"}],"stateMutability":"nonpayable"},{"type":"function","name":"afterInitialize","inputs":[{"name":"sender","type":"address","internalType":"address"},{"name":"key","type":"tuple","internalType":"struct PoolKey","components":[{"name":"currency0","type":"address","internalType":"Currency"},{"name":"currency1","type":"address","internalType":"Currency"},{"name":"fee","type":"uint24","internalType":"uint24"},{"name":"tickSpacing","type":"int24","internalType":"int24"},{"name":"hooks","type":"address","internalType":"contract IHooks"}]},{"name":"sqrtPriceX96","type":"uint160","internalType":"uint160"},{"name":"tick","type":"int24","internalType":"int24"}],"outputs":[{"name":"","type":"bytes4","internalType":"bytes4"}],"stateMutability":"nonpayable"},{"type":"function","name":"afterRemoveLiquidity","inputs":[{"name":"sender","type":"address","internalType":"address"},{"name":"key","type":"tuple","internalType":"struct PoolKey","components":[{"name":"currency0","type":"address","internalType":"Currency"},{"name":"currency1","type":"address","internalType":"Currency"},{"name":"fee","type":"uint24","internalType":"uint24"},{"name":"tickSpacing","type":"int24","internalType":"int24"},{"name":"hooks","type":"address","internalType":"contract IHooks"}]},{"name":"params","type":"tuple","internalType":"struct IPoolManager.ModifyLiquidityParams","components":[{"name":"tickLower","type":"int24","internalType":"int24"},{"name":"tickUpper","type":"int24","internalType":"int24"},{"name":"liquidityDelta","type":"int256","internalType":"int256"},{"name":"salt","type":"bytes32","internalType":"bytes32"}]},{"name":"delta","type":"int256","internalType":"BalanceDelta"},{"name":"feesAccrued","type":"int256","internalType":"BalanceDelta"},{"name":"hookData","type":"bytes","internalType":"bytes"}],"outputs":[{"name":"","type":"bytes4","internalType":"bytes4"},{"name":"","type":"int256","internalType":"BalanceDelta"}],"stateMutability":"nonpayable"},{"type":"function","name":"afterSwap","inputs":[{"name":"sender","type":"address","internalType":"address"},{"name":"key","type":"tuple","internalType":"struct PoolKey","components":[{"name":"currency0","type":"address","internalType":"Currency"},{"name":"currency1","type":"address","internalType":"Currency"},{"name":"fee","type":"uint24","internalType":"uint24"},{"name":"tickSpacing","type":"int24","internalType":"int24"},{"name":"hooks","type":"address","internalType":"contract IHooks"}]},{"name":"params","type":"tuple","internalType":"struct IPoolManager.SwapParams","components":[{"name":"zeroForOne","type":"bool","internalType":"bool"},{"name":"amountSpecified","type":"int256","internalType":"int256"},{"name":"sqrtPriceLimitX96","type":"uint160","internalType":"uint160"}]},{"name":"delta","type":"int256","internalType":"BalanceDelta"},{"name":"hookData","type":"bytes","internalType":"bytes"}],"outputs":[{"name":"","type":"bytes4","internalType":"bytes4"},{"name":"","type":"int128","internalType":"int128"}],"stateMutability":"nonpayable"},{"type":"function","name":"afterSwapCount","inputs":[{"name":"","type":"bytes32","internalType":"PoolId"}],"outputs":[{"name":"count","type":"uint256","internalType":"uint256"}],"stateMutability":"view"},{"type":"function","name":"beforeAddLiquidity","inputs":[{"name":"sender","type":"address","internalType":"address"},{"name":"key","type":"tuple","internalType":"struct PoolKey","components":[{"name":"currency0","type":"address","internalType":"Currency"},{"name":"currency1","type":"address","internalType":"Currency"},{"name":"fee","type":"uint24","internalType":"uint24"},{"name":"tickSpacing","type":"int24","internalType":"int24"},{"name":"hooks","type":"address","internalType":"contract IHooks"}]},{"name":"params","type":"tuple","internalType":"struct IPoolManager.ModifyLiquidityParams","components":[{"name":"tickLower","type":"int24","internalType":"int24"},{"name":"tickUpper","type":"int24","internalType":"int24"},{"name":"liquidityDelta","type":"int256","internalType":"int256"},{"name":"salt","type":"bytes32","internalType":"bytes32"}]},{"name":"hookData","type":"bytes","internalType":"bytes"}],"outputs":[{"name":"","type":"bytes4","internalType":"bytes4"}],"stateMutability":"nonpayable"},{"type":"function","name":"beforeAddLiquidityCount","inputs":[{"name":"","type":"bytes32","internalType":"PoolId"}],"outputs":[{"name":"count","type":"uint256","internalType":"uint256"}],"stateMutability":"view"},{"type":"function","name":"beforeDonate","inputs":[{"name":"sender","type":"address","internalType":"address"},{"name":"key","type":"tuple","internalType":"struct PoolKey","components":[{"name":"currency0","type":"address","internalType":"Currency"},{"name":"currency1","type":"address","internalType":"Currency"},{"name":"fee","type":"uint24","internalType":"uint24"},{"name":"tickSpacing","type":"int24","internalType":"int24"},{"name":"hooks","type":"address","internalType":"contract IHooks"}]},{"name":"amount0","type":"uint256","internalType":"uint256"},{"name":"amount1","type":"uint256","internalType":"uint256"},{"name":"hookData","type":"bytes","internalType":"bytes"}],"outputs":[{"name":"","type":"bytes4","internalType":"bytes4"}],"stateMutability":"nonpayable"},{"type":"function","name":"beforeInitialize","inputs":[{"name":"sender","type":"address","internalType":"address"},{"name":"key","type":"tuple","internalType":"struct PoolKey","components":[{"name":"currency0","type":"address","internalType":"Currency"},{"name":"currency1","type":"address","internalType":"Currency"},{"name":"fee","type":"uint24","internalType":"uint24"},{"name":"tickSpacing","type":"int24","internalType":"int24"},{"name":"hooks","type":"address","internalType":"contract IHooks"}]},{"name":"sqrtPriceX96","type":"uint160","internalType":"uint160"}],"outputs":[{"name":"","type":"bytes4","internalType":"bytes4"}],"stateMutability":"nonpayable"},{"type":"function","name":"beforeRemoveLiquidity","inputs":[{"name":"sender","type":"address","internalType":"address"},{"name":"key","type":"tuple","internalType":"struct PoolKey","components":[{"name":"currency0","type":"address","internalType":"Currency"},{"name":"currency1","type":"address","internalType":"Currency"},{"name":"fee","type":"uint24","internalType":"uint24"},{"name":"tickSpacing","type":"int24","internalType":"int24"},{"name":"hooks","type":"address","internalType":"contract IHooks"}]},{"name":"params","type":"tuple","internalType":"struct IPoolManager.ModifyLiquidityParams","components":[{"name":"tickLower","type":"int24","internalType":"int24"},{"name":"tickUpper","type":"int24","internalType":"int24"},{"name":"liquidityDelta","type":"int256","internalType":"int256"},{"name":"salt","type":"bytes32","internalType":"bytes32"}]},{"name":"hookData","type":"bytes","internalType":"bytes"}],"outputs":[{"name":"","type":"bytes4","internalType":"bytes4"}],"stateMutability":"nonpayable"},{"type":"function","name":"beforeRemoveLiquidityCount","inputs":[{"name":"","type":"bytes32","internalType":"PoolId"}],"outputs":[{"name":"count","type":"uint256","internalType":"uint256"}],"stateMutability":"view"},{"type":"function","name":"beforeSwap","inputs":[{"name":"sender","type":"address","internalType":"address"},{"name":"key","type":"tuple","internalType":"struct PoolKey","components":[{"name":"currency0","type":"address","internalType":"Currency"},{"name":"currency1","type":"address","internalType":"Currency"},{"name":"fee","type":"uint24","internalType":"uint24"},{"name":"tickSpacing","type":"int24","internalType":"int24"},{"name":"hooks","type":"address","internalType":"contract IHooks"}]},{"name":"params","type":"tuple","internalType":"struct IPoolManager.SwapParams","components":[{"name":"zeroForOne","type":"bool","internalType":"bool"},{"name":"amountSpecified","type":"int256","internalType":"int256"},{"name":"sqrtPriceLimitX96","type":"uint160","internalType":"uint160"}]},{"name":"hookData","type":"bytes","internalType":"bytes"}],"outputs":[{"name":"","type":"bytes4","internalType":"bytes4"},{"name":"","type":"int256","internalType":"BeforeSwapDelta"},{"name":"","type":"uint24","internalType":"uint24"}],"stateMutability":"nonpayable"},{"type":"function","name":"beforeSwapCount","inputs":[{"name":"","type":"bytes32","internalType":"PoolId"}],"outputs":[{"name":"count","type":"uint256","internalType":"uint256"}],"stateMutability":"view"},{"type":"function","name":"getHookPermissions","inputs":[],"outputs":[{"name":"","type":"tuple","internalType":"struct Hooks.Permissions","components":[{"name":"beforeInitialize","type":"bool","internalType":"bool"},{"name":"afterInitialize","type":"bool","internalType":"bool"},{"name":"beforeAddLiquidity","type":"bool","internalType":"bool"},{"name":"afterAddLiquidity","type":"bool","internalType":"bool"},{"name":"beforeRemoveLiquidity","type":"bool","internalType":"bool"},{"name":"afterRemoveLiquidity","type":"bool","internalType":"bool"},{"name":"beforeSwap","type":"bool","internalType":"bool"},{"name":"afterSwap","type":"bool","internalType":"bool"},{"name":"beforeDonate","type":"bool","internalType":"bool"},{"name":"afterDonate","type":"bool","internalType":"bool"},{"name":"beforeSwapReturnDelta","type":"bool","internalType":"bool"},{"name":"afterSwapReturnDelta","type":"bool","internalType":"bool"},{"name":"afterAddLiquidityReturnDelta","type":"bool","internalType":"bool"},{"name":"afterRemoveLiquidityReturnDelta","type":"bool","internalType":"bool"}]}],"stateMutability":"pure"},{"type":"function","name":"poolManager","inputs":[],"outputs":[{"name":"","type":"address","internalType":"contract IPoolManager"}],"stateMutability":"view"},{"type":"error","name":"HookNotImplemented","inputs":[]},{"type":"error","name":"NotPoolManager","inputs":[]}],"bytecode":{"object":"0x60a060405234801561000f575f80fd5b5060405161115038038061115083398101604081905261002e916102a7565b6001600160a01b038116608052806100453061004c565b50506102d4565b61013f8161013a604080516101c0810182525f80825260208201819052918101829052606081018290526080810182905260a0810182905260c0810182905260e08101829052610100810182905261012081018290526101408101829052610160810182905261018081018290526101a081019190915250604080516101c0810182525f808252602082018190526001928201839052606082018190526080820183905260a0820181905260c0820183905260e0820192909252610100810182905261012081018290526101408101829052610160810182905261018081018290526101a081019190915290565b610142565b50565b80511515612000831615151415806101665750602081015115156110008316151514155b8061017d5750604081015115156108008316151514155b806101945750606081015115156104008316151514155b806101ab5750608081015115156102008316151514155b806101c2575060a081015115156101008316151514155b806101d8575060c0810151151560808316151514155b806101ee575060e0810151151560408316151514155b806102055750610100810151151560208316151514155b8061021c5750610120810151151560108316151514155b806102335750610140810151151560088316151514155b8061024a5750610160810151151560048316151514155b806102615750610180810151151560028316151514155b8061027857506101a0810151151560018316151514155b1561028e5761028e630732d7b560e51b83610292565b5050565b815f526001600160a01b03811660045260245ffd5b5f602082840312156102b7575f80fd5b81516001600160a01b03811681146102cd575f80fd5b9392505050565b608051610e2c6103245f395f8181610396015281816103ef01528181610450015281816104a9015281816105120152818161057b015281816105db0152818161064201526106a50152610e2c5ff3fe608060405234801561000f575f80fd5b50600436106100fb575f3560e01c8063b6a8b0fa11610093578063db6a945111610063578063db6a945114610372578063dc4c90d314610391578063dc98354e146103d0578063e1b4af691461022a575f80fd5b8063b6a8b0fa1461022a578063c4e833ce1461023d578063c693995714610334578063dacdbe7714610353575f80fd5b80636c2bbe7e116100ce5780636c2bbe7e146101ae5780636fe7e6eb146101e15780639f063efc146101ae578063b47b2fb1146101f4575f80fd5b806321d0ee70146100ff578063259982e514610130578063575e24b4146101435780635c338d3214610181575b5f80fd5b61011261010d3660046108f8565b6103e3565b6040516001600160e01b031990911681526020015b60405180910390f35b61011261013e3660046108f8565b610444565b61015661015136600461097f565b61049b565b604080516001600160e01b03199094168452602084019290925262ffffff1690820152606001610127565b6101a061018f3660046109d9565b5f6020819052908152604090205481565b604051908152602001610127565b6101c16101bc3660046109f0565b610505565b604080516001600160e01b03199093168352602083019190915201610127565b6101126101ef366004610a8c565b61056f565b610207610202366004610ae3565b6105ce565b604080516001600160e01b03199093168352600f9190910b602083015201610127565b610112610238366004610b64565b610636565b610327604080516101c0810182525f80825260208201819052918101829052606081018290526080810182905260a0810182905260c0810182905260e08101829052610100810182905261012081018290526101408101829052610160810182905261018081018290526101a081019190915250604080516101c0810182525f808252602082018190526001928201839052606082018190526080820183905260a0820181905260c0820183905260e0820192909252610100810182905261012081018290526101408101829052610160810182905261018081018290526101a081019190915290565b6040516101279190610bbe565b6101a06103423660046109d9565b60026020525f908152604090205481565b6101a06103613660046109d9565b60016020525f908152604090205481565b6101a06103803660046109d9565b60036020525f908152604090205481565b6103b87f000000000000000000000000000000000000000000000000000000000000000081565b6040516001600160a01b039091168152602001610127565b6101126103de366004610cdf565b610699565b5f336001600160a01b037f0000000000000000000000000000000000000000000000000000000000000000161461042d5760405163570c108560e11b815260040160405180910390fd5b61043a86868686866106f6565b9695505050505050565b5f336001600160a01b037f0000000000000000000000000000000000000000000000000000000000000000161461048e5760405163570c108560e11b815260040160405180910390fd5b61043a8686868686610747565b5f8080336001600160a01b037f000000000000000000000000000000000000000000000000000000000000000016146104e75760405163570c108560e11b815260040160405180910390fd5b6104f48888888888610791565b925092509250955095509592505050565b5f80336001600160a01b037f000000000000000000000000000000000000000000000000000000000000000016146105505760405163570c108560e11b815260040160405180910390fd5b61055f898989898989896107e2565b9150915097509795505050505050565b5f336001600160a01b037f000000000000000000000000000000000000000000000000000000000000000016146105b95760405163570c108560e11b815260040160405180910390fd5b6105c5858585856107fd565b95945050505050565b5f80336001600160a01b037f000000000000000000000000000000000000000000000000000000000000000016146106195760405163570c108560e11b815260040160405180910390fd5b610627888888888888610817565b91509150965096945050505050565b5f336001600160a01b037f000000000000000000000000000000000000000000000000000000000000000016146106805760405163570c108560e11b815260040160405180910390fd5b61068e8787878787876107fd565b979650505050505050565b5f336001600160a01b037f000000000000000000000000000000000000000000000000000000000000000016146106e35760405163570c108560e11b815260040160405180910390fd5b6106ee8484846107fd565b949350505050565b5f60038161071361070c36899003890189610d38565b60a0902090565b81526020019081526020015f205f81548092919061073090610dd2565b9091555063021d0ee760e41b979650505050505050565b5f60028161075d61070c36899003890189610d38565b81526020019081526020015f205f81548092919061077a90610dd2565b9091555063259982e560e01b979650505050505050565b5f808080806107a861070c368b90038b018b610d38565b81526020019081526020015f205f8154809291906107c590610dd2565b909155506315d7892d60e21b995f99508998509650505050505050565b5f80604051630a85dc2960e01b815260040160405180910390fd5b5f604051630a85dc2960e01b815260040160405180910390fd5b5f8060018161082e61070c368b90038b018b610d38565b81526020019081526020015f205f81548092919061084b90610dd2565b9091555063b47b2fb160e01b995f9950975050505050505050565b6001600160a01b038116811461087a575f80fd5b50565b803561088881610866565b919050565b5f60a0828403121561089d575f80fd5b50919050565b5f6080828403121561089d575f80fd5b5f8083601f8401126108c3575f80fd5b50813567ffffffffffffffff8111156108da575f80fd5b6020830191508360208285010111156108f1575f80fd5b9250929050565b5f805f805f610160868803121561090d575f80fd5b853561091881610866565b9450610927876020880161088d565b93506109368760c088016108a3565b925061014086013567ffffffffffffffff811115610952575f80fd5b61095e888289016108b3565b969995985093965092949392505050565b5f6060828403121561089d575f80fd5b5f805f805f6101408688031215610994575f80fd5b853561099f81610866565b94506109ae876020880161088d565b93506109bd8760c0880161096f565b925061012086013567ffffffffffffffff811115610952575f80fd5b5f602082840312156109e9575f80fd5b5035919050565b5f805f805f805f6101a0888a031215610a07575f80fd5b8735610a1281610866565b9650610a218960208a0161088d565b9550610a308960c08a016108a3565b94506101408801359350610160880135925061018088013567ffffffffffffffff811115610a5c575f80fd5b610a688a828b016108b3565b989b979a50959850939692959293505050565b8035600281900b8114610888575f80fd5b5f805f806101008587031215610aa0575f80fd5b8435610aab81610866565b9350610aba866020870161088d565b925060c0850135610aca81610866565b9150610ad860e08601610a7b565b905092959194509250565b5f805f805f806101608789031215610af9575f80fd5b8635610b0481610866565b9550610b13886020890161088d565b9450610b228860c0890161096f565b9350610120870135925061014087013567ffffffffffffffff811115610b46575f80fd5b610b5289828a016108b3565b979a9699509497509295939492505050565b5f805f805f806101208789031215610b7a575f80fd5b8635610b8581610866565b9550610b94886020890161088d565b945060c0870135935060e0870135925061010087013567ffffffffffffffff811115610b46575f80fd5b8151151581526101c081016020830151610bdc602084018215159052565b506040830151610bf0604084018215159052565b506060830151610c04606084018215159052565b506080830151610c18608084018215159052565b5060a0830151610c2c60a084018215159052565b5060c0830151610c4060c084018215159052565b5060e0830151610c5460e084018215159052565b50610100830151610c6a61010084018215159052565b50610120830151610c8061012084018215159052565b50610140830151610c9661014084018215159052565b50610160830151610cac61016084018215159052565b50610180830151610cc261018084018215159052565b506101a0830151610cd86101a084018215159052565b5092915050565b5f805f60e08486031215610cf1575f80fd5b8335610cfc81610866565b9250610d0b856020860161088d565b915060c0840135610d1b81610866565b809150509250925092565b803562ffffff81168114610888575f80fd5b5f60a0828403128015610d49575f80fd5b5060405160a0810167ffffffffffffffff81118282101715610d7957634e487b7160e01b5f52604160045260245ffd5b604052610d858361087d565b8152610d936020840161087d565b6020820152610da460408401610d26565b6040820152610db560608401610a7b565b6060820152610dc66080840161087d565b60808201529392505050565b5f60018201610def57634e487b7160e01b5f52601160045260245ffd5b506001019056fea26469706673582212208d35784e01ad577195233b1047885fd0c41241b17b2f7fceb2b7b420ca271bbb64736f6c634300081a0033","linkReferences":{}},"methodIdentifiers":{"afterAddLiquidity(address,(address,address,uint24,int24,address),(int24,int24,int256,bytes32),int256,int256,bytes)":"9f063efc","afterDonate(address,(address,address,uint24,int24,address),uint256,uint256,bytes)":"e1b4af69","afterInitialize(address,(address,address,uint24,int24,address),uint160,int24)":"6fe7e6eb","afterRemoveLiquidity(address,(address,address,uint24,int24,address),(int24,int24,int256,bytes32),int256,int256,bytes)":"6c2bbe7e","afterSwap(address,(address,address,uint24,int24,address),(bool,int256,uint160),int256,bytes)":"b47b2fb1","afterSwapCount(bytes32)":"dacdbe77","beforeAddLiquidity(address,(address,address,uint24,int24,address),(int24,int24,int256,bytes32),bytes)":"259982e5","beforeAddLiquidityCount(bytes32)":"c6939957","beforeDonate(address,(address,address,uint24,int24,address),uint256,uint256,bytes)":"b6a8b0fa","beforeInitialize(address,(address,address,uint24,int24,address),uint160)":"dc98354e","beforeRemoveLiquidity(address,(address,address,uint24,int24,address),(int24,int24,int256,bytes32),bytes)":"21d0ee70","beforeRemoveLiquidityCount(bytes32)":"db6a9451","beforeSwap(address,(address,address,uint24,int24,address),(bool,int256,uint160),bytes)":"575e24b4","beforeSwapCount(bytes32)":"5c338d32","getHookPermissions()":"c4e833ce","poolManager()":"dc4c90d3"},"id":142}