{"abi":[{"type":"constructor","inputs":[{"name":"_poolManager","type":"address","internalType":"contract IPoolManager"},{"name":"_exchangeRouter","type":"address","internalType":"address"},{"name":"_reader","type":"address","internalType":"address"},{"name":"_dataStore","type":"address","internalType":"address"},{"name":"_marketAddress","type":"address","internalType":"address"},{"name":"_collateralToken","type":"address","internalType":"address"},{"name":"_priceFeed","type":"address","internalType":"address"},{"name":"_token0Address","type":"address","internalType":"address"},{"name":"_token0Decimals","type":"uint8","internalType":"uint8"},{"name":"_rebalanceThreshold","type":"uint256","internalType":"uint256"},{"name":"_executionFee","type":"uint256","internalType":"uint256"}],"stateMutability":"nonpayable"},{"type":"receive","stateMutability":"payable"},{"type":"function","name":"addCollateral","inputs":[{"name":"amount","type":"uint256","internalType":"uint256"}],"outputs":[],"stateMutability":"nonpayable"},{"type":"function","name":"afterAddLiquidity","inputs":[{"name":"sender","type":"address","internalType":"address"},{"name":"key","type":"tuple","internalType":"struct PoolKey","components":[{"name":"currency0","type":"address","internalType":"Currency"},{"name":"currency1","type":"address","internalType":"Currency"},{"name":"fee","type":"uint24","internalType":"uint24"},{"name":"tickSpacing","type":"int24","internalType":"int24"},{"name":"hooks","type":"address","internalType":"contract IHooks"}]},{"name":"params","type":"tuple","internalType":"struct IPoolManager.ModifyLiquidityParams","components":[{"name":"tickLower","type":"int24","internalType":"int24"},{"name":"tickUpper","type":"int24","internalType":"int24"},{"name":"liquidityDelta","type":"int256","internalType":"int256"},{"name":"salt","type":"bytes32","internalType":"bytes32"}]},{"name":"delta","type":"int256","internalType":"BalanceDelta"},{"name":"feesAccrued","type":"int256","internalType":"BalanceDelta"},{"name":"hookData","type":"bytes","internalType":"bytes"}],"outputs":[{"name":"","type":"bytes4","internalType":"bytes4"},{"name":"","type":"int256","internalType":"BalanceDelta"}],"stateMutability":"nonpayable"},{"type":"function","name":"afterDonate","inputs":[{"name":"sender","type":"address","internalType":"address"},{"name":"key","type":"tuple","internalType":"struct PoolKey","components":[{"name":"currency0","type":"address","internalType":"Currency"},{"name":"currency1","type":"address","internalType":"Currency"},{"name":"fee","type":"uint24","internalType":"uint24"},{"name":"tickSpacing","type":"int24","internalType":"int24"},{"name":"hooks","type":"address","internalType":"contract IHooks"}]},{"name":"amount0","type":"uint256","internalType":"uint256"},{"name":"amount1","type":"uint256","internalType":"uint256"},{"name":"hookData","type":"bytes","internalType":"bytes"}],"outputs":[{"name":"","type":"bytes4","internalType":"bytes4"}],"stateMutability":"nonpayable"},{"type":"function","name":"afterInitialize","inputs":[{"name":"sender","type":"address","internalType":"address"},{"name":"key","type":"tuple","internalType":"struct PoolKey","components":[{"name":"currency0","type":"address","internalType":"Currency"},{"name":"currency1","type":"address","internalType":"Currency"},{"name":"fee","type":"uint24","internalType":"uint24"},{"name":"tickSpacing","type":"int24","internalType":"int24"},{"name":"hooks","type":"address","internalType":"contract IHooks"}]},{"name":"sqrtPriceX96","type":"uint160","internalType":"uint160"},{"name":"tick","type":"int24","internalType":"int24"}],"outputs":[{"name":"","type":"bytes4","internalType":"bytes4"}],"stateMutability":"nonpayable"},{"type":"function","name":"afterRemoveLiquidity","inputs":[{"name":"sender","type":"address","internalType":"address"},{"name":"key","type":"tuple","internalType":"struct PoolKey","components":[{"name":"currency0","type":"address","internalType":"Currency"},{"name":"currency1","type":"address","internalType":"Currency"},{"name":"fee","type":"uint24","internalType":"uint24"},{"name":"tickSpacing","type":"int24","internalType":"int24"},{"name":"hooks","type":"address","internalType":"contract IHooks"}]},{"name":"params","type":"tuple","internalType":"struct IPoolManager.ModifyLiquidityParams","components":[{"name":"tickLower","type":"int24","internalType":"int24"},{"name":"tickUpper","type":"int24","internalType":"int24"},{"name":"liquidityDelta","type":"int256","internalType":"int256"},{"name":"salt","type":"bytes32","internalType":"bytes32"}]},{"name":"delta","type":"int256","internalType":"BalanceDelta"},{"name":"feesAccrued","type":"int256","internalType":"BalanceDelta"},{"name":"hookData","type":"bytes","internalType":"bytes"}],"outputs":[{"name":"","type":"bytes4","internalType":"bytes4"},{"name":"","type":"int256","internalType":"BalanceDelta"}],"stateMutability":"nonpayable"},{"type":"function","name":"afterSwap","inputs":[{"name":"sender","type":"address","internalType":"address"},{"name":"key","type":"tuple","internalType":"struct PoolKey","components":[{"name":"currency0","type":"address","internalType":"Currency"},{"name":"currency1","type":"address","internalType":"Currency"},{"name":"fee","type":"uint24","internalType":"uint24"},{"name":"tickSpacing","type":"int24","internalType":"int24"},{"name":"hooks","type":"address","internalType":"contract IHooks"}]},{"name":"params","type":"tuple","internalType":"struct IPoolManager.SwapParams","components":[{"name":"zeroForOne","type":"bool","internalType":"bool"},{"name":"amountSpecified","type":"int256","internalType":"int256"},{"name":"sqrtPriceLimitX96","type":"uint160","internalType":"uint160"}]},{"name":"delta","type":"int256","internalType":"BalanceDelta"},{"name":"hookData","type":"bytes","internalType":"bytes"}],"outputs":[{"name":"","type":"bytes4","internalType":"bytes4"},{"name":"","type":"int128","internalType":"int128"}],"stateMutability":"nonpayable"},{"type":"function","name":"beforeAddLiquidity","inputs":[{"name":"sender","type":"address","internalType":"address"},{"name":"key","type":"tuple","internalType":"struct PoolKey","components":[{"name":"currency0","type":"address","internalType":"Currency"},{"name":"currency1","type":"address","internalType":"Currency"},{"name":"fee","type":"uint24","internalType":"uint24"},{"name":"tickSpacing","type":"int24","internalType":"int24"},{"name":"hooks","type":"address","internalType":"contract IHooks"}]},{"name":"params","type":"tuple","internalType":"struct IPoolManager.ModifyLiquidityParams","components":[{"name":"tickLower","type":"int24","internalType":"int24"},{"name":"tickUpper","type":"int24","internalType":"int24"},{"name":"liquidityDelta","type":"int256","internalType":"int256"},{"name":"salt","type":"bytes32","internalType":"bytes32"}]},{"name":"hookData","type":"bytes","internalType":"bytes"}],"outputs":[{"name":"","type":"bytes4","internalType":"bytes4"}],"stateMutability":"nonpayable"},{"type":"function","name":"beforeDonate","inputs":[{"name":"sender","type":"address","internalType":"address"},{"name":"key","type":"tuple","internalType":"struct PoolKey","components":[{"name":"currency0","type":"address","internalType":"Currency"},{"name":"currency1","type":"address","internalType":"Currency"},{"name":"fee","type":"uint24","internalType":"uint24"},{"name":"tickSpacing","type":"int24","internalType":"int24"},{"name":"hooks","type":"address","internalType":"contract IHooks"}]},{"name":"amount0","type":"uint256","internalType":"uint256"},{"name":"amount1","type":"uint256","internalType":"uint256"},{"name":"hookData","type":"bytes","internalType":"bytes"}],"outputs":[{"name":"","type":"bytes4","internalType":"bytes4"}],"stateMutability":"nonpayable"},{"type":"function","name":"beforeInitialize","inputs":[{"name":"sender","type":"address","internalType":"address"},{"name":"key","type":"tuple","internalType":"struct PoolKey","components":[{"name":"currency0","type":"address","internalType":"Currency"},{"name":"currency1","type":"address","internalType":"Currency"},{"name":"fee","type":"uint24","internalType":"uint24"},{"name":"tickSpacing","type":"int24","internalType":"int24"},{"name":"hooks","type":"address","internalType":"contract IHooks"}]},{"name":"sqrtPriceX96","type":"uint160","internalType":"uint160"}],"outputs":[{"name":"","type":"bytes4","internalType":"bytes4"}],"stateMutability":"nonpayable"},{"type":"function","name":"beforeRemoveLiquidity","inputs":[{"name":"sender","type":"address","internalType":"address"},{"name":"key","type":"tuple","internalType":"struct PoolKey","components":[{"name":"currency0","type":"address","internalType":"Currency"},{"name":"currency1","type":"address","internalType":"Currency"},{"name":"fee","type":"uint24","internalType":"uint24"},{"name":"tickSpacing","type":"int24","internalType":"int24"},{"name":"hooks","type":"address","internalType":"contract IHooks"}]},{"name":"params","type":"tuple","internalType":"struct IPoolManager.ModifyLiquidityParams","components":[{"name":"tickLower","type":"int24","internalType":"int24"},{"name":"tickUpper","type":"int24","internalType":"int24"},{"name":"liquidityDelta","type":"int256","internalType":"int256"},{"name":"salt","type":"bytes32","internalType":"bytes32"}]},{"name":"hookData","type":"bytes","internalType":"bytes"}],"outputs":[{"name":"","type":"bytes4","internalType":"bytes4"}],"stateMutability":"nonpayable"},{"type":"function","name":"beforeSwap","inputs":[{"name":"sender","type":"address","internalType":"address"},{"name":"key","type":"tuple","internalType":"struct PoolKey","components":[{"name":"currency0","type":"address","internalType":"Currency"},{"name":"currency1","type":"address","internalType":"Currency"},{"name":"fee","type":"uint24","internalType":"uint24"},{"name":"tickSpacing","type":"int24","internalType":"int24"},{"name":"hooks","type":"address","internalType":"contract IHooks"}]},{"name":"params","type":"tuple","internalType":"struct IPoolManager.SwapParams","components":[{"name":"zeroForOne","type":"bool","internalType":"bool"},{"name":"amountSpecified","type":"int256","internalType":"int256"},{"name":"sqrtPriceLimitX96","type":"uint160","internalType":"uint160"}]},{"name":"hookData","type":"bytes","internalType":"bytes"}],"outputs":[{"name":"","type":"bytes4","internalType":"bytes4"},{"name":"","type":"int256","internalType":"BeforeSwapDelta"},{"name":"","type":"uint24","internalType":"uint24"}],"stateMutability":"nonpayable"},{"type":"function","name":"collateralToken","inputs":[],"outputs":[{"name":"","type":"address","internalType":"address"}],"stateMutability":"view"},{"type":"function","name":"dataStore","inputs":[],"outputs":[{"name":"","type":"address","internalType":"address"}],"stateMutability":"view"},{"type":"function","name":"exchangeRouter","inputs":[],"outputs":[{"name":"","type":"address","internalType":"address"}],"stateMutability":"view"},{"type":"function","name":"executionFee","inputs":[],"outputs":[{"name":"","type":"uint256","internalType":"uint256"}],"stateMutability":"view"},{"type":"function","name":"getHookPermissions","inputs":[],"outputs":[{"name":"","type":"tuple","internalType":"struct Hooks.Permissions","components":[{"name":"beforeInitialize","type":"bool","internalType":"bool"},{"name":"afterInitialize","type":"bool","internalType":"bool"},{"name":"beforeAddLiquidity","type":"bool","internalType":"bool"},{"name":"afterAddLiquidity","type":"bool","internalType":"bool"},{"name":"beforeRemoveLiquidity","type":"bool","internalType":"bool"},{"name":"afterRemoveLiquidity","type":"bool","internalType":"bool"},{"name":"beforeSwap","type":"bool","internalType":"bool"},{"name":"afterSwap","type":"bool","internalType":"bool"},{"name":"beforeDonate","type":"bool","internalType":"bool"},{"name":"afterDonate","type":"bool","internalType":"bool"},{"name":"beforeSwapReturnDelta","type":"bool","internalType":"bool"},{"name":"afterSwapReturnDelta","type":"bool","internalType":"bool"},{"name":"afterAddLiquidityReturnDelta","type":"bool","internalType":"bool"},{"name":"afterRemoveLiquidityReturnDelta","type":"bool","internalType":"bool"}]}],"stateMutability":"pure"},{"type":"function","name":"manualRebalance","inputs":[{"name":"poolId","type":"bytes32","internalType":"PoolId"}],"outputs":[],"stateMutability":"nonpayable"},{"type":"function","name":"marketAddress","inputs":[],"outputs":[{"name":"","type":"address","internalType":"address"}],"stateMutability":"view"},{"type":"function","name":"owner","inputs":[],"outputs":[{"name":"","type":"address","internalType":"address"}],"stateMutability":"view"},{"type":"function","name":"poolManager","inputs":[],"outputs":[{"name":"","type":"address","internalType":"contract IPoolManager"}],"stateMutability":"view"},{"type":"function","name":"priceFeed","inputs":[],"outputs":[{"name":"","type":"address","internalType":"address"}],"stateMutability":"view"},{"type":"function","name":"reader","inputs":[],"outputs":[{"name":"","type":"address","internalType":"address"}],"stateMutability":"view"},{"type":"function","name":"rebalanceThreshold","inputs":[],"outputs":[{"name":"","type":"uint256","internalType":"uint256"}],"stateMutability":"view"},{"type":"function","name":"renounceOwnership","inputs":[],"outputs":[],"stateMutability":"nonpayable"},{"type":"function","name":"setExecutionFee","inputs":[{"name":"newFee","type":"uint256","internalType":"uint256"}],"outputs":[],"stateMutability":"nonpayable"},{"type":"function","name":"setRebalanceThreshold","inputs":[{"name":"newThreshold","type":"uint256","internalType":"uint256"}],"outputs":[],"stateMutability":"nonpayable"},{"type":"function","name":"token0Address","inputs":[],"outputs":[{"name":"","type":"address","internalType":"address"}],"stateMutability":"view"},{"type":"function","name":"token0Decimals","inputs":[],"outputs":[{"name":"","type":"uint8","internalType":"uint8"}],"stateMutability":"view"},{"type":"function","name":"totalHedge","inputs":[{"name":"","type":"bytes32","internalType":"PoolId"}],"outputs":[{"name":"","type":"uint256","internalType":"uint256"}],"stateMutability":"view"},{"type":"function","name":"transferOwnership","inputs":[{"name":"newOwner","type":"address","internalType":"address"}],"outputs":[],"stateMutability":"nonpayable"},{"type":"function","name":"withdrawCollateral","inputs":[{"name":"amount","type":"uint256","internalType":"uint256"}],"outputs":[],"stateMutability":"nonpayable"},{"type":"event","name":"ExecutionFeeUpdated","inputs":[{"name":"newFee","type":"uint256","indexed":false,"internalType":"uint256"}],"anonymous":false},{"type":"event","name":"HedgeUpdated","inputs":[{"name":"poolId","type":"bytes32","indexed":true,"internalType":"PoolId"},{"name":"newHedgeAmount","type":"uint256","indexed":false,"internalType":"uint256"}],"anonymous":false},{"type":"event","name":"OwnershipTransferred","inputs":[{"name":"previousOwner","type":"address","indexed":true,"internalType":"address"},{"name":"newOwner","type":"address","indexed":true,"internalType":"address"}],"anonymous":false},{"type":"event","name":"PositionDecreased","inputs":[{"name":"sizeDelta","type":"uint256","indexed":false,"internalType":"uint256"}],"anonymous":false},{"type":"event","name":"PositionIncreased","inputs":[{"name":"sizeDelta","type":"uint256","indexed":false,"internalType":"uint256"},{"name":"collateralDelta","type":"uint256","indexed":false,"internalType":"uint256"}],"anonymous":false},{"type":"event","name":"RebalanceSkipped","inputs":[{"name":"poolId","type":"bytes32","indexed":true,"internalType":"PoolId"},{"name":"deltaSize","type":"int256","indexed":false,"internalType":"int256"}],"anonymous":false},{"type":"event","name":"RebalanceThresholdUpdated","inputs":[{"name":"newThreshold","type":"uint256","indexed":false,"internalType":"uint256"}],"anonymous":false},{"type":"error","name":"HookNotImplemented","inputs":[]},{"type":"error","name":"NotPoolManager","inputs":[]},{"type":"error","name":"OwnableInvalidOwner","inputs":[{"name":"owner","type":"address","internalType":"address"}]},{"type":"error","name":"OwnableUnauthorizedAccount","inputs":[{"name":"account","type":"address","internalType":"address"}]}],"bytecode":{"object":"0x6101a0604052348015610010575f80fd5b5060405161246d38038061246d83398101604081905261002f916103a7565b6001600160a01b038b16608052338b610047306100cc565b506001600160a01b03811661007557604051631e4fbdf760e01b81525f600482015260240160405180910390fd5b61007e816101bf565b506001600160a01b03998a1660a05297891660c05295881660e05293871661010052918616610120528516610140529093166101605260ff9092166101805260029190915560035550610479565b6101bc816101b7604080516101c0810182525f80825260208201819052918101829052606081018290526080810182905260a0810182905260c0810182905260e08101829052610100810182905261012081018290526101408101829052610160810182905261018081018290526101a081019190915250604080516101c0810182525f808252602082018190529181018290526001606082018190526080820183905260a082015260c0810182905260e08101829052610100810182905261012081018290526101408101829052610160810182905261018081018290526101a081019190915290565b61020e565b50565b5f80546001600160a01b038381166001600160a01b0319831681178455604051919092169283917f8be0079c531659141344cd1fd0a4f28419497f9722a3daafe3b4186f6b6457e09190a35050565b80511515612000831615151415806102325750602081015115156110008316151514155b806102495750604081015115156108008316151514155b806102605750606081015115156104008316151514155b806102775750608081015115156102008316151514155b8061028e575060a081015115156101008316151514155b806102a4575060c0810151151560808316151514155b806102ba575060e0810151151560408316151514155b806102d15750610100810151151560208316151514155b806102e85750610120810151151560108316151514155b806102ff5750610140810151151560088316151514155b806103165750610160810151151560048316151514155b8061032d5750610180810151151560028316151514155b8061034457506101a0810151151560018316151514155b1561035a5761035a630732d7b560e51b8361035e565b5050565b815f526001600160a01b03811660045260245ffd5b6001600160a01b03811681146101bc575f80fd5b805161039281610373565b919050565b805160ff81168114610392575f80fd5b5f805f805f805f805f805f6101608c8e0312156103c2575f80fd5b8b516103cd81610373565b60208d0151909b506103de81610373565b60408d0151909a506103ef81610373565b60608d015190995061040081610373565b60808d015190985061041181610373565b60a08d015190975061042281610373565b60c08d015190965061043381610373565b945061044160e08d01610387565b93506104506101008d01610397565b6101208d0151610140909d01519b9e9a9d50989b979a9699959894979396949593949392505050565b60805160a05160c05160e0516101005161012051610140516101605161018051611ef56105785f395f81816105040152610df201525f81816104110152610d0701525f81816103de0152610d3201525f81816104d1015281816108ba01528181610b430152818161107d015261119c01525f818161047f01528181610fe00152818161122001526113b001525f81816103390152610f0a01525f81816106c90152610f4901525f81816101ef0152818161116d015281816112bd015261144d01525f81816106fc015281816107930152818161083a0152818161093e015281816109a701528181610a6301528181610aca0152610b860152611ef55ff3fe6080604052600436106101d3575f3560e01c80638f8b6515116100fd578063bcc46e8311610092578063dc98354e11610062578063dc98354e1461071e578063e1b4af691461057a578063f2fde38b1461073d578063fc2bfe7f1461075c575f80fd5b8063bcc46e8314610599578063c4e833ce146105b8578063d4fc42c6146106b8578063dc4c90d3146106eb575f80fd5b8063b2016bd4116100cd578063b2016bd4146104c0578063b31ac6e2146104f3578063b47b2fb114610538578063b6a8b0fa1461057a575f80fd5b80638f8b65151461044f578063956236411461046e5780639f063efc1461035b578063abc6c53a146104a1575f80fd5b80636112fe2e11610173578063715018a611610143578063715018a6146103b9578063741bef1a146103cd5780637ff36fbe146104005780638da5cb5b14610433575f80fd5b80636112fe2e14610309578063660d0d67146103285780636c2bbe7e1461035b5780636fe7e6eb1461039a575f80fd5b806337a063d2116101ae57806337a063d2146102665780633dfe9f6a1461028757806340e9903b146102aa578063575e24b4146102bf575f80fd5b80631cb85818146101de57806321d0ee701461022e578063259982e51461022e575f80fd5b366101da57005b5f80fd5b3480156101e9575f80fd5b506102117f000000000000000000000000000000000000000000000000000000000000000081565b6040516001600160a01b0390911681526020015b60405180910390f35b348015610239575f80fd5b5061024d61024836600461157d565b610787565b6040516001600160e01b03199091168152602001610225565b348015610271575f80fd5b506102856102803660046115f4565b6107e8565b005b348015610292575f80fd5b5061029c60025481565b604051908152602001610225565b3480156102b5575f80fd5b5061029c60035481565b3480156102ca575f80fd5b506102de6102d936600461161b565b61082c565b604080516001600160e01b03199094168452602084019290925262ffffff1690820152606001610225565b348015610314575f80fd5b506102856103233660046115f4565b610896565b348015610333575f80fd5b506102117f000000000000000000000000000000000000000000000000000000000000000081565b348015610366575f80fd5b5061037a610375366004611675565b610931565b604080516001600160e01b03199093168352602083019190915201610225565b3480156103a5575f80fd5b5061024d6103b4366004611700565b61099b565b3480156103c4575f80fd5b506102856109fa565b3480156103d8575f80fd5b506102117f000000000000000000000000000000000000000000000000000000000000000081565b34801561040b575f80fd5b506102117f000000000000000000000000000000000000000000000000000000000000000081565b34801561043e575f80fd5b505f546001600160a01b0316610211565b34801561045a575f80fd5b506102856104693660046115f4565b610a0d565b348015610479575f80fd5b506102117f000000000000000000000000000000000000000000000000000000000000000081565b3480156104ac575f80fd5b506102856104bb3660046115f4565b610a4a565b3480156104cb575f80fd5b506102117f000000000000000000000000000000000000000000000000000000000000000081565b3480156104fe575f80fd5b506105267f000000000000000000000000000000000000000000000000000000000000000081565b60405160ff9091168152602001610225565b348015610543575f80fd5b5061055761055236600461175f565b610a56565b604080516001600160e01b03199093168352600f9190910b602083015201610225565b348015610585575f80fd5b5061024d6105943660046117e0565b610abe565b3480156105a4575f80fd5b506102856105b33660046115f4565b610b21565b3480156105c3575f80fd5b506106ab604080516101c0810182525f80825260208201819052918101829052606081018290526080810182905260a0810182905260c0810182905260e08101829052610100810182905261012081018290526101408101829052610160810182905261018081018290526101a081019190915250604080516101c0810182525f808252602082018190529181018290526001606082018190526080820183905260a082015260c0810182905260e08101829052610100810182905261012081018290526101408101829052610160810182905261018081018290526101a081019190915290565b604051610225919061183a565b3480156106c3575f80fd5b506102117f000000000000000000000000000000000000000000000000000000000000000081565b3480156106f6575f80fd5b506102117f000000000000000000000000000000000000000000000000000000000000000081565b348015610729575f80fd5b5061024d61073836600461195b565b610b7a565b348015610748575f80fd5b506102856107573660046119a2565b610bd7565b348015610767575f80fd5b5061029c6107763660046115f4565b60016020525f908152604090205481565b5f336001600160a01b037f000000000000000000000000000000000000000000000000000000000000000016146107d15760405163570c108560e11b815260040160405180910390fd5b6107de8686868686610c16565b9695505050505050565b6107f0610c30565b60038190556040518181527fa1f0fd58665de4378cd618b3902283e41a9cb5ad2f434c15e8ba2cf4ba0fe9f1906020015b60405180910390a150565b5f8080336001600160a01b037f000000000000000000000000000000000000000000000000000000000000000016146108785760405163570c108560e11b815260040160405180910390fd5b6108858888888888610c5c565b925092509250955095509592505050565b61089e610c30565b60405163a9059cbb60e01b8152336004820152602481018290527f00000000000000000000000000000000000000000000000000000000000000006001600160a01b03169063a9059cbb906044015b6020604051808303815f875af1158015610909573d5f803e3d5ffd5b505050506040513d601f19601f8201168201806040525081019061092d91906119d8565b5050565b5f80336001600160a01b037f0000000000000000000000000000000000000000000000000000000000000000161461097c5760405163570c108560e11b815260040160405180910390fd5b61098b89898989898989610c78565b9150915097509795505050505050565b5f336001600160a01b037f000000000000000000000000000000000000000000000000000000000000000016146109e55760405163570c108560e11b815260040160405180910390fd5b6109f185858585610c16565b95945050505050565b610a02610c30565b610a0b5f610c93565b565b610a15610c30565b60028190556040518181527f0e9e5d4aff63c3bc575ab4952b02480f0018c583c06bd88b60b58cf7c98e646890602001610821565b610a5381610ce2565b50565b5f80336001600160a01b037f00000000000000000000000000000000000000000000000000000000000000001614610aa15760405163570c108560e11b815260040160405180910390fd5b610aaf888888888888610c78565b91509150965096945050505050565b5f336001600160a01b037f00000000000000000000000000000000000000000000000000000000000000001614610b085760405163570c108560e11b815260040160405180910390fd5b610b16878787878787610c16565b979650505050505050565b6040516323b872dd60e01b8152336004820152306024820152604481018290527f00000000000000000000000000000000000000000000000000000000000000006001600160a01b0316906323b872dd906064016108ed565b5f336001600160a01b037f00000000000000000000000000000000000000000000000000000000000000001614610bc45760405163570c108560e11b815260040160405180910390fd5b610bcf848484610c16565b949350505050565b610bdf610c30565b6001600160a01b038116610c0d57604051631e4fbdf760e01b81525f60048201526024015b60405180910390fd5b610a5381610c93565b5f604051630a85dc2960e01b815260040160405180910390fd5b5f546001600160a01b03163314610a0b5760405163118cdaa760e01b8152336004820152602401610c04565b5f805f604051630a85dc2960e01b815260040160405180910390fd5b5f80604051630a85dc2960e01b815260040160405180910390fd5b5f80546001600160a01b038381166001600160a01b0319831681178455604051919092169283917f8be0079c531659141344cd1fd0a4f28419497f9722a3daafe3b4186f6b6457e09190a35050565b5f818152600160205260408082205490516341976e0960e01b81526001600160a01b037f0000000000000000000000000000000000000000000000000000000000000000811660048301529192917f000000000000000000000000000000000000000000000000000000000000000016906341976e0990602401602060405180830381865afa158015610d77573d5f803e3d5ffd5b505050506040513d601f19601f82011682018060405250810190610d9b91906119f1565b90505f8111610dec5760405162461bcd60e51b815260206004820152601960248201527f496e76616c69642070726963652066726f6d206f7261636c65000000000000006044820152606401610c04565b5f610e187f00000000000000000000000000000000000000000000000000000000000000006016611a1c565b610e2390600a611b1e565b610e2d8385611b2c565b610e379190611b2c565b90505f610e42610ef3565b90505f81831115610e5e57610e578284611b43565b9050610e74565b610e688383611b43565b610e7190611b56565b90505b600254811315610e8c57610e8781611046565b610eeb565b600254610e9890611b56565b811215610eb057610e87610eab82611b56565b611375565b857fd2189ad1fa8bb5520c6a6ec9c73aecbcc655b0c555ba390ff0ff9e75265ac62d82604051610ee291815260200190565b60405180910390a25b505050505050565b604051633be7d8b160e11b81526001600160a01b037f0000000000000000000000000000000000000000000000000000000000000000811660048301523060248301525f604483018190526064808401529182917f000000000000000000000000000000000000000000000000000000000000000016906377cfb162906084015f60405180830381865afa158015610f8d573d5f803e3d5ffd5b505050506040513d5f823e601f3d908101601f19168201604052610fb49190810190611bde565b90505f5b815181101561103e575f828281518110610fd457610fd4611cdc565b602002602001015190507f00000000000000000000000000000000000000000000000000000000000000006001600160a01b031681602001516001600160a01b031614801561102557508060400151155b1561103557606001519392505050565b50600101610fb8565b505f91505090565b5f61105b69d3c21bcecceda100000083611cf0565b6040516370a0823160e01b815230600482015290915081906001600160a01b037f000000000000000000000000000000000000000000000000000000000000000016906370a0823190602401602060405180830381865afa1580156110c2573d5f803e3d5ffd5b505050506040513d601f19601f820116820180604052508101906110e691906119f1565b10156111345760405162461bcd60e51b815260206004820152601760248201527f496e73756666696369656e7420636f6c6c61746572616c0000000000000000006044820152606401610c04565b6003544710156111565760405162461bcd60e51b8152600401610c0490611d0f565b60405163095ea7b360e01b81526001600160a01b037f000000000000000000000000000000000000000000000000000000000000000081166004830152602482018390527f0000000000000000000000000000000000000000000000000000000000000000169063095ea7b3906044016020604051808303815f875af11580156111e2573d5f803e3d5ffd5b505050506040513d601f19601f8201168201806040525081019061120691906119d8565b50604080515f8082526101c0820183526001600160a01b037f0000000000000000000000000000000000000000000000000000000000000000811660208085019182528486018490526060850184905230608086015260a0850188905260c0850187905260035460e0860181905261010086018590526101208601859052610140860185905261016086018690526101808601869052865191820187529381526101a08501529351632736fa2960e01b81529293927f000000000000000000000000000000000000000000000000000000000000000090911691632736fa29916112f4908590600401611dc2565b60206040518083038185885af1158015611310573d5f803e3d5ffd5b50505050506040513d601f19601f8201168201806040525081019061133591906119f1565b5060408051858152602081018590527f3b1f2f3ca0c73d20356c3574f88fe4d4aae2bc312ffcb4823dbd36e6e7550d35910160405180910390a150505050565b6003544710156113975760405162461bcd60e51b8152600401610c0490611d0f565b604080515f8082526101c0820183526001600160a01b037f0000000000000000000000000000000000000000000000000000000000000000811660208085019182528486018490526060850184905230608086015260a0850187905260c0850184905260035460e0860181905261010086018590526001610120870152610140860185905261016086018690526101808601869052865191820187529381526101a08501529351632736fa2960e01b81529293927f000000000000000000000000000000000000000000000000000000000000000090911691632736fa2991611484908590600401611dc2565b60206040518083038185885af11580156114a0573d5f803e3d5ffd5b50505050506040513d601f19601f820116820180604052508101906114c591906119f1565b506040518381527f478d4db4816a91c6778de424542e04dfad66b610c67301a7c280b1b7e86ab8499060200160405180910390a1505050565b6001600160a01b0381168114610a53575f80fd5b5f60a08284031215611522575f80fd5b50919050565b5f60808284031215611522575f80fd5b5f8083601f840112611548575f80fd5b50813567ffffffffffffffff81111561155f575f80fd5b602083019150836020828501011115611576575f80fd5b9250929050565b5f805f805f6101608688031215611592575f80fd5b853561159d816114fe565b94506115ac8760208801611512565b93506115bb8760c08801611528565b925061014086013567ffffffffffffffff8111156115d7575f80fd5b6115e388828901611538565b969995985093965092949392505050565b5f60208284031215611604575f80fd5b5035919050565b5f60608284031215611522575f80fd5b5f805f805f6101408688031215611630575f80fd5b853561163b816114fe565b945061164a8760208801611512565b93506116598760c0880161160b565b925061012086013567ffffffffffffffff8111156115d7575f80fd5b5f805f805f805f6101a0888a03121561168c575f80fd5b8735611697816114fe565b96506116a68960208a01611512565b95506116b58960c08a01611528565b94506101408801359350610160880135925061018088013567ffffffffffffffff8111156116e1575f80fd5b6116ed8a828b01611538565b989b979a50959850939692959293505050565b5f805f806101008587031215611714575f80fd5b843561171f816114fe565b935061172e8660208701611512565b925060c085013561173e816114fe565b915060e0850135600281900b8114611754575f80fd5b939692955090935050565b5f805f805f806101608789031215611775575f80fd5b8635611780816114fe565b955061178f8860208901611512565b945061179e8860c0890161160b565b9350610120870135925061014087013567ffffffffffffffff8111156117c2575f80fd5b6117ce89828a01611538565b979a9699509497509295939492505050565b5f805f805f8061012087890312156117f6575f80fd5b8635611801816114fe565b95506118108860208901611512565b945060c0870135935060e0870135925061010087013567ffffffffffffffff8111156117c2575f80fd5b8151151581526101c081016020830151611858602084018215159052565b50604083015161186c604084018215159052565b506060830151611880606084018215159052565b506080830151611894608084018215159052565b5060a08301516118a860a084018215159052565b5060c08301516118bc60c084018215159052565b5060e08301516118d060e084018215159052565b506101008301516118e661010084018215159052565b506101208301516118fc61012084018215159052565b5061014083015161191261014084018215159052565b5061016083015161192861016084018215159052565b5061018083015161193e61018084018215159052565b506101a08301516119546101a084018215159052565b5092915050565b5f805f60e0848603121561196d575f80fd5b8335611978816114fe565b92506119878560208601611512565b915060c0840135611997816114fe565b809150509250925092565b5f602082840312156119b2575f80fd5b81356119bd816114fe565b9392505050565b805180151581146119d3575f80fd5b919050565b5f602082840312156119e8575f80fd5b6119bd826119c4565b5f60208284031215611a01575f80fd5b5051919050565b634e487b7160e01b5f52601160045260245ffd5b60ff8281168282160390811115611a3557611a35611a08565b92915050565b6001815b6001841115611a7657808504811115611a5a57611a5a611a08565b6001841615611a6857908102905b60019390931c928002611a3f565b935093915050565b5f82611a8c57506001611a35565b81611a9857505f611a35565b8160018114611aae5760028114611ab857611ad4565b6001915050611a35565b60ff841115611ac957611ac9611a08565b50506001821b611a35565b5060208310610133831016604e8410600b8410161715611af7575081810a611a35565b611b035f198484611a3b565b805f1904821115611b1657611b16611a08565b029392505050565b5f6119bd60ff841683611a7e565b8082028115828204841417611a3557611a35611a08565b81810381811115611a3557611a35611a08565b5f600160ff1b8201611b6a57611b6a611a08565b505f0390565b634e487b7160e01b5f52604160045260245ffd5b60405160a0810167ffffffffffffffff81118282101715611ba757611ba7611b70565b60405290565b604051601f8201601f1916810167ffffffffffffffff81118282101715611bd657611bd6611b70565b604052919050565b5f60208284031215611bee575f80fd5b815167ffffffffffffffff811115611c04575f80fd5b8201601f81018413611c14575f80fd5b805167ffffffffffffffff811115611c2e57611c2e611b70565b611c3d60208260051b01611bad565b80828252602082019150602060a08402850101925086831115611c5e575f80fd5b6020840193505b828410156107de5760a08488031215611c7c575f80fd5b611c84611b84565b8451611c8f816114fe565b81526020850151611c9f816114fe565b6020820152611cb0604086016119c4565b60408201526060858101519082015260808086015190820152825260a090930192602090910190611c65565b634e487b7160e01b5f52603260045260245ffd5b5f82611d0a57634e487b7160e01b5f52601260045260245ffd5b500490565b60208082526022908201527f496e73756666696369656e742045544820666f7220657865637574696f6e2066604082015261656560f01b606082015260800190565b5f8151808452602084019350602083015f5b82811015611d8a5781516001600160a01b0316865260209586019590910190600101611d63565b5093949350505050565b5f81518084528060208401602086015e5f602082860101526020601f19601f83011685010191505092915050565b60208152611ddc6020820183516001600160a01b03169052565b5f6020830151611df760408401826001600160a01b03169052565b5060408301516001600160a01b03811660608401525060608301516001600160a01b038116608084015250608083015160a083015260a083015160c083015260c083015160e083015260e08301516101008301526101008301516101208301526101208301516101408301526101408301516101a0610160840152611e806101c0840182611d51565b9050610160840151601f1984830301610180850152611e9f8282611d51565b915050610180840151601f19848303016101a08501526109f18282611d9456fea264697066735822122049c0c62e7e8505b3705218f33f8f484f1214f4547c12d48f889c7c5609d6b16464736f6c634300081a0033","linkReferences":{}},"methodIdentifiers":{"addCollateral(uint256)":"bcc46e83","afterAddLiquidity(address,(address,address,uint24,int24,address),(int24,int24,int256,bytes32),int256,int256,bytes)":"9f063efc","afterDonate(address,(address,address,uint24,int24,address),uint256,uint256,bytes)":"e1b4af69","afterInitialize(address,(address,address,uint24,int24,address),uint160,int24)":"6fe7e6eb","afterRemoveLiquidity(address,(address,address,uint24,int24,address),(int24,int24,int256,bytes32),int256,int256,bytes)":"6c2bbe7e","afterSwap(address,(address,address,uint24,int24,address),(bool,int256,uint160),int256,bytes)":"b47b2fb1","beforeAddLiquidity(address,(address,address,uint24,int24,address),(int24,int24,int256,bytes32),bytes)":"259982e5","beforeDonate(address,(address,address,uint24,int24,address),uint256,uint256,bytes)":"b6a8b0fa","beforeInitialize(address,(address,address,uint24,int24,address),uint160)":"dc98354e","beforeRemoveLiquidity(address,(address,address,uint24,int24,address),(int24,int24,int256,bytes32),bytes)":"21d0ee70","beforeSwap(address,(address,address,uint24,int24,address),(bool,int256,uint160),bytes)":"575e24b4","collateralToken()":"b2016bd4","dataStore()":"660d0d67","exchangeRouter()":"1cb85818","executionFee()":"40e9903b","getHookPermissions()":"c4e833ce","manualRebalance(bytes32)":"abc6c53a","marketAddress()":"95623641","owner()":"8da5cb5b","poolManager()":"dc4c90d3","priceFeed()":"741bef1a","reader()":"d4fc42c6","rebalanceThreshold()":"3dfe9f6a","renounceOwnership()":"715018a6","setExecutionFee(uint256)":"37a063d2","setRebalanceThreshold(uint256)":"8f8b6515","token0Address()":"7ff36fbe","token0Decimals()":"b31ac6e2","totalHedge(bytes32)":"fc2bfe7f","transferOwnership(address)":"f2fde38b","withdrawCollateral(uint256)":"6112fe2e"},"id":25}