{"abi":[{"type":"function","name":"getPrice","inputs":[{"name":"token","type":"address","internalType":"address"}],"outputs":[{"name":"","type":"uint256","internalType":"uint256"}],"stateMutability":"view"},{"type":"function","name":"setPrice","inputs":[{"name":"token","type":"address","internalType":"address"},{"name":"price","type":"uint256","internalType":"uint256"}],"outputs":[],"stateMutability":"nonpayable"}],"bytecode":{"object":"0x6080604052348015600e575f80fd5b506101248061001c5f395ff3fe6080604052348015600e575f80fd5b5060043610602f575f3560e01c8062e4768b14603357806341976e0914605b575b5f80fd5b6059603e36600460ac565b6001600160a01b039091165f90815260208190526040902055565b005b6080606636600460d1565b6001600160a01b03165f9081526020819052604090205490565b60405190815260200160405180910390f35b80356001600160a01b038116811460a7575f80fd5b919050565b5f806040838503121560bc575f80fd5b60c3836092565b946020939093013593505050565b5f6020828403121560e0575f80fd5b60e7826092565b939250505056fea26469706673582212208af107564f966f8187f7ba0be459a04b278c05ba7d76ed245b53dcea9e8b8e0264736f6c634300081a0033","linkReferences":{}},"methodIdentifiers":{"getPrice(address)":"41976e09","setPrice(address,uint256)":"00e4768b"},"id":54}