{"abi":[{"type":"constructor","inputs":[{"name":"_poolManager","type":"address","internalType":"contract IPoolManager"},{"name":"_permit2","type":"address","internalType":"contract IAllowanceTransfer"},{"name":"_unsubscribeGasLimit","type":"uint256","internalType":"uint256"},{"name":"_tokenDescriptor","type":"address","internalType":"contract IPositionDescriptor"},{"name":"_weth9","type":"address","internalType":"contract IWETH9"}],"stateMutability":"nonpayable"},{"type":"receive","stateMutability":"payable"},{"type":"function","name":"DOMAIN_SEPARATOR","inputs":[],"outputs":[{"name":"","type":"bytes32","internalType":"bytes32"}],"stateMutability":"view"},{"type":"function","name":"WETH9","inputs":[],"outputs":[{"name":"","type":"address","internalType":"contract IWETH9"}],"stateMutability":"view"},{"type":"function","name":"approve","inputs":[{"name":"spender","type":"address","internalType":"address"},{"name":"id","type":"uint256","internalType":"uint256"}],"outputs":[],"stateMutability":"nonpayable"},{"type":"function","name":"balanceOf","inputs":[{"name":"owner","type":"address","internalType":"address"}],"outputs":[{"name":"","type":"uint256","internalType":"uint256"}],"stateMutability":"view"},{"type":"function","name":"getApproved","inputs":[{"name":"","type":"uint256","internalType":"uint256"}],"outputs":[{"name":"","type":"address","internalType":"address"}],"stateMutability":"view"},{"type":"function","name":"getPoolAndPositionInfo","inputs":[{"name":"tokenId","type":"uint256","internalType":"uint256"}],"outputs":[{"name":"poolKey","type":"tuple","internalType":"struct PoolKey","components":[{"name":"currency0","type":"address","internalType":"Currency"},{"name":"currency1","type":"address","internalType":"Currency"},{"name":"fee","type":"uint24","internalType":"uint24"},{"name":"tickSpacing","type":"int24","internalType":"int24"},{"name":"hooks","type":"address","internalType":"contract IHooks"}]},{"name":"info","type":"uint256","internalType":"PositionInfo"}],"stateMutability":"view"},{"type":"function","name":"getPositionLiquidity","inputs":[{"name":"tokenId","type":"uint256","internalType":"uint256"}],"outputs":[{"name":"liquidity","type":"uint128","internalType":"uint128"}],"stateMutability":"view"},{"type":"function","name":"initializePool","inputs":[{"name":"key","type":"tuple","internalType":"struct PoolKey","components":[{"name":"currency0","type":"address","internalType":"Currency"},{"name":"currency1","type":"address","internalType":"Currency"},{"name":"fee","type":"uint24","internalType":"uint24"},{"name":"tickSpacing","type":"int24","internalType":"int24"},{"name":"hooks","type":"address","internalType":"contract IHooks"}]},{"name":"sqrtPriceX96","type":"uint160","internalType":"uint160"}],"outputs":[{"name":"","type":"int24","internalType":"int24"}],"stateMutability":"payable"},{"type":"function","name":"isApprovedForAll","inputs":[{"name":"","type":"address","internalType":"address"},{"name":"","type":"address","internalType":"address"}],"outputs":[{"name":"","type":"bool","internalType":"bool"}],"stateMutability":"view"},{"type":"function","name":"modifyLiquidities","inputs":[{"name":"unlockData","type":"bytes","internalType":"bytes"},{"name":"deadline","type":"uint256","internalType":"uint256"}],"outputs":[],"stateMutability":"payable"},{"type":"function","name":"modifyLiquiditiesWithoutUnlock","inputs":[{"name":"actions","type":"bytes","internalType":"bytes"},{"name":"params","type":"bytes[]","internalType":"bytes[]"}],"outputs":[],"stateMutability":"payable"},{"type":"function","name":"msgSender","inputs":[],"outputs":[{"name":"","type":"address","internalType":"address"}],"stateMutability":"view"},{"type":"function","name":"multicall","inputs":[{"name":"data","type":"bytes[]","internalType":"bytes[]"}],"outputs":[{"name":"results","type":"bytes[]","internalType":"bytes[]"}],"stateMutability":"payable"},{"type":"function","name":"name","inputs":[],"outputs":[{"name":"","type":"string","internalType":"string"}],"stateMutability":"view"},{"type":"function","name":"nextTokenId","inputs":[],"outputs":[{"name":"","type":"uint256","internalType":"uint256"}],"stateMutability":"view"},{"type":"function","name":"nonces","inputs":[{"name":"owner","type":"address","internalType":"address"},{"name":"word","type":"uint256","internalType":"uint256"}],"outputs":[{"name":"bitmap","type":"uint256","internalType":"uint256"}],"stateMutability":"view"},{"type":"function","name":"ownerOf","inputs":[{"name":"id","type":"uint256","internalType":"uint256"}],"outputs":[{"name":"owner","type":"address","internalType":"address"}],"stateMutability":"view"},{"type":"function","name":"permit","inputs":[{"name":"spender","type":"address","internalType":"address"},{"name":"tokenId","type":"uint256","internalType":"uint256"},{"name":"deadline","type":"uint256","internalType":"uint256"},{"name":"nonce","type":"uint256","internalType":"uint256"},{"name":"signature","type":"bytes","internalType":"bytes"}],"outputs":[],"stateMutability":"payable"},{"type":"function","name":"permit","inputs":[{"name":"owner","type":"address","internalType":"address"},{"name":"permitSingle","type":"tuple","internalType":"struct IAllowanceTransfer.PermitSingle","components":[{"name":"details","type":"tuple","internalType":"struct IAllowanceTransfer.PermitDetails","components":[{"name":"token","type":"address","internalType":"address"},{"name":"amount","type":"uint160","internalType":"uint160"},{"name":"expiration","type":"uint48","internalType":"uint48"},{"name":"nonce","type":"uint48","internalType":"uint48"}]},{"name":"spender","type":"address","internalType":"address"},{"name":"sigDeadline","type":"uint256","internalType":"uint256"}]},{"name":"signature","type":"bytes","internalType":"bytes"}],"outputs":[{"name":"err","type":"bytes","internalType":"bytes"}],"stateMutability":"payable"},{"type":"function","name":"permit2","inputs":[],"outputs":[{"name":"","type":"address","internalType":"contract IAllowanceTransfer"}],"stateMutability":"view"},{"type":"function","name":"permitBatch","inputs":[{"name":"owner","type":"address","internalType":"address"},{"name":"_permitBatch","type":"tuple","internalType":"struct IAllowanceTransfer.PermitBatch","components":[{"name":"details","type":"tuple[]","internalType":"struct IAllowanceTransfer.PermitDetails[]","components":[{"name":"token","type":"address","internalType":"address"},{"name":"amount","type":"uint160","internalType":"uint160"},{"name":"expiration","type":"uint48","internalType":"uint48"},{"name":"nonce","type":"uint48","internalType":"uint48"}]},{"name":"spender","type":"address","internalType":"address"},{"name":"sigDeadline","type":"uint256","internalType":"uint256"}]},{"name":"signature","type":"bytes","internalType":"bytes"}],"outputs":[{"name":"err","type":"bytes","internalType":"bytes"}],"stateMutability":"payable"},{"type":"function","name":"permitForAll","inputs":[{"name":"owner","type":"address","internalType":"address"},{"name":"operator","type":"address","internalType":"address"},{"name":"approved","type":"bool","internalType":"bool"},{"name":"deadline","type":"uint256","internalType":"uint256"},{"name":"nonce","type":"uint256","internalType":"uint256"},{"name":"signature","type":"bytes","internalType":"bytes"}],"outputs":[],"stateMutability":"payable"},{"type":"function","name":"poolKeys","inputs":[{"name":"poolId","type":"bytes25","internalType":"bytes25"}],"outputs":[{"name":"currency0","type":"address","internalType":"Currency"},{"name":"currency1","type":"address","internalType":"Currency"},{"name":"fee","type":"uint24","internalType":"uint24"},{"name":"tickSpacing","type":"int24","internalType":"int24"},{"name":"hooks","type":"address","internalType":"contract IHooks"}],"stateMutability":"view"},{"type":"function","name":"poolManager","inputs":[],"outputs":[{"name":"","type":"address","internalType":"contract IPoolManager"}],"stateMutability":"view"},{"type":"function","name":"positionInfo","inputs":[{"name":"tokenId","type":"uint256","internalType":"uint256"}],"outputs":[{"name":"info","type":"uint256","internalType":"PositionInfo"}],"stateMutability":"view"},{"type":"function","name":"revokeNonce","inputs":[{"name":"nonce","type":"uint256","internalType":"uint256"}],"outputs":[],"stateMutability":"payable"},{"type":"function","name":"safeTransferFrom","inputs":[{"name":"from","type":"address","internalType":"address"},{"name":"to","type":"address","internalType":"address"},{"name":"id","type":"uint256","internalType":"uint256"}],"outputs":[],"stateMutability":"nonpayable"},{"type":"function","name":"safeTransferFrom","inputs":[{"name":"from","type":"address","internalType":"address"},{"name":"to","type":"address","internalType":"address"},{"name":"id","type":"uint256","internalType":"uint256"},{"name":"data","type":"bytes","internalType":"bytes"}],"outputs":[],"stateMutability":"nonpayable"},{"type":"function","name":"setApprovalForAll","inputs":[{"name":"operator","type":"address","internalType":"address"},{"name":"approved","type":"bool","internalType":"bool"}],"outputs":[],"stateMutability":"nonpayable"},{"type":"function","name":"subscribe","inputs":[{"name":"tokenId","type":"uint256","internalType":"uint256"},{"name":"newSubscriber","type":"address","internalType":"address"},{"name":"data","type":"bytes","internalType":"bytes"}],"outputs":[],"stateMutability":"payable"},{"type":"function","name":"subscriber","inputs":[{"name":"tokenId","type":"uint256","internalType":"uint256"}],"outputs":[{"name":"subscriber","type":"address","internalType":"contract ISubscriber"}],"stateMutability":"view"},{"type":"function","name":"supportsInterface","inputs":[{"name":"interfaceId","type":"bytes4","internalType":"bytes4"}],"outputs":[{"name":"","type":"bool","internalType":"bool"}],"stateMutability":"view"},{"type":"function","name":"symbol","inputs":[],"outputs":[{"name":"","type":"string","internalType":"string"}],"stateMutability":"view"},{"type":"function","name":"tokenDescriptor","inputs":[],"outputs":[{"name":"","type":"address","internalType":"contract IPositionDescriptor"}],"stateMutability":"view"},{"type":"function","name":"tokenURI","inputs":[{"name":"tokenId","type":"uint256","internalType":"uint256"}],"outputs":[{"name":"","type":"string","internalType":"string"}],"stateMutability":"view"},{"type":"function","name":"transferFrom","inputs":[{"name":"from","type":"address","internalType":"address"},{"name":"to","type":"address","internalType":"address"},{"name":"id","type":"uint256","internalType":"uint256"}],"outputs":[],"stateMutability":"nonpayable"},{"type":"function","name":"unlockCallback","inputs":[{"name":"data","type":"bytes","internalType":"bytes"}],"outputs":[{"name":"","type":"bytes","internalType":"bytes"}],"stateMutability":"nonpayable"},{"type":"function","name":"unsubscribe","inputs":[{"name":"tokenId","type":"uint256","internalType":"uint256"}],"outputs":[],"stateMutability":"payable"},{"type":"function","name":"unsubscribeGasLimit","inputs":[],"outputs":[{"name":"","type":"uint256","internalType":"uint256"}],"stateMutability":"view"},{"type":"event","name":"Approval","inputs":[{"name":"owner","type":"address","indexed":true,"internalType":"address"},{"name":"spender","type":"address","indexed":true,"internalType":"address"},{"name":"id","type":"uint256","indexed":true,"internalType":"uint256"}],"anonymous":false},{"type":"event","name":"ApprovalForAll","inputs":[{"name":"owner","type":"address","indexed":true,"internalType":"address"},{"name":"operator","type":"address","indexed":true,"internalType":"address"},{"name":"approved","type":"bool","indexed":false,"internalType":"bool"}],"anonymous":false},{"type":"event","name":"Subscription","inputs":[{"name":"tokenId","type":"uint256","indexed":true,"internalType":"uint256"},{"name":"subscriber","type":"address","indexed":true,"internalType":"address"}],"anonymous":false},{"type":"event","name":"Transfer","inputs":[{"name":"from","type":"address","indexed":true,"internalType":"address"},{"name":"to","type":"address","indexed":true,"internalType":"address"},{"name":"id","type":"uint256","indexed":true,"internalType":"uint256"}],"anonymous":false},{"type":"event","name":"Unsubscription","inputs":[{"name":"tokenId","type":"uint256","indexed":true,"internalType":"uint256"},{"name":"subscriber","type":"address","indexed":true,"internalType":"address"}],"anonymous":false},{"type":"error","name":"AlreadySubscribed","inputs":[{"name":"tokenId","type":"uint256","internalType":"uint256"},{"name":"subscriber","type":"address","internalType":"address"}]},{"type":"error","name":"BurnNotificationReverted","inputs":[{"name":"subscriber","type":"address","internalType":"address"},{"name":"reason","type":"bytes","internalType":"bytes"}]},{"type":"error","name":"ContractLocked","inputs":[]},{"type":"error","name":"DeadlinePassed","inputs":[{"name":"deadline","type":"uint256","internalType":"uint256"}]},{"type":"error","name":"DeltaNotNegative","inputs":[{"name":"currency","type":"address","internalType":"Currency"}]},{"type":"error","name":"DeltaNotPositive","inputs":[{"name":"currency","type":"address","internalType":"Currency"}]},{"type":"error","name":"GasLimitTooLow","inputs":[]},{"type":"error","name":"InputLengthMismatch","inputs":[]},{"type":"error","name":"InsufficientBalance","inputs":[]},{"type":"error","name":"InvalidContractSignature","inputs":[]},{"type":"error","name":"InvalidEthSender","inputs":[]},{"type":"error","name":"InvalidSignature","inputs":[]},{"type":"error","name":"InvalidSignatureLength","inputs":[]},{"type":"error","name":"InvalidSigner","inputs":[]},{"type":"error","name":"MaximumAmountExceeded","inputs":[{"name":"maximumAmount","type":"uint128","internalType":"uint128"},{"name":"amountRequested","type":"uint128","internalType":"uint128"}]},{"type":"error","name":"MinimumAmountInsufficient","inputs":[{"name":"minimumAmount","type":"uint128","internalType":"uint128"},{"name":"amountReceived","type":"uint128","internalType":"uint128"}]},{"type":"error","name":"ModifyLiquidityNotificationReverted","inputs":[{"name":"subscriber","type":"address","internalType":"address"},{"name":"reason","type":"bytes","internalType":"bytes"}]},{"type":"error","name":"NoCodeSubscriber","inputs":[]},{"type":"error","name":"NoSelfPermit","inputs":[]},{"type":"error","name":"NonceAlreadyUsed","inputs":[]},{"type":"error","name":"NotApproved","inputs":[{"name":"caller","type":"address","internalType":"address"}]},{"type":"error","name":"NotPoolManager","inputs":[]},{"type":"error","name":"NotSubscribed","inputs":[]},{"type":"error","name":"PoolManagerMustBeLocked","inputs":[]},{"type":"error","name":"SignatureDeadlineExpired","inputs":[]},{"type":"error","name":"SubscriptionReverted","inputs":[{"name":"subscriber","type":"address","internalType":"address"},{"name":"reason","type":"bytes","internalType":"bytes"}]},{"type":"error","name":"Unauthorized","inputs":[]},{"type":"error","name":"UnsupportedAction","inputs":[{"name":"action","type":"uint256","internalType":"uint256"}]}],"bytecode":{"object":"0x6101806040526001600855348015610015575f80fd5b5060405161544a38038061544a8339810160408190526100349161017a565b80848487806040518060400160405280601881526020017f556e697377617020763420506f736974696f6e73204e465400000000000000008152506040518060400160405280600b81526020016a554e492d56342d504f534d60a81b81525082828383815f90816100a59190610279565b5060016100b28282610279565b50508151602083012060c052504660a05261012660c051604080517f8cad95687ba82c2ce50e74f7b754645e5117c3a5bec8151c0726d5857980a8666020820152908101919091524660608201523060808201525f9060a00160405160208183030381529060405280519060200120905090565b608052506001600160a01b0390811660e0526101009590955250505050908116610120529081166101405291909116610160525061033392505050565b6001600160a01b0381168114610177575f80fd5b50565b5f805f805f60a0868803121561018e575f80fd5b855161019981610163565b60208701519095506101aa81610163565b6040870151606088015191955093506101c281610163565b60808701519092506101d381610163565b809150509295509295909350565b634e487b7160e01b5f52604160045260245ffd5b600181811c9082168061020957607f821691505b60208210810361022757634e487b7160e01b5f52602260045260245ffd5b50919050565b601f82111561027457805f5260205f20601f840160051c810160208510156102525750805b601f840160051c820191505b81811015610271575f815560010161025e565b50505b505050565b81516001600160401b03811115610292576102926101e1565b6102a6816102a084546101f5565b8461022d565b6020601f8211600181146102d8575f83156102c15750848201515b5f19600385901b1c1916600184901b178455610271565b5f84815260208120601f198516915b8281101561030757878501518255602094850194600190920191016102e7565b508482101561032457868401515f19600387901b60f8161c191681555b50505050600190811b01905550565b60805160a05160c05160e05161010051610120516101405161016051614fdc61046e5f395f81816105a9015261157d01525f818161023a0152818161052d015281816124ac015281816124f20152818161315b01526131e001525f81816103c3015281816108b801528181610c4d0152613e1e01525f81816104fa01528181611d510152611dae01525f818161026e0152818161080a01528181610bbe01528181610c8d01528181611274015281816113f10152818161168101528181611a63015281816120df0152818161277401528181612bc801528181612d9e01528181612e0501528181612e9301528181612f5b01528181612fda01528181613078015281816132d60152818161383701528181613ca901528181613da20152613de601525f610e9001525f610e3c01525f610eea0152614fdc5ff3fe60806040526004361061022a575f3560e01c8063502e1a1611610129578063a22cb465116100a8578063d737d0c71161006d578063d737d0c7146107d9578063dc4c90d3146107f9578063dd46508f1461082c578063e985e9c51461083f578063f702040514610878575f80fd5b8063a22cb46514610749578063ac9650d814610768578063ad0b27fb14610788578063b88d4fde1461079b578063c87b56dd146107ba575f80fd5b80637ba03aad116100ee5780637ba03aad1461061e57806386b6be7d1461064b57806389097a6a146106eb57806391dd73461461071657806395d89b4114610735575f80fd5b8063502e1a16146105625780635a9d7a68146105985780636352211e146105cb57806370a08231146105ea57806375794a3c14610609575f80fd5b80631efeed33116101b55780633aea60f01161017a5780633aea60f0146104b757806342842e0e146104ca5780634767565f146104e95780634aa4a4fc1461051c5780634afe393c1461054f575f80fd5b80631efeed331461041957806323b872dd146104505780632b67b5701461046f5780632b9261de146104825780633644e51514610495575f80fd5b8063081812fc116101fb578063081812fc14610334578063095ea7b3146103805780630f5730f11461039f57806312261ee7146103b257806316a24131146103e5575f80fd5b80622a3e3a146102b557806301ffc9a7146102de57806305c1ee201461030d57806306fdde0314610320575f80fd5b366102b157336001600160a01b037f000000000000000000000000000000000000000000000000000000000000000016148015906102915750336001600160a01b037f00000000000000000000000000000000000000000000000000000000000000001614155b156102af57604051631c5deabb60e11b815260040160405180910390fd5b005b5f80fd5b6102c86102c336600461425b565b61089e565b6040516102d59190614304565b60405180910390f35b3480156102e9575f80fd5b506102fd6102f836600461432b565b610959565b60405190151581526020016102d5565b6102af61031b366004614346565b6109aa565b34801561032b575f80fd5b506102c86109b7565b34801561033f575f80fd5b5061036861034e366004614346565b60046020525f90815260409020546001600160a01b031681565b6040516001600160a01b0390911681526020016102d5565b34801561038b575f80fd5b506102af61039a36600461435d565b610a42565b6102af6103ad366004614387565b610ab9565b3480156103bd575f80fd5b506103687f000000000000000000000000000000000000000000000000000000000000000081565b3480156103f0575f80fd5b506103686103ff366004614346565b60076020525f90815260409020546001600160a01b031681565b348015610424575f80fd5b50610438610433366004614346565b610b85565b6040516001600160801b0390911681526020016102d5565b34801561045b575f80fd5b506102af61046a3660046143f4565b610bb9565b6102c861047d366004614432565b610c33565b6102af610490366004614484565b610c88565b3480156104a0575f80fd5b506104a9610e39565b6040519081526020016102d5565b6102af6104c53660046144b8565b610f0c565b3480156104d5575f80fd5b506102af6104e43660046143f4565b610fbf565b3480156104f4575f80fd5b506104a97f000000000000000000000000000000000000000000000000000000000000000081565b348015610527575f80fd5b506103687f000000000000000000000000000000000000000000000000000000000000000081565b6102af61055d36600461457e565b6110ae565b34801561056d575f80fd5b506104a961057c36600461435d565b600660209081525f928352604080842090915290825290205481565b3480156105a3575f80fd5b506103687f000000000000000000000000000000000000000000000000000000000000000081565b3480156105d6575f80fd5b506103686105e5366004614346565b611108565b3480156105f5575f80fd5b506104a96106043660046145dc565b61115e565b348015610614575f80fd5b506104a960085481565b348015610629575f80fd5b5061063d610638366004614346565b6111bf565b6040516102d592919061463a565b348015610656575f80fd5b506106ab610665366004614655565b600a6020525f90815260409020805460018201546002928301546001600160a01b03928316938284169362ffffff600160a01b85041693600160b81b900490910b911685565b604080516001600160a01b039687168152948616602086015262ffffff9093169284019290925260020b606083015291909116608082015260a0016102d5565b3480156106f6575f80fd5b506104a9610705366004614346565b60096020525f908152604090205481565b348015610721575f80fd5b506102c861073036600461467c565b611267565b348015610740575f80fd5b506102c86112c3565b348015610754575f80fd5b506102af6107633660046146ba565b6112d0565b61077b6107763660046146ed565b6112df565b6040516102d5919061471f565b6102af610796366004614346565b6113ec565b3480156107a6575f80fd5b506102af6107b5366004614782565b611479565b3480156107c5575f80fd5b506102c86107d4366004614346565b61155e565b3480156107e4575f80fd5b505f80516020614f878339815191525c610368565b348015610804575f80fd5b506103687f000000000000000000000000000000000000000000000000000000000000000081565b6102af61083a3660046147ef565b6115f0565b34801561084a575f80fd5b506102fd610859366004614836565b600560209081525f928352604080842090915290825290205460ff1681565b61088b61088636600461486d565b611668565b60405160029190910b81526020016102d5565b604051632a2d80d160e01b81526060906001600160a01b037f00000000000000000000000000000000000000000000000000000000000000001690632a2d80d1906108f3908890889088908890600401614943565b5f604051808303815f87803b15801561090a575f80fd5b505af192505050801561091b575060015b610951573d808015610948576040519150601f19603f3d011682016040523d82523d5f602084013e61094d565b606091505b5090505b949350505050565b5f6301ffc9a760e01b6001600160e01b03198316148061098957506380ac58cd60e01b6001600160e01b03198316145b806109a45750635b5e139f60e01b6001600160e01b03198316145b92915050565b6109b43382611707565b50565b5f80546109c390614a1e565b80601f01602080910402602001604051908101604052809291908181526020018280546109ef90614a1e565b8015610a3a5780601f10610a1157610100808354040283529160200191610a3a565b820191905f5260205f20905b815481529060010190602001808311610a1d57829003601f168201915b505050505081565b5f818152600260205260409020546001600160a01b0316338114801590610a8c57506001600160a01b0381165f90815260056020908152604080832033845290915290205460ff16155b15610aa9576040516282b42960e81b815260040160405180910390fd5b610ab481848461176d565b505050565b8380421115610adb57604051635a9165ff60e01b815260040160405180910390fd5b5f8681526002602090815260408083205481517f49ecf333e5b8c95c40fdafc95c1ad136e8914a8fb55e9dc8bb01eaa83a2df9ad81526001600160a01b038c81169482019485529281018b8152606082018a8152608083018c815260a08420938890529587905290869052859052939092521690610b65610b5b826117c8565b8690869085611807565b610b6f8287611707565b610b7a828a8a61176d565b505050505050505050565b5f805f610b91846111bf565b915091506109518483610ba78460081c60020b90565b610bb48560201c60020b90565b611a1c565b610beb7f00000000000000000000000000000000000000000000000000000000000000006001600160a01b0316611a94565b15610c09576040516306a582ff60e51b815260040160405180910390fd5b610c14838383611b24565b5f8181526009602052604090205460ff1615610ab457610ab481611ce6565b6040516302b67b5760e41b81526060906001600160a01b037f00000000000000000000000000000000000000000000000000000000000000001690632b67b570906108f3908890889088908890600401614a56565b610cba7f00000000000000000000000000000000000000000000000000000000000000006001600160a01b0316611a94565b15610cd8576040516306a582ff60e51b815260040160405180910390fd5b3384610ce48282611e35565b610d11576040516301952d1b60e31b81526001600160a01b03831660048201526024015b60405180910390fd5b5f868152600760205260409020546001600160a01b03168015610d59576040516312fdec5f60e11b8152600481018890526001600160a01b0382166024820152604401610d08565b610d6287611ebc565b5f8781526007602052604080822080546001600160a01b0319166001600160a01b038a1617905551610dd1908890610da2908b908a908a90602401614aaf565b60408051601f198184030181529190526020810180516001600160e01b03166346abfb5960e11b179052611edf565b905080610dfa57610dfa6001600160a01b0388166346abfb5960e11b6340f52f4f60e11b611f14565b6040516001600160a01b0388169089907f9709492381f90bdc5938bb4e3b8e35b7e0eac8af058619e27191c5a40ce79fa9905f90a35050505050505050565b5f7f00000000000000000000000000000000000000000000000000000000000000004614610ee757610ee2604080517f8cad95687ba82c2ce50e74f7b754645e5117c3a5bec8151c0726d5857980a86660208201527f0000000000000000000000000000000000000000000000000000000000000000918101919091524660608201523060808201525f9060a00160405160208183030381529060405280519060200120905090565b905090565b507f000000000000000000000000000000000000000000000000000000000000000090565b8380421115610f2e57604051635a9165ff60e01b815260040160405180910390fd5b604080517f6673cb397ee2a50b6b8401653d3638b4ac8b3db9c28aa6870ffceb7574ec2f7681526001600160a01b0389166020820190815260018916928201928352606082018781526080830189815260a084205f9485905292849052938390528290529152610faa610fa0826117c8565b859085908c611807565b610fb48986611707565b610b7a898989611f8c565b610fca838383610bb9565b6001600160a01b0382163b158061106f5750604051630a85bd0160e11b8082523360048301526001600160a01b03858116602484015260448301849052608060648401525f608484015290919084169063150b7a029060a4016020604051808303815f875af115801561103f573d5f803e3d5ffd5b505050506040513d601f19601f820116820180604052508101906110639190614ac8565b6001600160e01b031916145b610ab45760405162461bcd60e51b815260206004820152601060248201526f155394d0519157d49150d2541251539560821b6044820152606401610d08565b6001600160a01b035f80516020614f878339815191525c16156110e4576040516337affdbf60e11b815260040160405180910390fd5b6110ed33611ff8565b6110f98484848461200b565b6111025f611ff8565b50505050565b5f818152600260205260409020546001600160a01b0316806111595760405162461bcd60e51b815260206004820152600a6024820152691393d517d3525395115160b21b6044820152606401610d08565b919050565b5f6001600160a01b0382166111a45760405162461bcd60e51b815260206004820152600c60248201526b5a45524f5f4144445245535360a01b6044820152606401610d08565b506001600160a01b03165f9081526003602052604090205490565b6040805160a080820183525f808352602080840182905283850182905260608085018390526080948501839052958252600981528482205466ffffffffffffff1981168352600a8252918590208551938401865280546001600160a01b039081168552600182015480821693860193909352600160a01b830462ffffff1696850196909652600160b81b909104600290810b9684019690965294909401549092169082015291565b6060336001600160a01b037f000000000000000000000000000000000000000000000000000000000000000016146112b25760405163570c108560e11b815260040160405180910390fd5b6112bc838361208b565b9392505050565b600180546109c390614a1e565b6112db338383611f8c565b5050565b6060816001600160401b038111156112f9576112f9614ae3565b60405190808252806020026020018201604052801561132c57816020015b60608152602001906001900390816113175790505b5090505f5b828110156113e5575f803086868581811061134e5761134e614af7565b90506020028101906113609190614b0b565b60405161136e929190614b4d565b5f60405180830381855af49150503d805f81146113a6576040519150601f19603f3d011682016040523d82523d5f602084013e6113ab565b606091505b5091509150816113bd57805160208201fd5b808484815181106113d0576113d0614af7565b60209081029190910101525050600101611331565b5092915050565b61141e7f00000000000000000000000000000000000000000000000000000000000000006001600160a01b0316611a94565b1561143c576040516306a582ff60e51b815260040160405180910390fd5b33816114488282611e35565b611470576040516301952d1b60e31b81526001600160a01b0383166004820152602401610d08565b610ab483611ce6565b611484858585610bb9565b6001600160a01b0384163b15806115185750604051630a85bd0160e11b808252906001600160a01b0386169063150b7a02906114cc9033908a90899089908990600401614b5c565b6020604051808303815f875af11580156114e8573d5f803e3d5ffd5b505050506040513d601f19601f8201168201806040525081019061150c9190614ac8565b6001600160e01b031916145b6115575760405162461bcd60e51b815260206004820152601060248201526f155394d0519157d49150d2541251539560821b6044820152606401610d08565b5050505050565b60405163e9dc637560e01b8152306004820152602481018290526060907f00000000000000000000000000000000000000000000000000000000000000006001600160a01b03169063e9dc6375906044015f60405180830381865afa1580156115c9573d5f803e3d5ffd5b505050506040513d5f823e601f3d908101601f191682016040526109a49190810190614c0f565b6001600160a01b035f80516020614f878339815191525c1615611626576040516337affdbf60e11b815260040160405180910390fd5b61162f33611ff8565b80804211156116545760405163bfb22adf60e01b815260048101829052602401610d08565b61165e84846120c8565b50610ab45f611ff8565b60405163313b65df60e11b81525f906001600160a01b037f00000000000000000000000000000000000000000000000000000000000000001690636276cbbe906116b89086908690600401614c71565b6020604051808303815f875af19250505080156116f2575060408051601f3d908101601f191682019092526116ef91810190614d02565b60015b6117005750627fffff6109a4565b90506109a4565b6001600160a01b0382165f908152600660209081526040808320600885901c808552925282208054600160ff861690811b918218928390559293909190818316900361176557604051623f613760e71b815260040160405180910390fd5b505050505050565b5f8181526004602052604080822080546001600160a01b0319166001600160a01b0386811691821790925591518493918716917f8c5be1e5ebec7d5bd14f71427d1e84f3dd0314c0f7b2291e5b200ac8c7c3b92591a4505050565b5f806117d2610e39565b905060405161190160f01b81528160028201528360228201526042812092505f81525f60208201525f60408201525050919050565b5f805f836001600160a01b03163b5f0361196d5760418690036118595761183086880188614d1d565b90935091508686604081811061184857611848614af7565b919091013560f81c91506118b09050565b6040869003611897575f61186f87890189614d1d565b9094506001600160ff1b0381169350905061188f60ff82901c601b614d51565b9150506118b0565b604051634be6321b60e01b815260040160405180910390fd5b604080515f8082526020820180845288905260ff841692820192909252606081018590526080810184905260019060a0016020604051602081039080840390855afa158015611901573d5f803e3d5ffd5b5050604051601f1901519150506001600160a01b03811661193557604051638baa579f60e01b815260040160405180910390fd5b846001600160a01b0316816001600160a01b03161461196757604051632057875960e21b815260040160405180910390fd5b50611a13565b604051630b135d3f60e11b81525f906001600160a01b03861690631626ba7e9061199f9089908c908c90600401614aaf565b602060405180830381865afa1580156119ba573d5f803e3d5ffd5b505050506040513d601f19601f820116820180604052508101906119de9190614ac8565b90506001600160e01b03198116630b135d3f60e11b14611a1157604051632c19a72f60e21b815260040160405180910390fd5b505b50505050505050565b60408051602681018690526006810183905260038101849052308152603a600c8201205f928201839052602082018390529082905260a08520611a8a906001600160a01b037f0000000000000000000000000000000000000000000000000000000000000000169083612158565b9695505050505050565b60405163789add5560e11b81527fc090fc4683624cfc3884e9d8de5eca132f2d0ec062aff75d43c0465d5ceeab2360048201525f906001600160a01b0383169063f135baaa90602401602060405180830381865afa158015611af8573d5f803e3d5ffd5b505050506040513d601f19601f82011682018060405250810190611b1c9190614d6a565b151592915050565b5f818152600260205260409020546001600160a01b03848116911614611b795760405162461bcd60e51b815260206004820152600a60248201526957524f4e475f46524f4d60b01b6044820152606401610d08565b6001600160a01b038216611bc35760405162461bcd60e51b81526020600482015260116024820152701253959053125117d49150d25412515395607a1b6044820152606401610d08565b336001600160a01b0384161480611bfc57506001600160a01b0383165f90815260056020908152604080832033845290915290205460ff165b80611c1c57505f818152600460205260409020546001600160a01b031633145b611c595760405162461bcd60e51b815260206004820152600e60248201526d1393d517d055551213d49256915160921b6044820152606401610d08565b6001600160a01b038084165f81815260036020908152604080832080545f19019055938616808352848320805460010190558583526002825284832080546001600160a01b03199081168317909155600490925284832080549092169091559251849392917fddf252ad1be2c89b69c2b068fc378daa952ba7f163c4a11628f55a4df523b3ef91a4505050565b5f818152600760205260409020546001600160a01b031680611d1b5760405163046fcd8560e31b815260040160405180910390fd5b611d24826121d8565b5f82815260076020526040902080546001600160a01b03191690556001600160a01b0381163b15611dfc577f00000000000000000000000000000000000000000000000000000000000000005a1015611d8757611d876376a1e1d360e11b6121ef565b604051632bd1774560e21b8152600481018390526001600160a01b0382169063af45dd14907f0000000000000000000000000000000000000000000000000000000000000000906024015f604051808303815f88803b158015611de8575f80fd5b5087f193505050508015611dfa575060015b505b6040516001600160a01b0382169083907fa0ebb1de82db929a9153472f37d3a66dbede4436258311ad0f52a35a2c91d150905f90a35050565b5f611e3f82611108565b6001600160a01b0316836001600160a01b03161480611e7657505f828152600460205260409020546001600160a01b038481169116145b806112bc575060055f611e8884611108565b6001600160a01b03908116825260208083019390935260409182015f9081209187168152925290205460ff16905092915050565b5f818152600960205260409020546001175b5f9182526009602052604090912055565b5f826001600160a01b03163b5f03611f0157611f01637c402b2160e01b6121ef565b5f808351602085015f875af19392505050565b6040516390bfb86560e01b8082526001600160a01b03851660048301526001600160e01b031984166024830152608060448301526020601f3d018190040260a0810160648401523d608484015290913d5f60a483013e60048260a4018201526001600160e01b031984168260c4018201528160e40181fd5b6001600160a01b038381165f81815260056020908152604080832094871680845294825291829020805460ff191686151590811790915591519182527f17307eab39ab6107e8899845ad3d59bd9653f200f220920489ca2b5937696c31910160405180910390a3505050565b805f80516020614f878339815191525d50565b8281811461202c5760405163aaad13f760e01b815260040160405180910390fd5b5f5b81811015611765575f86868381811061204957612049614af7565b919091013560f81c915061208290508186868581811061206b5761206b614af7565b905060200281019061207d9190614b0b565b6121f7565b5060010161202e565b6060365f365f61209b8787612539565b93509350935093506120af8484848461200b565b505060408051602081019091525f815295945050505050565b6040516348c8949160e01b81526001600160a01b037f000000000000000000000000000000000000000000000000000000000000000016906348c89491906121169085908590600401614d81565b5f604051808303815f875af1158015612131573d5f803e3d5ffd5b505050506040513d5f823e601f3d908101601f19168201604052610ab49190810190614c0f565b5f8061216484846125e1565b604051631e2eaeaf60e01b8152600481018290529091506001600160a01b03861690631e2eaeaf906024015b602060405180830381865afa1580156121ab573d5f803e3d5ffd5b505050506040513d601f19601f820116820180604052508101906121cf9190614d6a565b95945050505050565b5f8181526009602052604090205460ff1916611ece565b805f5260045ffd5b600b831015612365578261222f575f805f80365f6122158888612631565b955095509550955095509550610b7a86868686868661265e565b6004830361225d575f805f365f61224687876126e1565b94509450945094509450611a118585858585612709565b6001830361228f575f805f80365f6122758888612631565b955095509550955095509550610b7a86868686868661281c565b600283036122e357365f805f805f80365f6122aa8b8b6128a0565b9850985098509850985098509850985098506122d58989898989896122ce8a6128e1565b8989612924565b505050505050505050505050565b6005830361233257365f805f805f365f6122fd8a8a6129fe565b97509750975097509750975097509750612325888888888861231e896128e1565b8888612a39565b5050505050505050505050565b60038303612360575f805f365f61234987876126e1565b94509450945094509450611a118585858585612aca565b61251d565b600d8303612387575f806123798484612c83565b915091506115578282612cab565b601183036123b5575f805f61239c8585612cd6565b92509250925061176583836123b0846128e1565b612d04565b600b83036123ec575f805f6123ca8585612cd6565b925092509250611765836123dd83612d20565b6123e78587612d40565b612d73565b600e8303612423575f805f6124018585612cd6565b92509250925061176583612414846128e1565b61241e8487612f12565b612f21565b60128303612441575f6124368383612faf565b905061110281612fcc565b60138303612463575f806124558484612c83565b915091506115578282613033565b6014830361248d575f806124778484612c83565b9150915061155782612488836128e1565b6130c0565b601583036124d5575f6124a08383612faf565b90506111026124d05f837f00000000000000000000000000000000000000000000000000000000000000006130ef565b613153565b6016830361251d575f6124e88383612faf565b90506111026125187f0000000000000000000000000000000000000000000000000000000000000000835f6130ef565b6131c4565b604051635cda29d760e01b815260048101849052602401610d08565b365f365f604086351860608701945063ffffffff6040880135169350606063ffffffe0601f860116018060208901351882179150808801905063ffffffff8135169250602081019350508160051b805f5b828110156125b957858101358281189490941793860135601f0163ffffffe0169091016020908101910161258a565b50808501898901108317156125d557633b99b53d5f526004601cfd5b50505092959194509250565b5f806125ec8461323b565b90505f6125fa600683614d94565b6040805160208101879052908101829052909150606001604051602081830303815290604052805190602001209250505092915050565b8135602083013560408401356060850135365f61265088886004613277565b915091509295509295509295565b5f80516020614f878339815191525c866126788282611e35565b6126a0576040516301952d1b60e31b81526001600160a01b0383166004820152602401610d08565b5f806126ab8a6111bf565b915091505f806126c783856126bf8e6132b9565b8f8c8c6132d2565b915091506122d58a8a6126da85856133c7565b9190613404565b813560208301356040840135365f6126fb87876003613277565b915091509295509295909350565b5f80516020614f878339815191525c856127238282611e35565b61274b576040516301952d1b60e31b81526001600160a01b0383166004820152602401610d08565b5f80612756896111bf565b915091505f8061279a61276a8560a0902090565b6001600160a01b037f000000000000000000000000000000000000000000000000000000000000000016906134be565b50505090506127e5816127b86127b38660081c60020b90565b613570565b6127c86127b38760201c60020b90565b87516127d390613828565b6127e08960200151613828565b61388c565b6001600160801b03169150505f806128098486612801866132b9565b8f8d8d6132d2565b915091506122d58b8b6126da85856133c7565b5f80516020614f878339815191525c866128368282611e35565b61285e576040516301952d1b60e31b81526001600160a01b0383166004820152602401610d08565b5f806128698a6111bf565b915091505f80612886838561287d8e6132b9565b6126bf90614da7565b915091506122d58a8a61289985856133c7565b9190613941565b8160a081013560c082013560e0830135610100840135610120850135610140860135365f6128d0898b600b613277565b915091509295985092959850929598565b5f5f196001600160a01b03831601612907575f80516020614f878339815191525c6109a4565b6001196001600160a01b03831601612920575030919050565b5090565b600880546001810190915561293984826139dd565b5f61295361294c368d90038d018d614dc1565b8b8b613ae6565b5f83815260096020908152604080832084905566ffffffffffffff198416808452600a90925282206001015492935091600160b81b900460020b90036129ba5766ffffffffffffff1981165f908152600a602052604090208c906129b78282614e78565b50505b5f6129e1838e8036038101906129d09190614dc1565b6129d98d6132b9565b878a8a6132d2565b5090506129ef818a8a613404565b50505050505050505050505050565b8160a081013560c082013560e0830135610100840135610120850135365f612a28888a600a613277565b915091509295985092959890939650565b5f612a5661276a612a4f368c90038c018c614dc1565b60a0902090565b50505090505f612aa282612a698b613570565b612a728b613570565b612a8c8e5f016020810190612a8791906145dc565b613828565b6127e08f6020016020810190612a8791906145dc565b6001600160801b03169050612abe8a8a8a848b8b8b8b8b612924565b50505050505050505050565b5f80516020614f878339815191525c85612ae48282611e35565b612b0c576040516301952d1b60e31b81526001600160a01b0383166004820152602401610d08565b5f80612b17896111bf565b915091505f612b3b8a84612b2e8560081c60020b90565b610bb48660201c60020b90565b6001600160801b031690505f612b508b611108565b5f8c8152600960205260408120559050612b698b613b1e565b5f8215612c6d575f806040518060800160405280612b8a8860081c60020b90565b60020b8152602001612b9f8860201c60020b90565b60020b8152602001612bb0876132b9565b612bb990614da7565b81526020018f5f1b81525090507f00000000000000000000000000000000000000000000000000000000000000006001600160a01b0316635a6bcfda88838e8e6040518563ffffffff1660e01b8152600401612c189493929190614f15565b60408051808303815f875af1158015612c33573d5f803e3d5ffd5b505050506040513d601f19601f82011682018060405250810190612c579190614f64565b93509150612c6a8d8d61289985876133c7565b50505b60ff8416156122d5576122d58c83868685613be8565b5f806040831015612c9b57633b99b53d5f526004601cfd5b5050813592602090920135919050565b5f80516020614f878339815191525c612cc883826123e782613c9a565b610ab482826123e785613c9a565b5f805f6060841015612cef57633b99b53d5f526004601cfd5b50508235936020840135936040013592509050565b612d12838261241e86613828565b610ab4828261241e85613828565b5f81612d2c57306109a4565b5f80516020614f878339815191525c6109a4565b5f600160ff1b8303612d5e57611700826001600160a01b0316613d07565b82612d6c5761170082613c9a565b50816109a4565b805f03612d7f57505050565b604051632961046560e21b81526001600160a01b0384811660048301527f0000000000000000000000000000000000000000000000000000000000000000169063a5841194906024015f604051808303815f87803b158015612ddf575f80fd5b505af1158015612df1573d5f803e3d5ffd5b505050506001600160a01b038316612e86577f00000000000000000000000000000000000000000000000000000000000000006001600160a01b03166311da60b4826040518263ffffffff1660e01b815260040160206040518083038185885af1158015612e61573d5f803e3d5ffd5b50505050506040513d601f19601f820116820180604052508101906111029190614d6a565b612e91838383613d83565b7f00000000000000000000000000000000000000000000000000000000000000006001600160a01b03166311da60b46040518163ffffffff1660e01b81526004016020604051808303815f875af1158015612eee573d5f803e3d5ffd5b505050506040513d601f19601f820116820180604052508101906111029190614d6a565b5f82612d6c5761170082613828565b805f03612f2d57505050565b604051630b0d9c0960e01b81526001600160a01b0384811660048301528381166024830152604482018390527f00000000000000000000000000000000000000000000000000000000000000001690630b0d9c09906064015b5f604051808303815f87803b158015612f9d575f80fd5b505af1158015611a13573d5f803e3d5ffd5b5f6020821015612fc657633b99b53d5f526004601cfd5b50503590565b5f6130016001600160a01b037f0000000000000000000000000000000000000000000000000000000000000000163084613e4d565b90505f80516020614f878339815191525c5f82121561302857610ab483826123e785614da7565b610ab4838284612f21565b5f61303d83613828565b9050805f0361304b57505050565b8181116130a75760405163203c2d1360e21b81526001600160a01b038481166004830152602482018390527f000000000000000000000000000000000000000000000000000000000000000016906380f0b44c90604401612f86565b610ab4835f80516020614f878339815191525c83612f21565b5f6130d3836001600160a01b0316613d07565b90508015610ab457610ab46001600160a01b0384168383613e9c565b5f806131046001600160a01b03861630613f3b565b9050600160ff1b84036131185790506112bc565b836131295761312683613c9a565b93505b8084111561314a57604051631e9acf1760e31b815260040160405180910390fd5b50919392505050565b80156109b4577f00000000000000000000000000000000000000000000000000000000000000006001600160a01b031663d0e30db0826040518263ffffffff1660e01b81526004015f604051808303818588803b1580156131b2575f80fd5b505af1158015611765573d5f803e3d5ffd5b80156109b457604051632e1a7d4d60e01b8152600481018290527f00000000000000000000000000000000000000000000000000000000000000006001600160a01b031690632e1a7d4d906024015f604051808303815f87803b158015613229575f80fd5b505af1158015611557573d5f803e3d5ffd5b6040515f9061325a908390600690602001918252602082015260400190565b604051602081830303815290604052805190602001209050919050565b63ffffffff600582901b84013581168401602081810192823516918291849183010186880110156132af57633b99b53d5f526004601cfd5b5050935093915050565b805f811215611159576111596393dafdf160e01b6121ef565b5f807f00000000000000000000000000000000000000000000000000000000000000006001600160a01b0316635a6bcfda88604051806080016040528061331c8d60081c60020b90565b60020b81526020016133318d60201c60020b90565b60020b81526020018a81526020018981525087876040518563ffffffff1660e01b81526004016133649493929190614f15565b60408051808303815f875af115801561337f573d5f803e3d5ffd5b505050506040513d601f19601f820116820180604052508101906133a39190614f64565b909250905060ff8816156133bc576133bc858783613fc3565b965096945050505050565b5f608082811d9084901d03600f83810b9085900b036121cf6133e883614057565b6133f183614057565b6001600160801b031660809190911b1790565b5f61340f8460801d90565b600f0b90505f61341f85600f0b90565b600f0b90505f8212801561344c575061343782614da7565b6001600160801b0316846001600160801b0316105b15613487578361345b83614da7565b60405163031e30ad60e41b81526001600160801b03928316600482015291166024820152604401610d08565b5f811280156134af575061349a81614da7565b6001600160801b0316836001600160801b0316105b15611557578261345b82614da7565b5f805f805f6134cc8661323b565b604051631e2eaeaf60e01b8152600481018290529091505f906001600160a01b03891690631e2eaeaf90602401602060405180830381865afa158015613514573d5f803e3d5ffd5b505050506040513d601f19601f820116820180604052508101906135389190614d6a565b90506001600160a01b03811695508060a01c60020b945062ffffff8160b81c16935062ffffff8160d01c169250505092959194509250565b60020b5f60ff82901d80830118620d89e8811115613599576135996345c3193d60e11b84614073565b7001fffcb933bd6fad37aa2d162d1a5940016001821602600160801b1860028216156135d5576ffff97272373d413259a46990580e213a0260801c5b60048216156135f4576ffff2e50f5f656932ef12357cf3c7fdcc0260801c5b6008821615613613576fffe5caca7e10e4e61c3624eaa0941cd00260801c5b6010821615613632576fffcb9843d60f6159c9db58835c9266440260801c5b6020821615613651576fff973b41fa98c081472e6896dfb254c00260801c5b6040821615613670576fff2ea16466c96a3843ec78b326b528610260801c5b608082161561368f576ffe5dee046a99a2a811c461f1969c30530260801c5b6101008216156136af576ffcbe86c7900a88aedcffc83b479aa3a40260801c5b6102008216156136cf576ff987a7253ac413176f2b074cf7815e540260801c5b6104008216156136ef576ff3392b0822b70005940c7a398e4b70f30260801c5b61080082161561370f576fe7159475a2c29b7443b29c7fa6e889d90260801c5b61100082161561372f576fd097f3bdfd2022b8845ad8f792aa58250260801c5b61200082161561374f576fa9f746462d870fdf8a65dc1f90e061e50260801c5b61400082161561376f576f70d869a156d2a1b890bb3df62baf32f70260801c5b61800082161561378f576f31be135f97d08fd981231505542fcfa60260801c5b620100008216156137b0576f09aa508b5b7a84e1c677de54f3e99bc90260801c5b620200008216156137d0576e5d6af8dedb81196699c329225ee6040260801c5b620400008216156137ef576d2216e584f5fa1ea926041bedfe980260801c5b6208000082161561380c576b048a170391f7dc42444e8fa20260801c5b5f841315613818575f19045b63ffffffff0160201c9392505050565b5f8061385e6001600160a01b037f0000000000000000000000000000000000000000000000000000000000000000163085613e4d565b90505f8112156109a457604051634c085bf160e01b81526001600160a01b0384166004820152602401610d08565b5f836001600160a01b0316856001600160a01b031611156138ab579293925b846001600160a01b0316866001600160a01b0316116138d6576138cf858585614082565b90506121cf565b836001600160a01b0316866001600160a01b03161015613936575f6138fc878686614082565b90505f61390a8789866140e3565b9050806001600160801b0316826001600160801b03161061392b578061392d565b815b925050506121cf565b611a8a8585846140e3565b816001600160801b03166139606139588560801d90565b600f0b61411f565b6001600160801b031610156139a9578161397d6139588560801d90565b604051630940b79160e11b81526001600160801b03928316600482015291166024820152604401610d08565b806001600160801b03166139c061395885600f0b90565b6001600160801b03161015610ab4578061397d61395885600f0b90565b6001600160a01b038216613a275760405162461bcd60e51b81526020600482015260116024820152701253959053125117d49150d25412515395607a1b6044820152606401610d08565b5f818152600260205260409020546001600160a01b031615613a7c5760405162461bcd60e51b815260206004820152600e60248201526d1053149150511657d3525395115160921b6044820152606401610d08565b6001600160a01b0382165f81815260036020908152604080832080546001019055848352600290915280822080546001600160a01b0319168417905551839291907fddf252ad1be2c89b69c2b068fc378daa952ba7f163c4a11628f55a4df523b3ef908290a45050565b5f80613af38560a0902090565b90508362ffffff1660081b8362ffffff1660201b8266ffffffffffffff191617179150509392505050565b5f818152600260205260409020546001600160a01b031680613b6f5760405162461bcd60e51b815260206004820152600a6024820152691393d517d3525395115160b21b6044820152606401610d08565b6001600160a01b0381165f81815260036020908152604080832080545f190190558583526002825280832080546001600160a01b031990811690915560049092528083208054909216909155518492907fddf252ad1be2c89b69c2b068fc378daa952ba7f163c4a11628f55a4df523b3ef908390a45050565b5f8581526007602052604080822080546001600160a01b031981169091559051602481018890526001600160a01b038781166044830152606482018790526084820186905260a482018590529091169190613c7190839060c40160408051601f198184030181529190526020810180516001600160e01b031663b1a9116f60e01b179052611edf565b905080611a1357611a136001600160a01b03831663b1a9116f60e01b63ace9448160e01b611f14565b5f80613cd06001600160a01b037f0000000000000000000000000000000000000000000000000000000000000000163085613e4d565b90505f811315613cfe5760405163019a8d9360e51b81526001600160a01b0384166004820152602401610d08565b6112bc81614da7565b5f6001600160a01b038216613d1d575047919050565b6040516370a0823160e01b81523060048201526001600160a01b038316906370a0823190602401602060405180830381865afa158015613d5f573d5f803e3d5ffd5b505050506040513d601f19601f820116820180604052508101906109a49190614d6a565b306001600160a01b03831603613dc757610ab46001600160a01b0384167f000000000000000000000000000000000000000000000000000000000000000083613e9c565b604051631b63c28b60e11b81526001600160a01b0383811660048301527f000000000000000000000000000000000000000000000000000000000000000081166024830152828116604483015284811660648301527f000000000000000000000000000000000000000000000000000000000000000016906336c7851690608401612f86565b5f806001600160a01b0384165f526001600160a01b03831660205260405f209050846001600160a01b031663f135baaa826040518263ffffffff1660e01b815260040161219091815260200190565b5f6001600160a01b038416613ed1575f805f8085875af1905080613ecc57613ecc835f633d2cec6f60e21b611f14565b611102565b60405163a9059cbb60e01b81526001600160a01b038416600482015282602482015260205f6044835f895af13d15601f3d1160015f511416171691505f81525f60208201525f60408201525080611102576111028463a9059cbb60e01b633c9fd93960e21b611f14565b5f6001600160a01b038316613f5b57506001600160a01b038116316109a4565b6040516370a0823160e01b81526001600160a01b0383811660048301528416906370a0823190602401602060405180830381865afa158015613f9f573d5f803e3d5ffd5b505050506040513d601f19601f820116820180604052508101906117009190614d6a565b5f838152600760205260408082205490516024810186905260448101859052606481018490526001600160a01b03909116919061402e90839060840160408051601f198184030181529190526020810180516001600160e01b031663d8865c2760e01b179052611edf565b905080611557576115576001600160a01b03831663d8865c2760e01b6374a7887160e11b611f14565b80600f81900b8114611159576111596393dafdf160e01b6121ef565b815f528060020b60045260245ffd5b5f826001600160a01b0316846001600160a01b031611156140a1579192915b5f6140c3856001600160a01b0316856001600160a01b0316600160601b61413b565b90506121cf6140de84838888036001600160a01b031661413b565b6141d7565b5f826001600160a01b0316846001600160a01b03161115614102579192915b6109516140de83600160601b8787036001600160a01b031661413b565b5f8082600f0b1215612920576129206393dafdf160e01b6121ef565b5f838302815f198587098281108382030391505080841161415a575f80fd5b805f0361416c575082900490506112bc565b5f848688095f868103871696879004966002600389028118808a02820302808a02820302808a02820302808a02820302808a02820302808a02909103029181900381900460010186841190950394909402919094039290920491909117919091029150509392505050565b806001600160801b0381168114611159576111596393dafdf160e01b6121ef565b6001600160a01b03811681146109b4575f80fd5b8035611159816141f8565b5f8083601f840112614227575f80fd5b5081356001600160401b0381111561423d575f80fd5b602083019150836020828501011115614254575f80fd5b9250929050565b5f805f806060858703121561426e575f80fd5b8435614279816141f8565b935060208501356001600160401b03811115614293575f80fd5b8501606081880312156142a4575f80fd5b925060408501356001600160401b038111156142be575f80fd5b6142ca87828801614217565b95989497509550505050565b5f81518084528060208401602086015e5f602082860101526020601f19601f83011685010191505092915050565b602081525f6112bc60208301846142d6565b6001600160e01b0319811681146109b4575f80fd5b5f6020828403121561433b575f80fd5b81356112bc81614316565b5f60208284031215614356575f80fd5b5035919050565b5f806040838503121561436e575f80fd5b8235614379816141f8565b946020939093013593505050565b5f805f805f8060a0878903121561439c575f80fd5b86356143a7816141f8565b955060208701359450604087013593506060870135925060808701356001600160401b038111156143d6575f80fd5b6143e289828a01614217565b979a9699509497509295939492505050565b5f805f60608486031215614406575f80fd5b8335614411816141f8565b92506020840135614421816141f8565b929592945050506040919091013590565b5f805f80848603610100811215614447575f80fd5b8535614452816141f8565b945060c0601f1982011215614465575f80fd5b5060208501925060e08501356001600160401b038111156142be575f80fd5b5f805f8060608587031215614497575f80fd5b8435935060208501356142a4816141f8565b80358015158114611159575f80fd5b5f805f805f805f60c0888a0312156144ce575f80fd5b87356144d9816141f8565b965060208801356144e9816141f8565b95506144f7604089016144a9565b9450606088013593506080880135925060a08801356001600160401b0381111561451f575f80fd5b61452b8a828b01614217565b989b979a50959850939692959293505050565b5f8083601f84011261454e575f80fd5b5081356001600160401b03811115614564575f80fd5b6020830191508360208260051b8501011115614254575f80fd5b5f805f8060408587031215614591575f80fd5b84356001600160401b038111156145a6575f80fd5b6145b287828801614217565b90955093505060208501356001600160401b038111156145d0575f80fd5b6142ca8782880161453e565b5f602082840312156145ec575f80fd5b81356112bc816141f8565b80516001600160a01b03908116835260208083015182169084015260408083015162ffffff169084015260608083015160020b9084015260809182015116910152565b60c0810161464882856145f7565b8260a08301529392505050565b5f60208284031215614665575f80fd5b813566ffffffffffffff19811681146112bc575f80fd5b5f806020838503121561468d575f80fd5b82356001600160401b038111156146a2575f80fd5b6146ae85828601614217565b90969095509350505050565b5f80604083850312156146cb575f80fd5b82356146d6816141f8565b91506146e4602084016144a9565b90509250929050565b5f80602083850312156146fe575f80fd5b82356001600160401b03811115614713575f80fd5b6146ae8582860161453e565b5f602082016020835280845180835260408501915060408160051b8601019250602086015f5b8281101561477657603f198786030184526147618583516142d6565b94506020938401939190910190600101614745565b50929695505050505050565b5f805f805f60808688031215614796575f80fd5b85356147a1816141f8565b945060208601356147b1816141f8565b93506040860135925060608601356001600160401b038111156147d2575f80fd5b6147de88828901614217565b969995985093965092949392505050565b5f805f60408486031215614801575f80fd5b83356001600160401b03811115614816575f80fd5b61482286828701614217565b909790965060209590950135949350505050565b5f8060408385031215614847575f80fd5b8235614852816141f8565b91506020830135614862816141f8565b809150509250929050565b5f8082840360c081121561487f575f80fd5b60a081121561488c575f80fd5b5082915060a0830135614862816141f8565b803565ffffffffffff81168114611159575f80fd5b80356148be816141f8565b6001600160a01b0316825260208101356148d7816141f8565b6001600160a01b0316602083015265ffffffffffff6148f86040830161489e565b16604083015265ffffffffffff6149116060830161489e565b1660608301525050565b81835281816020850137505f828201602090810191909152601f909101601f19169091010190565b6001600160a01b0385168152606060208201525f60c08201853536879003601e1901811261496f575f80fd5b86016020810190356001600160401b0381111561498a575f80fd5b8060071b360382131561499b575f80fd5b60608581015291829052905f9060e085015b818310156149d2576149bf81856148b3565b60809384019360019390930192016149ad565b6149de60208a0161420c565b6001600160a01b0316608087015260408981013560a08801819052878303918801919091529350614a1081888a61491b565b9a9950505050505050505050565b600181811c90821680614a3257607f821691505b602082108103614a5057634e487b7160e01b5f52602260045260245ffd5b50919050565b6001600160a01b0385168152614a6f60208201856148b3565b5f6080850135614a7e816141f8565b6001600160a01b031660a08381019190915285013560c083015261010060e08301819052611a8a908301848661491b565b838152604060208201525f6121cf60408301848661491b565b5f60208284031215614ad8575f80fd5b81516112bc81614316565b634e487b7160e01b5f52604160045260245ffd5b634e487b7160e01b5f52603260045260245ffd5b5f808335601e19843603018112614b20575f80fd5b8301803591506001600160401b03821115614b39575f80fd5b602001915036819003821315614254575f80fd5b818382375f9101908152919050565b6001600160a01b03868116825285166020820152604081018490526080606082018190525f90614b8f908301848661491b565b979650505050505050565b5f806001600160401b03841115614bb357614bb3614ae3565b50604051601f19601f85018116603f011681018181106001600160401b0382111715614be157614be1614ae3565b604052838152905080828401851015614bf8575f80fd5b8383602083015e5f60208583010152509392505050565b5f60208284031215614c1f575f80fd5b81516001600160401b03811115614c34575f80fd5b8201601f81018413614c44575f80fd5b61095184825160208401614b9a565b62ffffff811681146109b4575f80fd5b8060020b81146109b4575f80fd5b60c081018335614c80816141f8565b6001600160a01b031682526020840135614c99816141f8565b6001600160a01b031660208301526040840135614cb581614c53565b62ffffff1660408301526060840135614ccd81614c63565b60020b60608301526080840135614ce3816141f8565b6001600160a01b0390811660808401529290921660a090910152919050565b5f60208284031215614d12575f80fd5b81516112bc81614c63565b5f8060408385031215614d2e575f80fd5b50508035926020909101359150565b634e487b7160e01b5f52601160045260245ffd5b60ff81811683821601908111156109a4576109a4614d3d565b5f60208284031215614d7a575f80fd5b5051919050565b602081525f61095160208301848661491b565b808201808211156109a4576109a4614d3d565b5f600160ff1b8201614dbb57614dbb614d3d565b505f0390565b5f60a0828403128015614dd2575f80fd5b5060405160a081016001600160401b0381118282101715614df557614df5614ae3565b6040528235614e03816141f8565b81526020830135614e13816141f8565b60208201526040830135614e2681614c53565b60408201526060830135614e3981614c63565b60608201526080830135614e4c816141f8565b60808201529392505050565b80546001600160a01b0319166001600160a01b0392909216919091179055565b8135614e83816141f8565b614e8d8183614e58565b50600181016020830135614ea0816141f8565b614eaa8183614e58565b506040830135614eb981614c53565b81546060850135614ec981614c63565b8060b81b62ffffff60b81b1662ffffff60a01b8460a01b1665ffffffffffff60a01b19841617178455505050505f6080830135614f05816141f8565b8091506111028160028501614e58565b614f1f81866145f7565b835160020b60a0820152602084015160020b60c0820152604084015160e082015260608401516101008201526101406101208201525f611a8a6101408301848661491b565b5f8060408385031215614f75575f80fd5b50508051602090910151909290915056fe0aedd6bde10e3aa2adec092b02a3e3e805795516cda41f27aa145b8f300af87aa2646970667358221220ac7da3afc27d7ed846b6c9be9f38d3dbecf387dd04c0e7a9b101f986bb9db4bc64736f6c634300081a0033","linkReferences":{}},"methodIdentifiers":{"DOMAIN_SEPARATOR()":"3644e515","WETH9()":"4aa4a4fc","approve(address,uint256)":"095ea7b3","balanceOf(address)":"70a08231","getApproved(uint256)":"081812fc","getPoolAndPositionInfo(uint256)":"7ba03aad","getPositionLiquidity(uint256)":"1efeed33","initializePool((address,address,uint24,int24,address),uint160)":"f7020405","isApprovedForAll(address,address)":"e985e9c5","modifyLiquidities(bytes,uint256)":"dd46508f","modifyLiquiditiesWithoutUnlock(bytes,bytes[])":"4afe393c","msgSender()":"d737d0c7","multicall(bytes[])":"ac9650d8","name()":"06fdde03","nextTokenId()":"75794a3c","nonces(address,uint256)":"502e1a16","ownerOf(uint256)":"6352211e","permit(address,((address,uint160,uint48,uint48),address,uint256),bytes)":"2b67b570","permit(address,uint256,uint256,uint256,bytes)":"0f5730f1","permit2()":"12261ee7","permitBatch(address,((address,uint160,uint48,uint48)[],address,uint256),bytes)":"002a3e3a","permitForAll(address,address,bool,uint256,uint256,bytes)":"3aea60f0","poolKeys(bytes25)":"86b6be7d","poolManager()":"dc4c90d3","positionInfo(uint256)":"89097a6a","revokeNonce(uint256)":"05c1ee20","safeTransferFrom(address,address,uint256)":"42842e0e","safeTransferFrom(address,address,uint256,bytes)":"b88d4fde","setApprovalForAll(address,bool)":"a22cb465","subscribe(uint256,address,bytes)":"2b9261de","subscriber(uint256)":"16a24131","supportsInterface(bytes4)":"01ffc9a7","symbol()":"95d89b41","tokenDescriptor()":"5a9d7a68","tokenURI(uint256)":"c87b56dd","transferFrom(address,address,uint256)":"23b872dd","unlockCallback(bytes)":"91dd7346","unsubscribe(uint256)":"ad0b27fb","unsubscribeGasLimit()":"4767565f"},"id":95}