{"abi":[{"type":"function","name":"createOrder","inputs":[{"name":"params","type":"tuple","internalType":"struct MockExchangeRouter.CreateOrderParams","components":[{"name":"market","type":"address","internalType":"address"},{"name":"callbackContract","type":"address","internalType":"address"},{"name":"uiFeeReceiver","type":"address","internalType":"address"},{"name":"trader","type":"address","internalType":"address"},{"name":"sizeDeltaUsd","type":"uint256","internalType":"uint256"},{"name":"initialCollateralDeltaAmount","type":"uint256","internalType":"uint256"},{"name":"executionFee","type":"uint256","internalType":"uint256"},{"name":"callbackGasLimit","type":"uint256","internalType":"uint256"},{"name":"shouldUnwrapNativeToken","type":"uint256","internalType":"uint256"},{"name":"minOutputAmount","type":"uint256","internalType":"uint256"},{"name":"longTokenSwapPath","type":"address[]","internalType":"address[]"},{"name":"shortTokenSwapPath","type":"address[]","internalType":"address[]"},{"name":"callbackData","type":"bytes","internalType":"bytes"}]}],"outputs":[{"name":"","type":"bytes32","internalType":"bytes32"}],"stateMutability":"payable"},{"type":"function","name":"getLatestOrder","inputs":[],"outputs":[{"name":"","type":"tuple","internalType":"struct MockExchangeRouter.Order","components":[{"name":"market","type":"address","internalType":"address"},{"name":"trader","type":"address","internalType":"address"},{"name":"sizeDeltaUsd","type":"uint256","internalType":"uint256"},{"name":"collateral","type":"uint256","internalType":"uint256"},{"name":"isLong","type":"bool","internalType":"bool"}]}],"stateMutability":"view"},{"type":"function","name":"getOrderCount","inputs":[],"outputs":[{"name":"","type":"uint256","internalType":"uint256"}],"stateMutability":"view"},{"type":"function","name":"orders","inputs":[{"name":"","type":"uint256","internalType":"uint256"}],"outputs":[{"name":"market","type":"address","internalType":"address"},{"name":"trader","type":"address","internalType":"address"},{"name":"sizeDeltaUsd","type":"uint256","internalType":"uint256"},{"name":"collateral","type":"uint256","internalType":"uint256"},{"name":"isLong","type":"bool","internalType":"bool"}],"stateMutability":"view"},{"type":"event","name":"OrderCreated","inputs":[{"name":"trader","type":"address","indexed":true,"internalType":"address"},{"name":"market","type":"address","indexed":true,"internalType":"address"},{"name":"size","type":"uint256","indexed":false,"internalType":"uint256"},{"name":"collateral","type":"uint256","indexed":false,"internalType":"uint256"}],"anonymous":false}],"bytecode":{"object":"0x6080604052348015600e575f80fd5b506104f88061001c5f395ff3fe60806040526004361061003e575f3560e01c80632736fa29146100425780638d0a5fbb14610068578063a85c38ef1461007b578063deaf97af146100cf575b5f80fd5b61005561005036600461040d565b610130565b6040519081526020015b60405180910390f35b348015610073575f80fd5b505f54610055565b348015610086575f80fd5b5061009a61009536600461044c565b6102da565b604080516001600160a01b0396871681529590941660208601529284019190915260608301521515608082015260a00161005f565b3480156100da575f80fd5b506100e3610327565b60405161005f919081516001600160a01b03908116825260208084015190911690820152604080830151908201526060808301519082015260809182015115159181019190915260a00190565b6040805160a081019091525f9081908061014d6020860186610463565b6001600160a01b0316815260200161016b6080860160608701610463565b6001600160a01b03908116825260808681013560208085019190915260a08801356040808601919091525f6060958601819052875460018082018a5598825290839020875160059092020180546001600160a01b031990811692871692909217815587840151988101805490921698909516979097179096559484015160028301559183015160038201559101516004909101805460ff191691151591909117905561021990830183610463565b6001600160a01b03166102326080840160608501610463565b6001600160a01b03167febbbe7bf32c963edeacf012f9e693ccc7e5b88b28f031635863f41b1783ccd2184608001358560a0013560405161027d929190918252602082015260400190565b60405180910390a3426102966080840160608501610463565b6040805160208101939093526001600160a01b0390911690820152608080840135606083015201604051602081830303815290604052805190602001209050919050565b5f81815481106102e8575f80fd5b5f918252602090912060059091020180546001820154600283015460038401546004909401546001600160a01b03938416955091909216929060ff1685565b6040805160a0810182525f808252602082018190529181018290526060810182905260808101829052905461038e5760405162461bcd60e51b81526020600482015260096024820152684e6f206f726465727360b81b604482015260640160405180910390fd5b5f805461039d90600190610489565b815481106103ad576103ad6104ae565b5f9182526020918290206040805160a081018252600590930290910180546001600160a01b039081168452600182015416938301939093526002830154908201526003820154606082015260049091015460ff1615156080820152919050565b5f6020828403121561041d575f80fd5b813567ffffffffffffffff811115610433575f80fd5b82016101a08185031215610445575f80fd5b9392505050565b5f6020828403121561045c575f80fd5b5035919050565b5f60208284031215610473575f80fd5b81356001600160a01b0381168114610445575f80fd5b818103818111156104a857634e487b7160e01b5f52601160045260245ffd5b92915050565b634e487b7160e01b5f52603260045260245ffdfea264697066735822122003e090a0bea53ba3a0fe9a74b9cc8ed98e0265c245fc2708f7342e7ce0ec7fb964736f6c634300081a0033","linkReferences":{}},"methodIdentifiers":{"createOrder((address,address,address,address,uint256,uint256,uint256,uint256,uint256,uint256,address[],address[],bytes))":"2736fa29","getLatestOrder()":"deaf97af","getOrderCount()":"8d0a5fbb","orders(uint256)":"a85c38ef"},"id":53}