{"abi":[{"type":"constructor","inputs":[{"name":"_manager","type":"address","internalType":"contract IPoolManager"}],"stateMutability":"nonpayable"},{"type":"function","name":"donate","inputs":[{"name":"key","type":"tuple","internalType":"struct PoolKey","components":[{"name":"currency0","type":"address","internalType":"Currency"},{"name":"currency1","type":"address","internalType":"Currency"},{"name":"fee","type":"uint24","internalType":"uint24"},{"name":"tickSpacing","type":"int24","internalType":"int24"},{"name":"hooks","type":"address","internalType":"contract IHooks"}]},{"name":"amount0","type":"uint256","internalType":"uint256"},{"name":"amount1","type":"uint256","internalType":"uint256"},{"name":"hookData","type":"bytes","internalType":"bytes"}],"outputs":[{"name":"delta","type":"int256","internalType":"BalanceDelta"}],"stateMutability":"payable"},{"type":"function","name":"manager","inputs":[],"outputs":[{"name":"","type":"address","internalType":"contract IPoolManager"}],"stateMutability":"view"},{"type":"function","name":"unlockCallback","inputs":[{"name":"rawData","type":"bytes","internalType":"bytes"}],"outputs":[{"name":"","type":"bytes","internalType":"bytes"}],"stateMutability":"nonpayable"}],"bytecode":{"object":"0x60a0604052348015600e575f80fd5b50604051611269380380611269833981016040819052602b91603b565b6001600160a01b03166080526066565b5f60208284031215604a575f80fd5b81516001600160a01b0381168114605f575f80fd5b9392505050565b6080516111ae6100bb5f395f8181606e0152818160d7015281816101ee015281816102f0015281816104c30152818161051401528181610579015281816105c4015281816106e1015261071401526111ae5ff3fe608060405260043610610033575f3560e01c8063234266d714610037578063481c6a751461005d57806391dd7346146100a8575b5f80fd5b61004a610045366004610e14565b6100d4565b6040519081526020015b60405180910390f35b348015610068575f80fd5b506100907f000000000000000000000000000000000000000000000000000000000000000081565b6040516001600160a01b039091168152602001610054565b3480156100b3575f80fd5b506100c76100c2366004610e73565b6101e1565b6040516100549190610f0f565b5f7f00000000000000000000000000000000000000000000000000000000000000006001600160a01b03166348c894916040518060a00160405280336001600160a01b03168152602001888152602001878152602001868152602001858152506040516020016101449190610f6b565b6040516020818303038152906040526040518263ffffffff1660e01b815260040161016f9190610f0f565b5f604051808303815f875af115801561018a573d5f803e3d5ffd5b505050506040513d5f823e601f3d908101601f191682016040526101b19190810190610fc9565b8060200190518101906101c4919061103e565b90504780156101d8576101d85f3383610615565b50949350505050565b6060336001600160a01b037f00000000000000000000000000000000000000000000000000000000000000001614610217575f80fd5b5f61022483850185611055565b90505f61023c82602001515f0151835f0151306106ba565b925050505f610257836020015160200151845f0151306106ba565b92505050815f146102a75760405162461bcd60e51b8152602060048201526015602482015274064656c74614265666f726530206973206e6f74203605c1b60448201526064015b60405180910390fd5b80156102ed5760405162461bcd60e51b8152602060048201526015602482015274064656c74614265666f726531206973206e6f74203605c1b604482015260640161029e565b5f7f00000000000000000000000000000000000000000000000000000000000000006001600160a01b031663234266d785602001518660400151876060015188608001516040518563ffffffff1660e01b815260040161035094939291906110fc565b6020604051808303815f875af115801561036c573d5f803e3d5ffd5b505050506040513d601f19601f82011682018060405250810190610390919061103e565b90505f6103a885602001515f0151865f0151306106ba565b925050505f6103c3866020015160200151875f0151306106ba565b9250505085604001516103d590611133565b821461043d5760405162461bcd60e51b815260206004820152603160248201527f64656c7461416674657230206973206e6f7420657175616c20746f202d696e7460448201527032353628646174612e616d6f756e74302960781b606482015260840161029e565b856060015161044b90611133565b81146104b35760405162461bcd60e51b815260206004820152603160248201527f64656c7461416674657231206973206e6f7420657175616c20746f202d696e7460448201527032353628646174612e616d6f756e74312960781b606482015260840161029e565b5f821215610504578551610504907f0000000000000000000000000000000000000000000000000000000000000000906104ec85611133565b60208a0151516001600160a01b03169291905f610746565b5f811215610557578551610557907f00000000000000000000000000000000000000000000000000000000000000009061053d84611133565b6020808b015101516001600160a01b03169291905f610746565b5f8213156105a05785516020870151516105a0916001600160a01b03909116907f000000000000000000000000000000000000000000000000000000000000000090855f610a12565b5f8113156105eb57855160208088015101516105eb916001600160a01b03909116907f000000000000000000000000000000000000000000000000000000000000000090845f610a12565b60408051602081018590520160405160208183030381529060405296505050505050505b92915050565b5f6001600160a01b03841661064a575f805f8085875af190508061064557610645835f633d2cec6f60e21b610ae4565b6106b4565b60405163a9059cbb60e01b81526001600160a01b038416600482015282602482015260205f6044835f895af13d15601f3d1160015f511416171691505f81525f60208201525f604082015250806106b4576106b48463a9059cbb60e01b633c9fd93960e21b610ae4565b50505050565b5f80806106d06001600160a01b03871686610b5c565b92506107056001600160a01b0387167f0000000000000000000000000000000000000000000000000000000000000000610b5c565b915061073b6001600160a01b037f0000000000000000000000000000000000000000000000000000000000000000168588610beb565b905093509350939050565b80156107db57836001600160a01b031663f5298aca84610775886001600160a01b03166001600160a01b031690565b6040516001600160e01b031960e085901b1681526001600160a01b0390921660048301526024820152604481018590526064015b5f604051808303815f87803b1580156107c0575f80fd5b505af11580156107d2573d5f803e3d5ffd5b50505050610a0b565b6001600160a01b03851661085257836001600160a01b03166311da60b4836040518263ffffffff1660e01b815260040160206040518083038185885af1158015610827573d5f803e3d5ffd5b50505050506040513d601f19601f8201168201806040525081019061084c919061103e565b50610a0b565b604051632961046560e21b81526001600160a01b03868116600483015285169063a5841194906024015f604051808303815f87803b158015610892575f80fd5b505af11580156108a4573d5f803e3d5ffd5b505050506001600160a01b0383163014610936576040516323b872dd60e01b81526001600160a01b0384811660048301528581166024830152604482018490528616906323b872dd906064016020604051808303815f875af115801561090c573d5f803e3d5ffd5b505050506040513d601f19601f820116820180604052508101906109309190611159565b506109a8565b60405163a9059cbb60e01b81526001600160a01b0385811660048301526024820184905286169063a9059cbb906044016020604051808303815f875af1158015610982573d5f803e3d5ffd5b505050506040513d601f19601f820116820180604052508101906109a69190611159565b505b836001600160a01b03166311da60b46040518163ffffffff1660e01b81526004016020604051808303815f875af11580156109e5573d5f803e3d5ffd5b505050506040513d601f19601f82011682018060405250810190610a09919061103e565b505b5050505050565b80610a5457604051630b0d9c0960e01b81526001600160a01b038681166004830152848116602483015260448201849052851690630b0d9c09906064016107a9565b836001600160a01b031663156e29f684610a7d886001600160a01b03166001600160a01b031690565b6040516001600160e01b031960e085901b1681526001600160a01b0390921660048301526024820152604481018590526064015f604051808303815f87803b158015610ac7575f80fd5b505af1158015610ad9573d5f803e3d5ffd5b505050505050505050565b6040516390bfb86560e01b8082526001600160a01b03851660048301526001600160e01b031984166024830152608060448301526020601f3d018190040260a0810160648401523d608484015290913d5f60a483013e60048260a4018201526001600160e01b031984168260c4018201528160e40181fd5b5f6001600160a01b038316610b7c57506001600160a01b0381163161060f565b6040516370a0823160e01b81526001600160a01b0383811660048301528416906370a0823190602401602060405180830381865afa158015610bc0573d5f803e3d5ffd5b505050506040513d601f19601f82011682018060405250810190610be4919061103e565b905061060f565b5f806001600160a01b0384165f526001600160a01b03831660205260405f209050846001600160a01b031663f135baaa826040518263ffffffff1660e01b8152600401610c3a91815260200190565b602060405180830381865afa158015610c55573d5f803e3d5ffd5b505050506040513d601f19601f82011682018060405250810190610c79919061103e565b95945050505050565b634e487b7160e01b5f52604160045260245ffd5b60405160a0810167ffffffffffffffff81118282101715610cb957610cb9610c82565b60405290565b604051601f8201601f1916810167ffffffffffffffff81118282101715610ce857610ce8610c82565b604052919050565b6001600160a01b0381168114610d04575f80fd5b50565b8035610d1281610cf0565b919050565b5f60a08284031215610d27575f80fd5b610d2f610c96565b90508135610d3c81610cf0565b81526020820135610d4c81610cf0565b6020820152604082013562ffffff81168114610d66575f80fd5b60408201526060820135600281900b8114610d7f575f80fd5b6060820152610d9060808301610d07565b608082015292915050565b5f67ffffffffffffffff821115610db457610db4610c82565b50601f01601f191660200190565b5f82601f830112610dd1575f80fd5b8135610de4610ddf82610d9b565b610cbf565b818152846020838601011115610df8575f80fd5b816020850160208301375f918101602001919091529392505050565b5f805f806101008587031215610e28575f80fd5b610e328686610d17565b935060a0850135925060c0850135915060e085013567ffffffffffffffff811115610e5b575f80fd5b610e6787828801610dc2565b91505092959194509250565b5f8060208385031215610e84575f80fd5b823567ffffffffffffffff811115610e9a575f80fd5b8301601f81018513610eaa575f80fd5b803567ffffffffffffffff811115610ec0575f80fd5b856020828401011115610ed1575f80fd5b6020919091019590945092505050565b5f81518084528060208401602086015e5f602082860101526020601f19601f83011685010191505092915050565b602081525f610f216020830184610ee1565b9392505050565b80516001600160a01b03908116835260208083015182169084015260408083015162ffffff169084015260608083015160020b9084015260809182015116910152565b602080825282516001600160a01b0316828201528201515f90610f916040840182610f28565b50604083015160e08301526060830151610100830152608083015161012080840152610fc1610140840182610ee1565b949350505050565b5f60208284031215610fd9575f80fd5b815167ffffffffffffffff811115610fef575f80fd5b8201601f81018413610fff575f80fd5b805161100d610ddf82610d9b565b818152856020838501011115611021575f80fd5b8160208401602083015e5f91810160200191909152949350505050565b5f6020828403121561104e575f80fd5b5051919050565b5f60208284031215611065575f80fd5b813567ffffffffffffffff81111561107b575f80fd5b8201610120818503121561108d575f80fd5b611095610c96565b81356110a081610cf0565b81526110af8560208401610d17565b602082015260c0820135604082015260e0820135606082015261010082013567ffffffffffffffff8111156110e2575f80fd5b6110ee86828501610dc2565b608083015250949350505050565b6111068186610f28565b8360a08201528260c082015261010060e08201525f611129610100830184610ee1565b9695505050505050565b5f600160ff1b820161115357634e487b7160e01b5f52601160045260245ffd5b505f0390565b5f60208284031215611169575f80fd5b81518015158114610f21575f80fdfea26469706673582212208316d24aafe2d321e51b983671347bdae1852d91117eab5ef3d9cc01a11a8d1964736f6c634300081a0033","linkReferences":{}},"methodIdentifiers":{"donate((address,address,uint24,int24,address),uint256,uint256,bytes)":"234266d7","manager()":"481c6a75","unlockCallback(bytes)":"91dd7346"},"id":72}