{"abi":[{"type":"constructor","inputs":[{"name":"_poolManager","type":"address","internalType":"contract IPoolManager"},{"name":"_exchangeRouter","type":"address","internalType":"address"},{"name":"_reader","type":"address","internalType":"address"},{"name":"_dataStore","type":"address","internalType":"address"},{"name":"_marketAddress","type":"address","internalType":"address"},{"name":"_collateralToken","type":"address","internalType":"address"},{"name":"_priceFeed","type":"address","internalType":"address"},{"name":"_token0Address","type":"address","internalType":"address"},{"name":"_token0Decimals","type":"uint8","internalType":"uint8"},{"name":"_rebalanceThreshold","type":"uint256","internalType":"uint256"},{"name":"_executionFee","type":"uint256","internalType":"uint256"}],"stateMutability":"nonpayable"},{"type":"function","name":"addCollateral","inputs":[{"name":"amount","type":"uint256","internalType":"uint256"}],"outputs":[],"stateMutability":"nonpayable"},{"type":"function","name":"afterAddLiquidity","inputs":[{"name":"sender","type":"address","internalType":"address"},{"name":"key","type":"tuple","internalType":"struct PoolKey","components":[{"name":"currency0","type":"address","internalType":"Currency"},{"name":"currency1","type":"address","internalType":"Currency"},{"name":"fee","type":"uint24","internalType":"uint24"},{"name":"tickSpacing","type":"int24","internalType":"int24"},{"name":"hooks","type":"address","internalType":"contract IHooks"}]},{"name":"params","type":"tuple","internalType":"struct IPoolManager.ModifyLiquidityParams","components":[{"name":"tickLower","type":"int24","internalType":"int24"},{"name":"tickUpper","type":"int24","internalType":"int24"},{"name":"liquidityDelta","type":"int256","internalType":"int256"},{"name":"salt","type":"bytes32","internalType":"bytes32"}]},{"name":"delta","type":"int256","internalType":"BalanceDelta"},{"name":"feesAccrued","type":"int256","internalType":"BalanceDelta"},{"name":"hookData","type":"bytes","internalType":"bytes"}],"outputs":[{"name":"","type":"bytes4","internalType":"bytes4"},{"name":"","type":"int256","internalType":"BalanceDelta"}],"stateMutability":"nonpayable"},{"type":"function","name":"afterDonate","inputs":[{"name":"sender","type":"address","internalType":"address"},{"name":"key","type":"tuple","internalType":"struct PoolKey","components":[{"name":"currency0","type":"address","internalType":"Currency"},{"name":"currency1","type":"address","internalType":"Currency"},{"name":"fee","type":"uint24","internalType":"uint24"},{"name":"tickSpacing","type":"int24","internalType":"int24"},{"name":"hooks","type":"address","internalType":"contract IHooks"}]},{"name":"amount0","type":"uint256","internalType":"uint256"},{"name":"amount1","type":"uint256","internalType":"uint256"},{"name":"hookData","type":"bytes","internalType":"bytes"}],"outputs":[{"name":"","type":"bytes4","internalType":"bytes4"}],"stateMutability":"nonpayable"},{"type":"function","name":"afterInitialize","inputs":[{"name":"sender","type":"address","internalType":"address"},{"name":"key","type":"tuple","internalType":"struct PoolKey","components":[{"name":"currency0","type":"address","internalType":"Currency"},{"name":"currency1","type":"address","internalType":"Currency"},{"name":"fee","type":"uint24","internalType":"uint24"},{"name":"tickSpacing","type":"int24","internalType":"int24"},{"name":"hooks","type":"address","internalType":"contract IHooks"}]},{"name":"sqrtPriceX96","type":"uint160","internalType":"uint160"},{"name":"tick","type":"int24","internalType":"int24"}],"outputs":[{"name":"","type":"bytes4","internalType":"bytes4"}],"stateMutability":"nonpayable"},{"type":"function","name":"afterRemoveLiquidity","inputs":[{"name":"sender","type":"address","internalType":"address"},{"name":"key","type":"tuple","internalType":"struct PoolKey","components":[{"name":"currency0","type":"address","internalType":"Currency"},{"name":"currency1","type":"address","internalType":"Currency"},{"name":"fee","type":"uint24","internalType":"uint24"},{"name":"tickSpacing","type":"int24","internalType":"int24"},{"name":"hooks","type":"address","internalType":"contract IHooks"}]},{"name":"params","type":"tuple","internalType":"struct IPoolManager.ModifyLiquidityParams","components":[{"name":"tickLower","type":"int24","internalType":"int24"},{"name":"tickUpper","type":"int24","internalType":"int24"},{"name":"liquidityDelta","type":"int256","internalType":"int256"},{"name":"salt","type":"bytes32","internalType":"bytes32"}]},{"name":"delta","type":"int256","internalType":"BalanceDelta"},{"name":"feesAccrued","type":"int256","internalType":"BalanceDelta"},{"name":"hookData","type":"bytes","internalType":"bytes"}],"outputs":[{"name":"","type":"bytes4","internalType":"bytes4"},{"name":"","type":"int256","internalType":"BalanceDelta"}],"stateMutability":"nonpayable"},{"type":"function","name":"afterSwap","inputs":[{"name":"sender","type":"address","internalType":"address"},{"name":"key","type":"tuple","internalType":"struct PoolKey","components":[{"name":"currency0","type":"address","internalType":"Currency"},{"name":"currency1","type":"address","internalType":"Currency"},{"name":"fee","type":"uint24","internalType":"uint24"},{"name":"tickSpacing","type":"int24","internalType":"int24"},{"name":"hooks","type":"address","internalType":"contract IHooks"}]},{"name":"params","type":"tuple","internalType":"struct IPoolManager.SwapParams","components":[{"name":"zeroForOne","type":"bool","internalType":"bool"},{"name":"amountSpecified","type":"int256","internalType":"int256"},{"name":"sqrtPriceLimitX96","type":"uint160","internalType":"uint160"}]},{"name":"delta","type":"int256","internalType":"BalanceDelta"},{"name":"hookData","type":"bytes","internalType":"bytes"}],"outputs":[{"name":"","type":"bytes4","internalType":"bytes4"},{"name":"","type":"int128","internalType":"int128"}],"stateMutability":"nonpayable"},{"type":"function","name":"beforeAddLiquidity","inputs":[{"name":"sender","type":"address","internalType":"address"},{"name":"key","type":"tuple","internalType":"struct PoolKey","components":[{"name":"currency0","type":"address","internalType":"Currency"},{"name":"currency1","type":"address","internalType":"Currency"},{"name":"fee","type":"uint24","internalType":"uint24"},{"name":"tickSpacing","type":"int24","internalType":"int24"},{"name":"hooks","type":"address","internalType":"contract IHooks"}]},{"name":"params","type":"tuple","internalType":"struct IPoolManager.ModifyLiquidityParams","components":[{"name":"tickLower","type":"int24","internalType":"int24"},{"name":"tickUpper","type":"int24","internalType":"int24"},{"name":"liquidityDelta","type":"int256","internalType":"int256"},{"name":"salt","type":"bytes32","internalType":"bytes32"}]},{"name":"hookData","type":"bytes","internalType":"bytes"}],"outputs":[{"name":"","type":"bytes4","internalType":"bytes4"}],"stateMutability":"nonpayable"},{"type":"function","name":"beforeDonate","inputs":[{"name":"sender","type":"address","internalType":"address"},{"name":"key","type":"tuple","internalType":"struct PoolKey","components":[{"name":"currency0","type":"address","internalType":"Currency"},{"name":"currency1","type":"address","internalType":"Currency"},{"name":"fee","type":"uint24","internalType":"uint24"},{"name":"tickSpacing","type":"int24","internalType":"int24"},{"name":"hooks","type":"address","internalType":"contract IHooks"}]},{"name":"amount0","type":"uint256","internalType":"uint256"},{"name":"amount1","type":"uint256","internalType":"uint256"},{"name":"hookData","type":"bytes","internalType":"bytes"}],"outputs":[{"name":"","type":"bytes4","internalType":"bytes4"}],"stateMutability":"nonpayable"},{"type":"function","name":"beforeInitialize","inputs":[{"name":"sender","type":"address","internalType":"address"},{"name":"key","type":"tuple","internalType":"struct PoolKey","components":[{"name":"currency0","type":"address","internalType":"Currency"},{"name":"currency1","type":"address","internalType":"Currency"},{"name":"fee","type":"uint24","internalType":"uint24"},{"name":"tickSpacing","type":"int24","internalType":"int24"},{"name":"hooks","type":"address","internalType":"contract IHooks"}]},{"name":"sqrtPriceX96","type":"uint160","internalType":"uint160"}],"outputs":[{"name":"","type":"bytes4","internalType":"bytes4"}],"stateMutability":"nonpayable"},{"type":"function","name":"beforeRemoveLiquidity","inputs":[{"name":"sender","type":"address","internalType":"address"},{"name":"key","type":"tuple","internalType":"struct PoolKey","components":[{"name":"currency0","type":"address","internalType":"Currency"},{"name":"currency1","type":"address","internalType":"Currency"},{"name":"fee","type":"uint24","internalType":"uint24"},{"name":"tickSpacing","type":"int24","internalType":"int24"},{"name":"hooks","type":"address","internalType":"contract IHooks"}]},{"name":"params","type":"tuple","internalType":"struct IPoolManager.ModifyLiquidityParams","components":[{"name":"tickLower","type":"int24","internalType":"int24"},{"name":"tickUpper","type":"int24","internalType":"int24"},{"name":"liquidityDelta","type":"int256","internalType":"int256"},{"name":"salt","type":"bytes32","internalType":"bytes32"}]},{"name":"hookData","type":"bytes","internalType":"bytes"}],"outputs":[{"name":"","type":"bytes4","internalType":"bytes4"}],"stateMutability":"nonpayable"},{"type":"function","name":"beforeSwap","inputs":[{"name":"sender","type":"address","internalType":"address"},{"name":"key","type":"tuple","internalType":"struct PoolKey","components":[{"name":"currency0","type":"address","internalType":"Currency"},{"name":"currency1","type":"address","internalType":"Currency"},{"name":"fee","type":"uint24","internalType":"uint24"},{"name":"tickSpacing","type":"int24","internalType":"int24"},{"name":"hooks","type":"address","internalType":"contract IHooks"}]},{"name":"params","type":"tuple","internalType":"struct IPoolManager.SwapParams","components":[{"name":"zeroForOne","type":"bool","internalType":"bool"},{"name":"amountSpecified","type":"int256","internalType":"int256"},{"name":"sqrtPriceLimitX96","type":"uint160","internalType":"uint160"}]},{"name":"hookData","type":"bytes","internalType":"bytes"}],"outputs":[{"name":"","type":"bytes4","internalType":"bytes4"},{"name":"","type":"int256","internalType":"BeforeSwapDelta"},{"name":"","type":"uint24","internalType":"uint24"}],"stateMutability":"nonpayable"},{"type":"function","name":"collateralToken","inputs":[],"outputs":[{"name":"","type":"address","internalType":"address"}],"stateMutability":"view"},{"type":"function","name":"dataStore","inputs":[],"outputs":[{"name":"","type":"address","internalType":"address"}],"stateMutability":"view"},{"type":"function","name":"exchangeRouter","inputs":[],"outputs":[{"name":"","type":"address","internalType":"address"}],"stateMutability":"view"},{"type":"function","name":"executionFee","inputs":[],"outputs":[{"name":"","type":"uint256","internalType":"uint256"}],"stateMutability":"view"},{"type":"function","name":"getHookPermissions","inputs":[],"outputs":[{"name":"","type":"tuple","internalType":"struct Hooks.Permissions","components":[{"name":"beforeInitialize","type":"bool","internalType":"bool"},{"name":"afterInitialize","type":"bool","internalType":"bool"},{"name":"beforeAddLiquidity","type":"bool","internalType":"bool"},{"name":"afterAddLiquidity","type":"bool","internalType":"bool"},{"name":"beforeRemoveLiquidity","type":"bool","internalType":"bool"},{"name":"afterRemoveLiquidity","type":"bool","internalType":"bool"},{"name":"beforeSwap","type":"bool","internalType":"bool"},{"name":"afterSwap","type":"bool","internalType":"bool"},{"name":"beforeDonate","type":"bool","internalType":"bool"},{"name":"afterDonate","type":"bool","internalType":"bool"},{"name":"beforeSwapReturnDelta","type":"bool","internalType":"bool"},{"name":"afterSwapReturnDelta","type":"bool","internalType":"bool"},{"name":"afterAddLiquidityReturnDelta","type":"bool","internalType":"bool"},{"name":"afterRemoveLiquidityReturnDelta","type":"bool","internalType":"bool"}]}],"stateMutability":"pure"},{"type":"function","name":"manualRebalance","inputs":[{"name":"poolId","type":"bytes32","internalType":"PoolId"}],"outputs":[],"stateMutability":"nonpayable"},{"type":"function","name":"marketAddress","inputs":[],"outputs":[{"name":"","type":"address","internalType":"address"}],"stateMutability":"view"},{"type":"function","name":"owner","inputs":[],"outputs":[{"name":"","type":"address","internalType":"address"}],"stateMutability":"view"},{"type":"function","name":"poolManager","inputs":[],"outputs":[{"name":"","type":"address","internalType":"contract IPoolManager"}],"stateMutability":"view"},{"type":"function","name":"priceFeed","inputs":[],"outputs":[{"name":"","type":"address","internalType":"address"}],"stateMutability":"view"},{"type":"function","name":"reader","inputs":[],"outputs":[{"name":"","type":"address","internalType":"address"}],"stateMutability":"view"},{"type":"function","name":"rebalanceThreshold","inputs":[],"outputs":[{"name":"","type":"uint256","internalType":"uint256"}],"stateMutability":"view"},{"type":"function","name":"renounceOwnership","inputs":[],"outputs":[],"stateMutability":"nonpayable"},{"type":"function","name":"setExecutionFee","inputs":[{"name":"newFee","type":"uint256","internalType":"uint256"}],"outputs":[],"stateMutability":"nonpayable"},{"type":"function","name":"setRebalanceThreshold","inputs":[{"name":"newThreshold","type":"uint256","internalType":"uint256"}],"outputs":[],"stateMutability":"nonpayable"},{"type":"function","name":"setSkipRebalancing","inputs":[{"name":"_skip","type":"bool","internalType":"bool"}],"outputs":[],"stateMutability":"nonpayable"},{"type":"function","name":"skipRebalancing","inputs":[],"outputs":[{"name":"","type":"bool","internalType":"bool"}],"stateMutability":"view"},{"type":"function","name":"token0Address","inputs":[],"outputs":[{"name":"","type":"address","internalType":"address"}],"stateMutability":"view"},{"type":"function","name":"token0Decimals","inputs":[],"outputs":[{"name":"","type":"uint8","internalType":"uint8"}],"stateMutability":"view"},{"type":"function","name":"totalHedge","inputs":[{"name":"","type":"bytes32","internalType":"PoolId"}],"outputs":[{"name":"","type":"uint256","internalType":"uint256"}],"stateMutability":"view"},{"type":"function","name":"transferOwnership","inputs":[{"name":"newOwner","type":"address","internalType":"address"}],"outputs":[],"stateMutability":"nonpayable"},{"type":"function","name":"withdrawCollateral","inputs":[{"name":"amount","type":"uint256","internalType":"uint256"}],"outputs":[],"stateMutability":"nonpayable"},{"type":"event","name":"ExecutionFeeUpdated","inputs":[{"name":"newFee","type":"uint256","indexed":false,"internalType":"uint256"}],"anonymous":false},{"type":"event","name":"HedgeUpdated","inputs":[{"name":"poolId","type":"bytes32","indexed":true,"internalType":"PoolId"},{"name":"newHedgeAmount","type":"uint256","indexed":false,"internalType":"uint256"}],"anonymous":false},{"type":"event","name":"OwnershipTransferred","inputs":[{"name":"previousOwner","type":"address","indexed":true,"internalType":"address"},{"name":"newOwner","type":"address","indexed":true,"internalType":"address"}],"anonymous":false},{"type":"event","name":"PositionDecreased","inputs":[{"name":"sizeDelta","type":"uint256","indexed":false,"internalType":"uint256"}],"anonymous":false},{"type":"event","name":"PositionIncreased","inputs":[{"name":"sizeDelta","type":"uint256","indexed":false,"internalType":"uint256"},{"name":"collateralDelta","type":"uint256","indexed":false,"internalType":"uint256"}],"anonymous":false},{"type":"event","name":"RebalanceSkipped","inputs":[{"name":"poolId","type":"bytes32","indexed":true,"internalType":"PoolId"},{"name":"deltaSize","type":"int256","indexed":false,"internalType":"int256"}],"anonymous":false},{"type":"event","name":"RebalanceThresholdUpdated","inputs":[{"name":"newThreshold","type":"uint256","indexed":false,"internalType":"uint256"}],"anonymous":false},{"type":"error","name":"HookNotImplemented","inputs":[]},{"type":"error","name":"NotPoolManager","inputs":[]},{"type":"error","name":"OwnableInvalidOwner","inputs":[{"name":"owner","type":"address","internalType":"address"}]},{"type":"error","name":"OwnableUnauthorizedAccount","inputs":[{"name":"account","type":"address","internalType":"address"}]}],"bytecode":{"object":"0x6101a06040526004805460ff1916905534801561001a575f80fd5b5060405161325138038061325183398101604081905261003991610524565b6001600160a01b038b16608052338b6100513061017a565b506001600160a01b03811661007f57604051631e4fbdf760e01b81525f600482015260240160405180910390fd5b6100888161026d565b506001600160a01b03808b1660a05289811660c05288811660e05287811661010052868116610120528581166101405284166101605260ff831661018052604080516060810190915260298082526100e991906131d76020830139836102bc565b6101136040518060600160405280602a8152602001613200602a913961010e84610309565b6102bc565b600282905560038190556040805160608101909152602480825261014291906131b360208301396002546102bc565b61016a60405180606001604052806027815260200161322a6027913960025461010e90610309565b5050505050505050505050610690565b61026a81610265604080516101c0810182525f80825260208201819052918101829052606081018290526080810182905260a0810182905260c0810182905260e08101829052610100810182905261012081018290526101408101829052610160810182905261018081018290526101a081019190915250604080516101c0810182525f808252602082018190529181018290526001606082018190526080820183905260a082015260c0810182905260e08101829052610100810182905261012081018290526101408101829052610160810182905261018081018290526101a081019190915290565b61035d565b50565b5f80546001600160a01b038381166001600160a01b0319831681178455604051919092169283917f8be0079c531659141344cd1fd0a4f28419497f9722a3daafe3b4186f6b6457e09190a35050565b61030582826040516024016102d29291906105f6565b60408051601f198184030181529190526020810180516001600160e01b03908116632d839cb360e21b179091526104a916565b5050565b5f815f0361031957506001919050565b5f5b5f831180156103325750610330600a84610646565b155b15610357578061034181610659565b91506103509050600a8461067d565b925061031b565b92915050565b80511515612000831615151415806103815750602081015115156110008316151514155b806103985750604081015115156108008316151514155b806103af5750606081015115156104008316151514155b806103c65750608081015115156102008316151514155b806103dd575060a081015115156101008316151514155b806103f3575060c0810151151560808316151514155b80610409575060e0810151151560408316151514155b806104205750610100810151151560208316151514155b806104375750610120810151151560108316151514155b8061044e5750610140810151151560088316151514155b806104655750610160810151151560048316151514155b8061047c5750610180810151151560028316151514155b8061049357506101a0810151151560018316151514155b1561030557610305630732d7b560e51b836104bc565b61026a816104d160201b610b961760201c565b815f526001600160a01b03811660045260245ffd5b5f6a636f6e736f6c652e6c6f6790505f80835160208501845afa505050565b6001600160a01b038116811461026a575f80fd5b805161050f816104f0565b919050565b805160ff8116811461050f575f80fd5b5f805f805f805f805f805f6101608c8e03121561053f575f80fd5b8b5161054a816104f0565b60208d0151909b5061055b816104f0565b60408d0151909a5061056c816104f0565b60608d015190995061057d816104f0565b60808d015190985061058e816104f0565b60a08d015190975061059f816104f0565b60c08d01519096506105b0816104f0565b94506105be60e08d01610504565b93506105cd6101008d01610514565b6101208d0151610140909d01519b9e9a9d50989b979a9699959894979396949593949392505050565b604081525f83518060408401528060208601606085015e5f606082850101526060601f19601f8301168401019150508260208301529392505050565b634e487b7160e01b5f52601260045260245ffd5b5f8261065457610654610632565b500690565b5f6001820161067657634e487b7160e01b5f52601160045260245ffd5b5060010190565b5f8261068b5761068b610632565b500490565b60805160a05160c05160e0516101005161012051610140516101605161018051612a0f6107a45f395f818161045e015261102801525f81816103a00152610f3d01525f81816103790152610f6801525f8181610437015281816107e001528181610ac30152818161158a015261176801525f81816103ea0152818161146d015281816117ec0152611b1701525f818161030401528181611397015261199f01525f81816105e7015281816113d601526119dc01525f81816101fb01528181611739015281816118890152611bf401525f818161060e0152818161069e0152818161076001528181610864015281816108cd0152818161097d015281816109e301528181610a4a0152610b060152612a0f5ff3fe608060405234801561000f575f80fd5b50600436106101f2575f3560e01c80638f8b651511610114578063bcc46e83116100a9578063dc98354e11610079578063dc98354e14610630578063e1b4af69146104c8578063e6e213d914610643578063f2fde38b14610660578063fc2bfe7f14610673575f80fd5b8063bcc46e83146104db578063c4e833ce146104ee578063d4fc42c6146105e2578063dc4c90d314610609575f80fd5b8063b2016bd4116100e4578063b2016bd414610432578063b31ac6e214610459578063b47b2fb114610492578063b6a8b0fa146104c8575f80fd5b80638f8b6515146103d257806395623641146103e55780639f063efc1461040c578063abc6c53a1461041f575f80fd5b80636112fe2e1161018a578063715018a61161015a578063715018a61461036c578063741bef1a146103745780637ff36fbe1461039b5780638da5cb5b146103c2575f80fd5b80636112fe2e146102ec578063660d0d67146102ff5780636c2bbe7e146103265780636fe7e6eb14610359575f80fd5b80633dfe9f6a116101c55780633dfe9f6a1461027b57806340e9903b1461029257806348f175911461029b578063575e24b4146102ae575f80fd5b80631cb85818146101f657806321d0ee701461023a578063259982e51461023a57806337a063d214610266575b5f80fd5b61021d7f000000000000000000000000000000000000000000000000000000000000000081565b6040516001600160a01b0390911681526020015b60405180910390f35b61024d610248366004611db8565b610692565b6040516001600160e01b03199091168152602001610231565b610279610274366004611e2f565b6106f3565b005b61028460025481565b604051908152602001610231565b61028460035481565b6102796102a9366004611e53565b610737565b6102c16102bc366004611e85565b610752565b604080516001600160e01b03199094168452602084019290925262ffffff1690820152606001610231565b6102796102fa366004611e2f565b6107bc565b61021d7f000000000000000000000000000000000000000000000000000000000000000081565b610339610334366004611edf565b610857565b604080516001600160e01b03199093168352602083019190915201610231565b61024d610367366004611f80565b6108c1565b610279610920565b61021d7f000000000000000000000000000000000000000000000000000000000000000081565b61021d7f000000000000000000000000000000000000000000000000000000000000000081565b5f546001600160a01b031661021d565b6102796103e0366004611e2f565b610933565b61021d7f000000000000000000000000000000000000000000000000000000000000000081565b61033961041a366004611edf565b610970565b61027961042d366004611e2f565b6109ca565b61021d7f000000000000000000000000000000000000000000000000000000000000000081565b6104807f000000000000000000000000000000000000000000000000000000000000000081565b60405160ff9091168152602001610231565b6104a56104a0366004611fd7565b6109d6565b604080516001600160e01b03199093168352600f9190910b602083015201610231565b61024d6104d6366004612058565b610a3e565b6102796104e9366004611e2f565b610aa1565b6105d5604080516101c0810182525f80825260208201819052918101829052606081018290526080810182905260a0810182905260c0810182905260e08101829052610100810182905261012081018290526101408101829052610160810182905261018081018290526101a081019190915250604080516101c0810182525f808252602082018190529181018290526001606082018190526080820183905260a082015260c0810182905260e08101829052610100810182905261012081018290526101408101829052610160810182905261018081018290526101a081019190915290565b60405161023191906120b2565b61021d7f000000000000000000000000000000000000000000000000000000000000000081565b61021d7f000000000000000000000000000000000000000000000000000000000000000081565b61024d61063e3660046121d3565b610afa565b6004546106509060ff1681565b6040519015158152602001610231565b61027961066e36600461221a565b610b57565b610284610681366004611e2f565b60016020525f908152604090205481565b5f336001600160a01b037f000000000000000000000000000000000000000000000000000000000000000016146106dc5760405163570c108560e11b815260040160405180910390fd5b6106e98686868686610bb5565b9695505050505050565b6106fb610bcf565b60038190556040518181527fa1f0fd58665de4378cd618b3902283e41a9cb5ad2f434c15e8ba2cf4ba0fe9f1906020015b60405180910390a150565b61073f610bcf565b6004805460ff1916911515919091179055565b5f8080336001600160a01b037f0000000000000000000000000000000000000000000000000000000000000000161461079e5760405163570c108560e11b815260040160405180910390fd5b6107ab8888888888610bfb565b925092509250955095509592505050565b6107c4610bcf565b60405163a9059cbb60e01b8152336004820152602481018290527f00000000000000000000000000000000000000000000000000000000000000006001600160a01b03169063a9059cbb906044015b6020604051808303815f875af115801561082f573d5f803e3d5ffd5b505050506040513d601f19601f820116820180604052508101906108539190612235565b5050565b5f80336001600160a01b037f000000000000000000000000000000000000000000000000000000000000000016146108a25760405163570c108560e11b815260040160405180910390fd5b6108b189898989898989610c17565b9150915097509795505050505050565b5f336001600160a01b037f0000000000000000000000000000000000000000000000000000000000000000161461090b5760405163570c108560e11b815260040160405180910390fd5b61091785858585610bb5565b95945050505050565b610928610bcf565b6109315f610d6d565b565b61093b610bcf565b60028190556040518181527f0e9e5d4aff63c3bc575ab4952b02480f0018c583c06bd88b60b58cf7c98e64689060200161072c565b5f80336001600160a01b037f000000000000000000000000000000000000000000000000000000000000000016146109bb5760405163570c108560e11b815260040160405180910390fd5b6108b189898989898989610dbc565b6109d381610f18565b50565b5f80336001600160a01b037f00000000000000000000000000000000000000000000000000000000000000001614610a215760405163570c108560e11b815260040160405180910390fd5b610a2f888888888888611296565b91509150965096945050505050565b5f336001600160a01b037f00000000000000000000000000000000000000000000000000000000000000001614610a885760405163570c108560e11b815260040160405180910390fd5b610a96878787878787610bb5565b979650505050505050565b6040516323b872dd60e01b8152336004820152306024820152604481018290527f00000000000000000000000000000000000000000000000000000000000000006001600160a01b0316906323b872dd90606401610813565b5f336001600160a01b037f00000000000000000000000000000000000000000000000000000000000000001614610b445760405163570c108560e11b815260040160405180910390fd5b610b4f848484610bb5565b949350505050565b610b5f610bcf565b6001600160a01b038116610b8d57604051631e4fbdf760e01b81525f60048201526024015b60405180910390fd5b6109d381610d6d565b5f6a636f6e736f6c652e6c6f6790505f80835160208501845afa505050565b5f604051630a85dc2960e01b815260040160405180910390fd5b5f546001600160a01b031633146109315760405163118cdaa760e01b8152336004820152602401610b84565b5f805f604051630a85dc2960e01b815260040160405180910390fd5b5f805f610c248760801d90565b600f0b90505f811315610d555760015f610c4d610c46368d90038d018d6122be565b60a0902090565b81526020019081526020015f20548111610c9d578060015f610c77610c46368e90038e018e6122be565b81526020019081526020015f205f828254610c929190612351565b90915550610cc49050565b5f600181610cb3610c46368e90038e018e6122be565b815260208101919091526040015f20555b610cd6610c46368b90038b018b6122be565b7f89d62ce4b1ca4749fb86a441ac219549ceaa59b6603ea446727711a7538caa7a60015f610d0c610c46368f90038f018f6122be565b81526020019081526020015f2054604051610d2991815260200190565b60405180910390a260045460ff16610d5557610d55610d50610c46368c90038c018c6122be565b610f18565b50633615df3f60e11b995f9950975050505050505050565b5f80546001600160a01b038381166001600160a01b0319831681178455604051919092169283917f8be0079c531659141344cd1fd0a4f28419497f9722a3daafe3b4186f6b6457e09190a35050565b5f805f610dc98760801d90565b600f0b9050610dfb6040518060400160405280600b81526020016a34b739b4b2329036b0b4b760a91b815250826112b1565b5f811215610f0057610e0c8161236a565b60015f610e21610c46368e90038e018e6122be565b81526020019081526020015f205f828254610e3c9190612384565b90915550610e549050610c46368b90038b018b6122be565b7f89d62ce4b1ca4749fb86a441ac219549ceaa59b6603ea446727711a7538caa7a60015f610e8a610c46368f90038f018f6122be565b81526020019081526020015f2054604051610ea791815260200190565b60405180910390a260408051808201909152600b81526a34b739b4b2329036b0b4b760a91b6020820152600454610ee1919060ff166112f6565b60045460ff16610f0057610f00610d50610c46368c90038c018c6122be565b506327c18fbf60e21b995f9950975050505050505050565b5f818152600160205260408082205490516341976e0960e01b81526001600160a01b037f0000000000000000000000000000000000000000000000000000000000000000811660048301529192917f000000000000000000000000000000000000000000000000000000000000000016906341976e0990602401602060405180830381865afa158015610fad573d5f803e3d5ffd5b505050506040513d601f19601f82011682018060405250810190610fd19190612397565b90505f81116110225760405162461bcd60e51b815260206004820152601960248201527f496e76616c69642070726963652066726f6d206f7261636c65000000000000006044820152606401610b84565b5f61104e7f0000000000000000000000000000000000000000000000000000000000000000600a612491565b611058838561249f565b61106291906124b6565b9050611097604051806040016040528060118152602001702232b9b4b932b21039b4bd32902aa9a21d60791b8152508261133b565b5f6110a0611380565b90506110da6040518060400160405280601681526020017521bab93932b73a103837b9b4ba34b7b71039b4bd329d60511b8152508261133b565b5f8183116110fa576110ec8383612351565b6110f59061236a565b611104565b6111048284612351565b90506111376040518060400160405280600f81526020016e2232b63a309039b4bd32902aa9a21d60891b815250826112b1565b61116f604051806040016040528060148152602001732932b130b630b731b2903a343932b9b437b6321d60611b81525060025461133b565b6002548113156111c6576111b86040518060400160405280601781526020017f494e4352454153494e4720706f736974696f6e2062793a0000000000000000008152508261133b565b6111c1816114d3565b61128e565b6002546111d29061236a565b811215611232576112216040518060400160405280601781526020017f44454352454153494e4720706f736974696f6e2062793a0000000000000000008152508261121c9061236a565b61133b565b6111c161122d8261236a565b611944565b6112536040518060600160405280602a81526020016128e8602a9139611ca4565b857fd2189ad1fa8bb5520c6a6ec9c73aecbcc655b0c555ba390ff0ff9e75265ac62d8260405161128591815260200190565b60405180910390a25b505050505050565b5f80604051630a85dc2960e01b815260040160405180910390fd5b61085382826040516024016112c7929190612503565b60408051601f198184030181529190526020810180516001600160e01b0316631e53134760e11b179052611ce3565b610853828260405160240161130c929190612524565b60408051601f198184030181529190526020810180516001600160e01b031663c3b5563560e01b179052611ce3565b6108538282604051602401611351929190612503565b60408051601f198184030181529190526020810180516001600160e01b0316632d839cb360e21b179052611ce3565b604051633be7d8b160e11b81526001600160a01b037f0000000000000000000000000000000000000000000000000000000000000000811660048301523060248301525f604483018190526064808401529182917f000000000000000000000000000000000000000000000000000000000000000016906377cfb162906084015f60405180830381865afa15801561141a573d5f803e3d5ffd5b505050506040513d5f823e601f3d908101601f191682016040526114419190810190612547565b90505f5b81518110156114cb575f82828151811061146157611461612647565b602002602001015190507f00000000000000000000000000000000000000000000000000000000000000006001600160a01b031681602001516001600160a01b03161480156114b257508060400151155b156114c257606001519392505050565b50600101611445565b505f91505090565b6114f56040518060600160405280602a815260200161288b602a91398261133b565b5f611508670de0b6b3a7640000836124b6565b905061152c604051806060016040528060268152602001612912602691398261133b565b5f6115446c0c9f2c9cd04674edea40000000846124b6565b61154f906001612384565b90506115736040518060600160405280602d815260200161295e602d91398261133b565b6040516370a0823160e01b81523060048201525f907f00000000000000000000000000000000000000000000000000000000000000006001600160a01b0316906370a0823190602401602060405180830381865afa1580156115d7573d5f803e3d5ffd5b505050506040513d601f19601f820116820180604052508101906115fb9190612397565b905061163c6040518060400160405280601781526020017f417661696c61626c6520555344432062616c616e63653a0000000000000000008152508261133b565b611674604051806040016040528060168152602001752437b7b59031b7b73a3930b1ba1030b2323932b9b99d60511b81525030611cec565b5f61168c6c0c9f2c9cd04674edea40000000866124b6565b90506116b060405180606001604052806024815260200161298b602491398261133b565b828210156117005760405162461bcd60e51b815260206004820152601760248201527f496e73756666696369656e7420636f6c6c61746572616c0000000000000000006044820152606401610b84565b6003544710156117225760405162461bcd60e51b8152600401610b849061265b565b60405163095ea7b360e01b81526001600160a01b037f000000000000000000000000000000000000000000000000000000000000000081166004830152602482018590527f0000000000000000000000000000000000000000000000000000000000000000169063095ea7b3906044016020604051808303815f875af11580156117ae573d5f803e3d5ffd5b505050506040513d601f19601f820116820180604052508101906117d29190612235565b50604080515f8082526101c0820183526001600160a01b037f0000000000000000000000000000000000000000000000000000000000000000811660208085019182528486018490526060850184905230608086015260a085018b905260c0850189905260035460e0860181905261010086018590526101208601859052610140860185905261016086018690526101808601869052865191820187529381526101a08501529351632736fa2960e01b81529293927f000000000000000000000000000000000000000000000000000000000000000090911691632736fa29916118c09085906004016126e0565b60206040518083038185885af11580156118dc573d5f803e3d5ffd5b50505050506040513d601f19601f820116820180604052508101906119019190612397565b5060408051888152602081018790527f3b1f2f3ca0c73d20356c3574f88fe4d4aae2bc312ffcb4823dbd36e6e7550d35910160405180910390a150505050505050565b6003544710156119665760405162461bcd60e51b8152600401610b849061265b565b6119886040518060600160405280602c815260200161282d602c91398261133b565b604051633be7d8b160e11b81526001600160a01b037f0000000000000000000000000000000000000000000000000000000000000000811660048301523060248301525f60448301819052606480840152917f0000000000000000000000000000000000000000000000000000000000000000909116906377cfb162906084015f60405180830381865afa158015611a22573d5f803e3d5ffd5b505050506040513d5f823e601f3d908101601f19168201604052611a499190810190612547565b805190915015611ad657611a926040518060600160405280602b81526020016129af602b9139825f81518110611a8157611a81612647565b60200260200101516060015161133b565b611ad160405180606001604052806026815260200161293860269139825f81518110611ac057611ac0612647565b60200260200101516080015161133b565b611af7565b611af76040518060600160405280603381526020016128b560339139611ca4565b604080515f8082526020820190925290505f604051806101a001604052807f00000000000000000000000000000000000000000000000000000000000000006001600160a01b031681526020015f6001600160a01b031681526020015f6001600160a01b03168152602001306001600160a01b031681526020018581526020015f815260200160035481526020015f8152602001600181526020015f815260200183815260200183815260200160405180602001604052805f8152508152509050611bda604051806060016040528060328152602001612859603291398561133b565b600354604051632736fa2960e01b81526001600160a01b037f00000000000000000000000000000000000000000000000000000000000000001691632736fa2991611c299085906004016126e0565b60206040518083038185885af1158015611c45573d5f803e3d5ffd5b50505050506040513d601f19601f82011682018060405250810190611c6a9190612397565b506040518481527f478d4db4816a91c6778de424542e04dfad66b610c67301a7c280b1b7e86ab8499060200160405180910390a150505050565b6109d381604051602401611cb891906127dd565b60408051601f198184030181529190526020810180516001600160e01b031663104c13eb60e21b1790525b6109d381610b96565b6108538282604051602401611d029291906127ef565b60408051601f198184030181529190526020810180516001600160e01b031663319af33360e01b179052611ce3565b610931612818565b6001600160a01b03811681146109d3575f80fd5b5f60a08284031215611d5d575f80fd5b50919050565b5f60808284031215611d5d575f80fd5b5f8083601f840112611d83575f80fd5b50813567ffffffffffffffff811115611d9a575f80fd5b602083019150836020828501011115611db1575f80fd5b9250929050565b5f805f805f6101608688031215611dcd575f80fd5b8535611dd881611d39565b9450611de78760208801611d4d565b9350611df68760c08801611d63565b925061014086013567ffffffffffffffff811115611e12575f80fd5b611e1e88828901611d73565b969995985093965092949392505050565b5f60208284031215611e3f575f80fd5b5035919050565b80151581146109d3575f80fd5b5f60208284031215611e63575f80fd5b8135611e6e81611e46565b9392505050565b5f60608284031215611d5d575f80fd5b5f805f805f6101408688031215611e9a575f80fd5b8535611ea581611d39565b9450611eb48760208801611d4d565b9350611ec38760c08801611e75565b925061012086013567ffffffffffffffff811115611e12575f80fd5b5f805f805f805f6101a0888a031215611ef6575f80fd5b8735611f0181611d39565b9650611f108960208a01611d4d565b9550611f1f8960c08a01611d63565b94506101408801359350610160880135925061018088013567ffffffffffffffff811115611f4b575f80fd5b611f578a828b01611d73565b989b979a50959850939692959293505050565b8035600281900b8114611f7b575f80fd5b919050565b5f805f806101008587031215611f94575f80fd5b8435611f9f81611d39565b9350611fae8660208701611d4d565b925060c0850135611fbe81611d39565b9150611fcc60e08601611f6a565b905092959194509250565b5f805f805f806101608789031215611fed575f80fd5b8635611ff881611d39565b95506120078860208901611d4d565b94506120168860c08901611e75565b9350610120870135925061014087013567ffffffffffffffff81111561203a575f80fd5b61204689828a01611d73565b979a9699509497509295939492505050565b5f805f805f80610120878903121561206e575f80fd5b863561207981611d39565b95506120888860208901611d4d565b945060c0870135935060e0870135925061010087013567ffffffffffffffff81111561203a575f80fd5b8151151581526101c0810160208301516120d0602084018215159052565b5060408301516120e4604084018215159052565b5060608301516120f8606084018215159052565b50608083015161210c608084018215159052565b5060a083015161212060a084018215159052565b5060c083015161213460c084018215159052565b5060e083015161214860e084018215159052565b5061010083015161215e61010084018215159052565b5061012083015161217461012084018215159052565b5061014083015161218a61014084018215159052565b506101608301516121a061016084018215159052565b506101808301516121b661018084018215159052565b506101a08301516121cc6101a084018215159052565b5092915050565b5f805f60e084860312156121e5575f80fd5b83356121f081611d39565b92506121ff8560208601611d4d565b915060c084013561220f81611d39565b809150509250925092565b5f6020828403121561222a575f80fd5b8135611e6e81611d39565b5f60208284031215612245575f80fd5b8151611e6e81611e46565b634e487b7160e01b5f52604160045260245ffd5b60405160a0810167ffffffffffffffff8111828210171561228757612287612250565b60405290565b604051601f8201601f1916810167ffffffffffffffff811182821017156122b6576122b6612250565b604052919050565b5f60a08284031280156122cf575f80fd5b506122d8612264565b82356122e381611d39565b815260208301356122f381611d39565b6020820152604083013562ffffff8116811461230d575f80fd5b604082015261231e60608401611f6a565b6060820152608083013561233181611d39565b60808201529392505050565b634e487b7160e01b5f52601160045260245ffd5b818103818111156123645761236461233d565b92915050565b5f600160ff1b820161237e5761237e61233d565b505f0390565b808201808211156123645761236461233d565b5f602082840312156123a7575f80fd5b5051919050565b6001815b60018411156123e9578085048111156123cd576123cd61233d565b60018416156123db57908102905b60019390931c9280026123b2565b935093915050565b5f826123ff57506001612364565b8161240b57505f612364565b8160018114612421576002811461242b57612447565b6001915050612364565b60ff84111561243c5761243c61233d565b50506001821b612364565b5060208310610133831016604e8410600b841016171561246a575081810a612364565b6124765f1984846123ae565b805f19048211156124895761248961233d565b029392505050565b5f611e6e60ff8416836123f1565b80820281158282048414176123645761236461233d565b5f826124d057634e487b7160e01b5f52601260045260245ffd5b500490565b5f81518084528060208401602086015e5f602082860101526020601f19601f83011685010191505092915050565b604081525f61251560408301856124d5565b90508260208301529392505050565b604081525f61253660408301856124d5565b905082151560208301529392505050565b5f60208284031215612557575f80fd5b815167ffffffffffffffff81111561256d575f80fd5b8201601f8101841361257d575f80fd5b805167ffffffffffffffff81111561259757612597612250565b6125a660208260051b0161228d565b80828252602082019150602060a084028501019250868311156125c7575f80fd5b6020840193505b828410156106e95760a084880312156125e5575f80fd5b6125ed612264565b84516125f881611d39565b8152602085015161260881611d39565b6020820152604085015161261b81611e46565b60408201526060858101519082015260808086015190820152825260a0909301926020909101906125ce565b634e487b7160e01b5f52603260045260245ffd5b60208082526022908201527f496e73756666696369656e742045544820666f7220657865637574696f6e2066604082015261656560f01b606082015260800190565b5f8151808452602084019350602083015f5b828110156126d65781516001600160a01b03168652602095860195909101906001016126af565b5093949350505050565b602081526126fa6020820183516001600160a01b03169052565b5f602083015161271560408401826001600160a01b03169052565b5060408301516001600160a01b03811660608401525060608301516001600160a01b038116608084015250608083015160a083015260a083015160c083015260c083015160e083015260e08301516101008301526101008301516101208301526101208301516101408301526101408301516101a061016084015261279e6101c084018261269d565b9050610160840151601f19848303016101808501526127bd828261269d565b915050610180840151601f19848303016101a085015261091782826124d5565b602081525f611e6e60208301846124d5565b604081525f61280160408301856124d5565b905060018060a01b03831660208301529392505050565b634e487b7160e01b5f52605160045260245ffdfe5b6465637265617365506f736974696f6e5d205265717565737465642073697a652064656c7461205553443a5b6465637265617365506f736974696f6e5d204372656174696e67206f7264657220776974682073697a652064656c74613a506f736974696f6e2073697a6520696e20474d5820666f726d61742028333020646563696d616c73293a5b6465637265617365506f736974696f6e5d204e6f2063757272656e7420706f736974696f6e20666f756e6420696e20474d58534b495050494e4720726562616c616e63652c2064656c74612077697468696e207468726573686f6c64506f736974696f6e2073697a6520696e2045544820286469766964652062792031653138293a5b6465637265617365506f736974696f6e5d2043757272656e7420636f6c6c61746572616c3a43616c63756c6174656420636f6c6c61746572616c2028555344432077697468203620646563696d616c73293a5465737420636f6c6c61746572616c207573696e672031305e33302064697669736f723a5b6465637265617365506f736974696f6e5d2043757272656e7420706f736974696f6e20696e20474d583aa26469706673582212208dd1c269b337124528c5971f615459f6d51f6755c631b07b53e486186dca04a364736f6c634300081a0033434f4e5354525543544f523a2053657420726562616c616e63655468726573686f6c643a434f4e5354525543544f523a20526563656976656420726562616c616e63655468726573686f6c643a434f4e5354525543544f523a204e756d626572206f66207a65726f7320696e207468726573686f6c643a434f4e5354525543544f523a204e756d626572206f66207a65726f73206166746572207365743a","linkReferences":{}},"methodIdentifiers":{"addCollateral(uint256)":"bcc46e83","afterAddLiquidity(address,(address,address,uint24,int24,address),(int24,int24,int256,bytes32),int256,int256,bytes)":"9f063efc","afterDonate(address,(address,address,uint24,int24,address),uint256,uint256,bytes)":"e1b4af69","afterInitialize(address,(address,address,uint24,int24,address),uint160,int24)":"6fe7e6eb","afterRemoveLiquidity(address,(address,address,uint24,int24,address),(int24,int24,int256,bytes32),int256,int256,bytes)":"6c2bbe7e","afterSwap(address,(address,address,uint24,int24,address),(bool,int256,uint160),int256,bytes)":"b47b2fb1","beforeAddLiquidity(address,(address,address,uint24,int24,address),(int24,int24,int256,bytes32),bytes)":"259982e5","beforeDonate(address,(address,address,uint24,int24,address),uint256,uint256,bytes)":"b6a8b0fa","beforeInitialize(address,(address,address,uint24,int24,address),uint160)":"dc98354e","beforeRemoveLiquidity(address,(address,address,uint24,int24,address),(int24,int24,int256,bytes32),bytes)":"21d0ee70","beforeSwap(address,(address,address,uint24,int24,address),(bool,int256,uint160),bytes)":"575e24b4","collateralToken()":"b2016bd4","dataStore()":"660d0d67","exchangeRouter()":"1cb85818","executionFee()":"40e9903b","getHookPermissions()":"c4e833ce","manualRebalance(bytes32)":"abc6c53a","marketAddress()":"95623641","owner()":"8da5cb5b","poolManager()":"dc4c90d3","priceFeed()":"741bef1a","reader()":"d4fc42c6","rebalanceThreshold()":"3dfe9f6a","renounceOwnership()":"715018a6","setExecutionFee(uint256)":"37a063d2","setRebalanceThreshold(uint256)":"8f8b6515","setSkipRebalancing(bool)":"48f17591","skipRebalancing()":"e6e213d9","token0Address()":"7ff36fbe","token0Decimals()":"b31ac6e2","totalHedge(bytes32)":"fc2bfe7f","transferOwnership(address)":"f2fde38b","withdrawCollateral(uint256)":"6112fe2e"},"id":131}