{"abi":[{"type":"function","name":"getAccountPositions","inputs":[{"name":"dataStore","type":"address","internalType":"address"},{"name":"account","type":"address","internalType":"address"},{"name":"start","type":"uint256","internalType":"uint256"},{"name":"end","type":"uint256","internalType":"uint256"}],"outputs":[{"name":"","type":"tuple[]","internalType":"struct MockReader.Position[]","components":[{"name":"account","type":"address","internalType":"address"},{"name":"market","type":"address","internalType":"address"},{"name":"isLong","type":"bool","internalType":"bool"},{"name":"sizeInUsd","type":"uint256","internalType":"uint256"},{"name":"collateralAmount","type":"uint256","internalType":"uint256"}]}],"stateMutability":"view"},{"type":"function","name":"setPosition","inputs":[{"name":"account","type":"address","internalType":"address"},{"name":"market","type":"address","internalType":"address"},{"name":"isLong","type":"bool","internalType":"bool"},{"name":"sizeInUsd","type":"uint256","internalType":"uint256"},{"name":"collateral","type":"uint256","internalType":"uint256"}],"outputs":[],"stateMutability":"nonpayable"}],"bytecode":{"object":"0x6080604052348015600e575f80fd5b506103db8061001c5f395ff3fe608060405234801561000f575f80fd5b5060043610610034575f3560e01c806348ea63281461003857806377cfb162146100e7575b5f80fd5b6100e561004636600461027c565b6040805160a0810182526001600160a01b03968716808252958716602080830182815296151583850190815260608401968752608084019586525f98895288825284892092895291905291909520945185549087166001600160a01b0319909116178555925160018501805494511515600160a01b026001600160a81b0319909516919096161792909217909355915160028201559051600390910155565b005b6100fa6100f53660046102d3565b610110565b6040516101079190610312565b60405180910390f35b6001600160a01b038381165f9081526020818152604080832083805282528083206001908101548516845292819020815160a0810183528154861681529381015494851692840192909252600160a01b90930460ff1615159282019290925260028201546060808301829052600390930154608083015215610205576040805160018082528183019092525f91816020015b6040805160a0810182525f808252602080830182905292820181905260608201819052608082015282525f199092019101816101a257905050905081815f815181106101f0576101f0610391565b60200260200101819052508092505050610259565b604080515f8082526020820190925281610253565b6040805160a0810182525f808252602080830182905292820181905260608201819052608082015282525f1990920191018161021a5790505b50925050505b949350505050565b80356001600160a01b0381168114610277575f80fd5b919050565b5f805f805f60a08688031215610290575f80fd5b61029986610261565b94506102a760208701610261565b9350604086013580151581146102bb575f80fd5b94979396509394606081013594506080013592915050565b5f805f80608085870312156102e6575f80fd5b6102ef85610261565b93506102fd60208601610261565b93969395505050506040820135916060013590565b602080825282518282018190525f918401906040840190835b8181101561038657835180516001600160a01b0390811685526020808301519091168186015260408083015115159086015260608083015190860152608091820151918501919091529093019260a09092019160010161032b565b509095945050505050565b634e487b7160e01b5f52603260045260245ffdfea264697066735822122022dd466d10e5d16ec7e2b3e529022564e84e2be6353a54e6a12863cd065dad5a64736f6c634300081a0033","linkReferences":{}},"methodIdentifiers":{"getAccountPositions(address,address,uint256,uint256)":"77cfb162","setPosition(address,address,bool,uint256,uint256)":"48ea6328"},"id":55}